:400000000080002011000000B9020000B9020000074A08B5136843F020031360054B1A6803F53F5302331A6000F01CFA00F04CF9E8460040FA46004010B5054C237833B976
:40004000044B13B10448AFF300800123237010BD4881FF1F000000000C220000084B10B51BB108490848AFF300800848036803B910BD074B002BFBD0BDE81040184700BF20
:40008000000000004C81FF1F0C220000C880FF1F0000000008B500F02BFD1E2000F036FD00F02EFCFEE70000F8B572B66E4A6F4D1378002443F024031370062606FB045333
:4000C00000219A881868013402F093F80A2CF5D100221146664C04F1480554F8210005EB420320F0FF06C0B2024405EB4200013303300233834206D013F8037C13F802ECC7
:4001000007F806E0F5E701311229E6D1594A5A4C13785A4943F002031370137C43F2C82643F0020313742378A2F5863243F040032370413A137843F010031370504B1D4677
:400140001A6855F8080F0A605A684A6069684D4A03C229894C481180194651F8122F02604A681946426051F81A2F02624A68426253F8220F454A59681B8903C21380A2F615
:400180003662137843F008031370414B61221A7040F29322A3F5F0631A8018229A70062283F8802243F21332A3F89221052283F8902193F8902103F5C8731D462B781B061C
:4001C00006D54FF4F07000F0CFFE013EF6D1FEE74FF0402340221A70702283F8002240F62132A3F8222241F251222A4FA3F82022192600253B784FF4F07003F0010343EADA
:40020000450500F0B1FE013E05F003052BD0032DF0D1214A4FF480731380204907231370482000230B708870137053711C4B02221A701C4A1C4D137843F001031370144B96
:4002400001221A70194B1A4A1B78DBB203F007011B0911705370174B44221A7094E80F0007C52B80F8BDFEE7E8460040102200004C22000003500140A04300400251004040
:4002800002230000F051004012510040505100400048004025420040044000400640004001400040A2430040B0430040CF0100496E5800407658004008B501F063FF03685A
:4002C0000C2B00D1FEE7FEE780B51148114B0025C0B1A3F1100192C922460439161BB74204D051F8046F42F8046BF7E7114653F8046C8C1AA64202D041F8045BF9E70138A3
:400300001033E5E701F044FFFFF7C4FEFEE700BF01000000F4240000104A114B10B41A60104A114C1368114843F4007313600023032B98BF54F823204FEA830188BF0C4AD8
:400340000133302B4250F3D10A4B1A780A4B1A700A4B064A10BC1A60FFF7A6BE0004FA050CED00E014ED00E0000000000080FF1FB9020000BC760040C080FF1F08ED00E0D2
:4003800000470023014422B1013A885C0344DBB2F9E71846704701380B284FD8DFE800F0060C12181E24302A363C42480902C1F57F3101F5707147E00902C1F57F3101F2E2
:4003C000C13144E00902C1F57F3101F2C53136E00902C1F57F3101F2C93138E00902C1F57F3101F574712FE00902C1F57F3101F2D13129E00902C1F57F3101F2D6311EE0CE
:400400000902C1F57F3101F2D23118E00902C1F57F3101F5757112E00902C1F57F3101F5767114E00902C1F57F3101F577710BE00902C1F57F3101F5787108E000210B78C6
:40044000487843EA002070470878C0B270470B784A788878000440EA02201843CB7840EA0360704710B50B4A137803F0C003802B0ED10024147021460220FFF78CFF38B118
:4004800021460220FFF787FFBDE81040FFF778BF10BD00BFFA460040F8B5014606460320FFF779FF314605460420FFF774FF013500EB052531460320FFF76DFF0024274611
:4004C00001300002854209D910F8013B5A1ED2B2FD2A1C4498BF0127E4B2F3E731460320FFF759FF114B01309D424FEA00204FEAD00014BFED084FF40045A84206D200F1B1
:4005000090431B7801301C44E4B2F6E731460120FFF741FF6442E4B2844204D1002F0CBF06200020F8BD0620F8BD00BFC0FF030080B5ADF51C7D00F0EFFA10B1002000F041
:40054000C3FB00F00FFA62B600252E46B74FFF236A464FF4967106A800F034FA0028F6D1BDF80020062A40F25C819DF81830012B40F05781BDF81A40E31D934200F24F816B
:40058000B3F5967F00F24B8106AB23449B79172B40F04781231D9BB20DF117022BB1D15C013B084480B29BB2F8E706AB1A1951791379404243EA012380B2834240F03381DF
:4005C0009DF819309DF81C80A3F131020A2A00F2C780DFE802F00616C53B76C57B8F3B9FBA00002E00F01D81002C40F01A812046FFF752FFB0FA80F040098DF81C0031462F
:40060000E0E0002E00F00D81012C40F00A81B8F1030F00F20681864B1B681B68C3F30742904502D1C3F3072303E08CBF00234FF480738DF81C301B0A8DF81D300024FF233F
:400640008DF81E308DF81F400421BBE0342B12D1002E00F0E680032C40F0E380A8F140033F2B8CBF4FF4907510252A46002151A801F0BFFD05E0002E00F0D380022C40F280
:40068000D08051AB033C224658190DF11F0101F0A5FDA8F140032C443F2BA4B204D800F0EBFA8023102203E04FF480734FF4907294427DD1BDF81D509D42C0F0BF800126FA
:4006C00041E0002E00F0AD80002540E7002E00F0A88004EB0508B8F5967F00F3A08051AB224607A95819002401F078FD1FFA88F5214667E0002C40F094804E4A03AB92E8A8
:40070000030007AA83E8030082E8030025460126082157E0002E00F08480032C40F08180A8F140033F2BBDF81DA008D800F0A4FABAF17F0F4FEA0A1140F2A58003E0BAF11E
:40074000FF0F40F2AB800A243BE00020FFF7A4FE08B980233B7000F011F900F0B7FA60E0354A12684AB35EB3ADF806404FF0000807AC03A98DF804300294CDF80C80CDF826
:400780001080059401A89047BDF81010B1F5937F02D3059BA34205D0059B03B929B99DF80C400FE00E2441460CE00E24194609E0002501260324294604E00524114601E080
:4007C0000524002101238DF818300A1D0B0A8DF81B30ADF802108DF819408DF81A1092B200230DF117002AB1845C013A23449BB292B2F8E75B4207AA9BB253540DF11D02C6
:400800001B0A53540DF11E0317225A54073196230DF1020289B206A800F0B5F897E60324CFE70424CDE70824CBE700BFFA460040CC80FF1F302300006481FF1FB8F13F0F63
:400840000ED82D4A05EB082312689BB21268C2F30F2112F0FF0F1CBF013189B28B420ED32346294651AA404600F0A0F900280CBF00240A24002500F04FFA01269BE7002581
:4008800001260A2497E710221C48FFF77AFD044664428DF81C400121002493E74FEA082909EB0A014FF4807209020020FFF769FDB8F13F0F0446EBD809F11079D1444FEAD7
:4008C0004919002313F8090001330444202BE4B2F8D1B8F1030FDBD1BAF1FF0FD8D100210520FFF758FD201AC4B200210620FFF752FD201AC4B2CBE7CC80FF1F0080004017
:4009000038B50020FFF7C8FD144C0021236800281A68084614BF06250025FFF732FD63681B78181A00F0FF00834202D123681B6813B9002000F0C8F9094B1A7802F0C00247
:40094000402A1A4600D01DB100231370FFF7F0FD80221A70BDE8384000F0B8B9CC80FF1FFA46004008B562B60221002000F0F6FB014B01221A7008BD6881FF1F00F02CBC5C
:40098000012000F0EDBC70B503EB83030E4615460146402202205C0000F0A4FC022000F085FC30B92CB10120013C00F097F9A4B2F4E7022000F07AFC10B12E80002070BDD2
:4009C000102070BD2DE9F84303EB83035C00224B17461A78804689461E46A2B1254600F053FC30B92DB10120013D00F077F9ADB2F5E700F049FCA0B100F04CFCFFF7C0FFF3
:400A0000002333700DE000F045FC50B100F03CFC38B1FFF7B5FF04E054B100F05FF9013CA4B2012000F042FC01284FF00100F3D100F03CFC01280AD14A46402A28BF402267
:400A4000414600F0A1FC38800020BDE8F88300233B801020BDE8F8836881FF1F184A137843F002031370937803F08F0343F010039370144B1A7802F0CF021A701A7842F0B2
:400A800030021A701A7802F0F0021A701A7842F00F021A70642223F8072C5A2223F8052C002203F8082C084A137843F00103137092F85E3B43F0010382F85E3B704700BFB4
:400AC000004F00400B4F0040A3430040074A137843F001031370137C43F00103137492F85D3B43F0010382F85D3B7047A343004008B505490B781BB9FFF7B0FF01230B70D6
:400B0000BDE80840FFF7E2BF6981FF1F014B1880704700BF064F004070B500F037F900F0D5F908B104243AE000F00AFA0728044610D11C4D2A781B4B900703D4012000F0FE
:400B4000E3F8F7E71A78910704D51B789B0814BF0724002400F0DAF90CBB00F017F900F0B5F90028DED1012000F096F907280AD10C4D02210C4800F01BF90228094E05D08E
:400B80002B789B07F5D54FF0FF3406E033789A0703D4012000F0B8F8F8E700F0B7F9204670BD00BF224700407781FF1F41282DE9F04105460E46174698460AD8441F3A2C25
:400BC0008CBF002401243F2804D8B1F5807F30D806E00124812E28BF0124B8F1100F28D13FB334BB00F072F928BB43463A463146284600F0FBF8072834D1DFF8748098F86B
:400C000000201B4B12F0020F1F4603D1012000F07BF8F4E71A78900706D51B789B080CD002E01A78920719D44FF0FF3400F06EF91AE0012418E0042416E00E4A31465378DB
:400C40002846127800F008F907280BD13A78084B9107E6D4012000F057F8F7E71B789B08E4D0E1E70446E1E72046BDE8F08100BF224700407781FF1F08B500F07DF90F4AB1
:400C8000137843F008031370137C43F0080313740B4BC8221A700B4A137843F010031370137C43F01003137402F5557213789B06FCD5BDE8084000F063B900BFA04300402F
:400CC00001470040AC43004001BE7047024A137843F0010313707047F646004038B50446084DB4F5004F05D9286800F03DF9A4F50044F6E7034B58686043BDE8384000F073
:400D000033B900BFD480FF1F024B1B7A584300F02BB900BFD480FF1F08B500F02DF900BF00BF00BF00BF00BF00BF00BF00BF00BF00BF00BF00BF00BF00BF00BF00BF064A01
:400D400013889BB243F0040313801388BFF36F8FBDE8084000F014B900480040054A00F01F00126800F1100352F8230042F82310704700BF08ED00E000F01F0000F16040A0
:400D8000490100F56440C9B20170704708B500F0F3F8064A137843F008031370137C43F008031374BDE8084000F0EAB8A04300402DE9F0410E464B1E0A4FDFF82C80451E40
:400DC000C418A5420BD03B78DB0703D40120FFF79BFFF8E798F8003005F8013FF1E73046BDE8F081224700402047004070B5184D2C78A60727D5174CB6262670D52626706B
:400E0000022626702D78AD071FD416462070B51AADB2AB4203D916F8015B2570F7E7B3F5807F01D0072070BD3F28FBD800F5103001EB0021490100235A5C0133D2B2202B7A
:400E40002270F9D1EEE7042070BD092070BD00BF224700402047004070B50D4D2C78A60712D50C4CB6262670D8262670052626702D78AD070AD42070080AC9B22070217040
:400E800022702370072070BD042070BD092070BD22470040204700400A4A137899070CD5094BB6211970E12119700E2119701278920704D418700720704704207047092006
:400EC000704700BF224700402047004038B500F053F80C4A147874B901250B4915700B682B400AD00B6823F001030B6000BF00BF00BF556002E0042400E01C4600F040F8E3
:400F0000204638BD6C81FF1F0400084010B500F033F8094B00215A681970012A08D1074C226842F00102226000BF00BF00BF5960BDE8104000F024B86C81FF1F04000840B9
:400F4000074B1B789B0708D5064BB6221A70E0221A700D221A70072070470420704700BF22470040204700400230800803D000BF01380046FCD17047EFF3108072B67047AD
:400F800080F31088704700BFF8B5FFF7F5FF3C4A01251378022743F001031370137C394C43F001031374384B02F5E3521D700B3203F8947C1378064603F07F0313700020BA
:400FC000FFF7A2FE2378314A03F0F90323701378284603F0DF03137023782B432370FFF793FE2820FFF790FE294B38461A7802F07F021A701A7802F0BF021A7023783B431A
:401000002370FFF781FE2378304643F004032370204B00241C705C70FFF7B2FF07211720FFF7AAFE1C491720FFF798FE07211820FFF7A2FE19491820FFF790FE07211520A6
:40104000FFF79AFE16491520FFF788FE20460721FFF792FE13492046FFF780FE28460721FFF78AFE10492846FFF778FE07210C20FFF782FEBDE8F8400C490C20FFF76EBEF7
:40108000A5430040944300409D60004012600040F8510040846000403F180000A11600003D180000E11700000D180000391A000008B51D4B01221A701C4B18701C4800233A
:4010C00003701C4803701C4803701C4803701C4803701C4803701C4803701C4B4FF4000018604FF0807018604FF4001018601A6002221A60164B29B1012903D11A7842F0CA
:40110000010202E01A7802F0FE021A70114B03221A70802203F8202C0120FFF725FF0E4B04221A7008BD00BF0D82FF1FF181FF1F7F81FF1F7E81FF1F7C81FF1F0682FF1FC7
:401140000482FF1F7D81FF1FEE81FF1F00E100E009600040286000401260004070B5074C054623780E461BB9FFF70EFF0123237031462846BDE87040FFF79ABF7481FF1F62
:401180000C4B01221A700C4A002313700B4A13700B4A13700B4A13700B4A13700B4A13700B4A13700B4B03221A70802203F8202C704700BF0D82FF1F7F81FF1F7E81FF1FD3
:4011C0007C81FF1F0682FF1F0482FF1F7D81FF1FEE81FF1F2860004008B5FFF7CDFE204A137803F07F031370937A03F0FB039372A2F5E352033A137803F0FE031370137C11
:4012000003F0FE031374174B1A7842F080021A701A7842F040021A70FFF7B2FE124B4FF400021A604FF080721A604FF400121A6001221A6002221A6000F076FF0B4B4FF4FC
:4012400080521A600A4A002313700A4A13700A4A13700A4A13700A4A13700A4A137008BD08600040F851004080E100E080E200E07E81FF1F7C81FF1F0682FF1F0482FF1FFA
:401280007D81FF1F7481FF1F014B1878704700BF7C81FF1F044B1A7802F0FF001AB118780022C0B21A7070477E81FF1F024A0C2303FB0020407870478281FF1F431E072BB7
:4012C0000CD8074A064B00010344805C5B7800F00F0043EA0020023880B2704700207047FC5F0040431E072BF0B531D8194B0C2505FB0035EC88184FA4B2C4F50074A24243
:401300004FF00C0404FB003488BFEA88E67884BFC2F5007292B2104C46EA12260501EE552C44D6B2667041B90C2202FB0030002343704379DBB2A370F0BD0E46074F2F4438
:40134000751AADB2AA42EFD916F8015B3D72F7E7F0BD00BF8281FF1FFC5F004070600040431E072B0AD8064A0C2303FB002300225A705A79034BD2B200011A54704700BF11
:401380008281FF1FFE5F004038B505461446D1B1431E072B19D8FFF791FFA04203D22846FFF78CFF04460A4609482B011844531A9BB29C4203D9037A02F8013BF7E72846C5
:4013C000FFF7CEFF02E00C4600E00024204638BD7060004030B51A4A1A491B4D0878138803449BB21380194A00231488D8B2A4B27CB1082B0CD050680078C0B2E85450685D
:401400000133013050601088013880B21080ECE718460B780E4C082B0E4A00D040B10E4D2B7883F080032B700F232370022301E0022323701370094B1870087030BD00BF15
:40144000F281FF1FEE81FF1F00600040F881FF1F0C82FF1F7F81FF1F8081FF1FF481FF1F074B02221A70074B80221A70064B0F221A70064A00231370054A01201370704771
:401480007F81FF1F8081FF1F0C82FF1FEE81FF1FF481FF1F30B5164B16491B780A8803F00F03023BDBB21A4492B20A80124C134A0020118889B279B173B15568215C013BEB
:4014C000C9B229705168DBB20131516011880130013989B21180ECE7094A1370094A137883F080031370084B0B221A7030BD00BF29600040F281FF1F00600040F881FF1F98
:40150000F481FF1F8081FF1F0C82FF1F064A06231370064A01201370054B80221A70054B00221A70704700BF7F81FF1F0C82FF1F8081FF1FF481FF1F054B9A683AB19A68B4
:40154000044910709A680988518000229A607047F881FF1FF281FF1F08B5124B1A78D2B21A701B78DBB21A0602D50F4A137008BD0220FFF7E1FF0D4B1B7803F06003202B49
:4015800005D0402B06D043B900F080FC04E000F0D3FD01E000F0B2FD10B9034B03221A7008BD00BF286000400C82FF1F0060004008B5084A084B0120197813880B449BB2E0
:4015C0001380064B00221A70FFF7B6FF044B03221A7008BDF281FF1FEE81FF1F7F81FF1F0C82FF1F08B50C4B1B78DBB2042B07D0062B09D0022B0DD1BDE80840FFF7D8BF3C
:40160000BDE80840FFF746BF0320FFF795FF034B03221A7008BD00BF7F81FF1F0C82FF1F08B5054B002201201A70FFF785FF034B03221A7008BD00BF7F81FF1F0C82FF1F2B
:4016400008B50A4B1A7832B11A78094942F080020A7000221A70074B002201201A70FFF76BFF054B03221A7008BD00BF0482FF1F086000407F81FF1F0C82FF1F074B1B7828
:40168000DBB2042B05D0062B05D0022B05D1FFF7A1BEFFF7C5BFFFF7D3BF70477F81FF1F38B51D4C2378DBB2DD0634D518060AD503F00F03012B2ED1FFF74EFF174B1B7895
:4016C000190609D538BD5A0602D5FFF7D7FF03E09D0620D5FFF786FF23781B061BD4104B1A78104B1B7813430F4A13701278934211D10A4A0849154613782078DBB2000650
:4017000005D41378DBB20B700B7803F00F0328788342F1D138BD38BD286000400C82FF1F8081FF1FF481FF1F29600040054A00231380054A916819B191680B70926853805D
:40174000704700BFF281FF1FF881FF1F0E4808B503889BB213B9FFF783FE13E00B4B02221A700B4B00221A70FFF7E0FF094AD1799379028843EA012392B2934238BF0380B8
:40178000FFF728FE012008BDF881FF1F7F81FF1F8081FF1F0060004008B50C4B04221A700B4B80221A70FFF7C1FF0A4A0120D179937943EA012308490A8892B2934238BFA8
:4017C0000B80064B0B221A7008BD00BF7F81FF1F8081FF1F00600040F881FF1F0C82FF1F084B01221A700F3B9B7C074B1A7B02F00302012A1EBFDA7B82F08002DA730122B2
:401800005A7370470B6000408281FF1F094B02221A700F3B93F82230074B1A7E02F00302012A1EBFDA7E82F08002DA7601225A76704700BF0B6000408281FF1F7047FFF7C8
:401840009FBC000008B50B4B18780138C0B200F035F9094B09491B79DBB200EBC3004269CB5C02EBC3035B68054A596A0B781380516008BD7C81FF1F00600040F081FF1FFC
:40188000F881FF1F08B50D4B18780138C0B200F015F90B4B0B491B79DBB200EBC3004269CB5C02EBC3035B68DB69597813F8022B42EA012204490A804B6008BD7C81FF1F84
:4018C00000600040F081FF1FF881FF1F38B5174C00232380164B18780138C0B200F0EEF8144AD3781179DBB2F1B913490978CDB2591E022918D8416903F1005301EBC5019F
:401900004968013B927801EBC30011F83330D2B2934209D30C2353434168CA185068CB5A606023809368A36038BD00BFF881FF1F7C81FF1F00600040F081FF1F10B5394BF4
:401940001A791978D2B211F0800F194632D05B78013B052B63D8DFE803F0101826626203CB78212B02D1FFF76DFF08E02D4BDB78222B54D1FFF786FF01E0FFF7A7FF2A4B2F
:401980001B889BB2002B4AD009E0002A47D18B78002B44D1244B01221A80244A5A60BDE81040FFF7D3BE002A39D11F4B01221A801F4AF3E75978C9B20A290DD00B2922D094
:4019C00009292CD1FFF782FF174B1B889BB233B3BDE81040FFF7E0BE0ABB9A7802F0FF01EAB9DB78114ADBB21370124B14781878844201D219700EE0197801290BD91278A4
:401A0000D2B21A7007E052B99A78012A07D89B78074ADBB21370BDE81040FFF777BD002010BD00BF00600040F881FF1F0F82FF1F0D82FF1F0E82FF1F00F076BB2DE9F041A2
:401A40001A4D01222E460C2080274FF0080E184B00FB025C14012344187016499CF805802144B8F1000F07D09CF8044024064CBF887081F802E000E08F7000FB0261CC8823
:401A80000132E4B29C71CC88092AC4F30724DC71CC88E4B21C71C988C1F307215971D6D1054BFF221A70BDE8F08100BF8281FF1F70600040FC5F00400A600040064B074A9D
:401AC0001B7802EBC30253681A7C824286BF03EBC003586900207047F181FF1F742300002DE9F84F424B1A78002A7ED01878414D0138C0B2FFF7E2FFA8463F4AC368147815
:401B0000007ADFF800C1E4B203EBC0000C2600274FF0010E834268D01A78A24263D11CF80420597891425ED19A7893F8039002F07F0206FB02FA05EB0A01CF7093F802B0DF
:401B400009F0030981F804B093F803B005F80AB0B3F804A0A1F808A093F902A0BAF1000F0BDAB9F1010F0CBF4FF007094FF00D0981F8059081F801E009E0B9F1010F0CBFE2
:401B80004FF005094FF0090981F805904F704FEA02191A4906FB0282494481F802E0B2F808A0CAF3072A81F800A0B2F808A05FFA8AFA81F801A0B2F806A011495FFA8AFA6D
:401BC000494481F806A0B2F80690C9F3072981F80790B2F806905FFA89F981F80490D288C2F307224A71083394E7BDE8F88F00BF7C81FF1F8281FF1F0682FF1FFC5F0040C4
:401C000070600040F081FF1F08B5064B18780138C0B2FFF753FF20B143681B7900EBC300406908BD7C81FF1F00212DE9F84F0B464C4E0C2707FB01F50131721909297355E2
:401C40004FF000049370474DD3701381937253705371EFD118B1444B1C70444B1C70444B1A78002A7BD0187801240138C0B2FFF725FFA0464368DFF8F0E0DB790C2713F096
:401C8000400F3C4B4FF0000C1A7814BF42F0010202F0FE021A70027AD20007FB0451C36803EB02094B4531D093F802A00AF07F06A64229D10E89B3F804B0B6B25E4538BF0D
:401CC000A1F808B01E7893F801B01EF80660B3451AD181F804A0DE780E7093F902A0DE78BAF1000F06F0030607DA012E0CBF07260D264E7181F8018006E0012E0CBF052635
:401D000009264E7181F801C00833CBE70134092CC3D1C1680A328B1C0A440C200833934209D013F8081C13F80A4C01F07F0100FB01518C72F2E7FFF767FF0F4B01221860AB
:401D400000230C2000FB0251CB80098901320B44092A9BB2F6D1BDE8F84FFFF76FBEBDE8F88F00BF8281FF1FF081FF1FEF81FF1F7C81FF1F7D81FF1F0882FF1F114B1B7919
:401D800003F07F035A1E072A19D80F490C2202FB031291781B0141F0010191700021D170517841F002015170127912F0800F074A1A4414BF8D2389239370FFF7A7BB00208E
:401DC000704700BF006000408281FF1FFC5F004030B4194B1A7902F07F02531E072B27D8164B0C2404FB02339978154D01F0FE0199700021D97029461201505D114400F012
:401E00007F0050555A7802F0FD025A701A795B78120605D5012B01D18C7006E00D2303E0012B0CBF082309238B7030BCFFF76EBB002030BC704700BF006000408281FF1F0F
:401E4000FC5F004010B50D4B0D4C21791878C9B20138C0B2FFF732FE43681B798B4201D2012909D8074A0848535CDBB24354A3780120DBB2535410BD002010BD7C81FF1F38
:401E800000600040F081FF1FEF81FF1F38B5894A894913780020DBB20880180640F18C8050780A2800F20481DFE810F05B00020102010201020102010B0002017C00020189
:401EC0008000D3787B48012B09D17C4B1A787C4B03EBC2035B685B684B60122310E0C378022B12D18078FFF7E9FD002800F0E08043684B604B68DA784B689B7843EA02231B
:401F00000B80BDE83840FFF721BCC378032B24D16C4B00228478D5B2A54210D3654A9078694AEE2808BF1346624A907870B1674C9078247C664A844208BF134606E01C78C2
:401F40000132002CEAD01C782344E3E71A78002A00F0AE801A780A8018E0BDE8384000F0EBB813F0030313D0022B40F0A1800B80504B0C201B7903F07F02564B00FB023350
:401F80009A78554BD2B21A7000225A704B60B8E702220A80514A10784F4AC0B2107053704A60AEE701230B804D4BEFE701230B8013794C4A1344E9E7517801390A2977D833
:401FC000DFE801F037764F76067676760A7620009378454ADBB25AE0937803F0FF0153B93F4B1A7891425FD01970404B01201870FFF71AFE58E0481EC0B2FFF75FFD0028D1
:40200000EED155E0FFF71EFF002851D0294A384913791279DBB2D2B20A70364A3149D25CCB5C9A4240D0314B01221A70FFF758FD3AE003F00303012B2BD009D3022B37D1C0
:402040001C4B9B78002B33D1BDE83840FFF7C0BE184B9B78012B2BD1204A137803F0FD0315E003F00303012B13D008D3022B1FD1104B9B78E3B9BDE83840FFF77FBE0D4BF9
:402080009B78012B14D1154A137843F0020313700AE0084B1A795AB998781B791649DBB2CA5C22EA0002CA54BDE83840FFF72EBA002038BD00600040F881FF1FF181FF1FBB
:4020C000742300004224000060230000AA240000382400008281FF1F7581FF1F7D81FF1F7C81FF1FF081FF1F0482FF1F7E81FF1F0682FF1FEF81FF1F0582FF1F074B1A78BD
:40210000120609D55B78012B06D1054B054A5A6012781A80FFF71ABB0020704700600040F881FF1F38230000024B1878C0F38010704700BF8F4500400F4A137803F003039B
:40214000012B0AD0022B0DD113790C2103F07F020A4B01FB02339B7A00E01379DBB2012B08D800E00023064A1268D35C032B01D1FFF7E4BB00207047006000408281FF1F58
:402180000882FF1F014B1868704700BF4481FF1F0E4B70B51E460E4C0025E41AA410A54204D056F8253098470135F8E700F088F9084B094C1E46E41AA4100025A54204D0DE
:4021C00056F8253098470135F8E770BDCC240000CC240000CC240000D424000010B5431E0A44914204D011F8014B03F8014FF8E710BD03460244934202D003F8011BFAE7BE
:402200007047000000260000E900000000000000004F00400C00205100401000405100401000605100401000C0510040100000000140001000140140000800400140000A00
:40224000004C0140000200500140200001450040014F0040055200400107014001090140040A0140010B01400217014002190140034001400441014004420140074301406F
:402280000347014007480140054C0140034D0140015101407E020A4B28042904780879087C40EE08AF20B820BE10D804DF011F20EC40EE0AEC40EE0A33803640CC3063022A
:4022C000A640A780D6406302A640A781D6401901A301A640A780AF01C610EE1008080F40C20C5701A301AE40AF80B501D620EE50A002AC08AF40B402EC025402A002D604F8
:40230000000A00404000400000004000000808000800C000000B0B000000000000020200020000000400000404000400000000006930122E003C010128000000000104004B
:40234000010000000000000000014359555342000000303030303100000000000000000012034D0053004600540031003000300001000000010000007C2300000100000062
:40238000AA24000000000000000000000100000094230000010000008124000002000000B623000001000000C823000000000000B423000003000000010340000300000009
:4023C000820340000300000001000000D0230000000000000424000000000000F8230000000000000000000001000000102400000100000093240000410000001882FF1FF8
:402400001482FF1F410000005982FF1F1082FF1F240005010900A1000900A1000900150025FF7508954091020900150025FF750895408102C0C000000A0330003000300025
:40244000310004030904160355006E0069006C0075007800200049006E006300240355006E0069006C0075007800200042006F006F0074006C006F00610064006500720068
:402480000009022900010102800A09040000020300000209211101000122240007050103400001070582034000011201000200000008B4041DB701300102800143000000FF
:4024C000F8B500BFF8BC08BC9E4670475D00000019030000F8B500BFF8BC08BC9E46704739000000F8240000C880FF1F8000000058010000000000000000000004220000AB
:40250000082200000000E880D0010100420000008014EF030000000000000000000000000000000000000000000000000000000000000000BC24000000000000000000008F
:4025400000000000000000000000000000000000000000000000000000000000000000000000000000000000000000000000000000000000E480FF1F0000000000000000D9
:40258000000000000000000000000000000000000000000000000000000000000000000000000000000000000000000000000000000000000000000000000000000000001B
:4025C00000000000000000000000000000000000000000000000000000000000000000000000000000000000000000000000000000000000000000000000000000000000DB
:40260000000000000000000000000000000000000000000000000000000000000000000000000000000000000000000000000000000000000000000000000000000000009A
:40264000000000000000000000000000000000000000000000000000000000000000000000000000000000000000000000000000000000000000000000000000000000005A
:40268000000000000000000000000000000000000000000000000000000000000000000000000000000000000000000000000000000000000000000000000000000000001A
:4026C00000000000000000000000000000000000000000000000000000000000000000000000000000000000000000000000000000000000000000000000000000000000DA
:402700000000000000000000000000000000000000000000000000000000000000000000000000000000000000000000000000000000000000000000000000000000000099
:402740000000000000000000000000000000000000000000000000000000000000000000000000000000000000000000000000000000000000000000000000000000000059
:402780000000000000000000000000000000000000000000000000000000000000000000000000000000000000000000000000000000000000000000000000000000000019
:4027C00000000000000000000000000000000000000000000000000000000000000000000000000000000000000000000000000000000000000000000000000000000000D9
:402800000000000000000000000000000000000000000000000000000000000000000000000000000000000000000000000000000000000000000000000000000000000098
:402840000000000000000000000000000000000000000000000000000000000000000000000000000000000000000000000000000000000000000000000000000000000058
:402880000000000000000000000000000000000000000000000000000000000000000000000000000000000000000000000000000000000000000000000000000000000018
:4028C00000000000000000000000000000000000000000000000000000000000000000000000000000000000000000000000000000000000000000000000000000000000D8
:402900000000000000000000000000000000000000000000000000000000000000000000000000000000000000000000000000000000000000000000000000000000000097
:402940000000000000000000000000000000000000000000000000000000000000000000000000000000000000000000000000000000000000000000000000000000000057
:402980000000000000000000000000000000000000000000000000000000000000000000000000000000000000000000000000000000000000000000000000000000000017
:4029C00000000000000000000000000000000000000000000000000000000000000000000000000000000000000000000000000000000000000000000000000000000000D7
:402A00000000000000000000000000000000000000000000000000000000000000000000000000000000000000000000000000000000000000000000000000000000000096
:402A40000000000000000000000000000000000000000000000000000000000000000000000000000000000000000000000000000000000000000000000000000000000056
:402A80000000000000000000000000000000000000000000000000000000000000000000000000000000000000000000000000000000000000000000000000000000000016
:402AC00000000000000000000000000000000000000000000000000000000000000000000000000000000000000000000000000000000000000000000000000000000000D6
:402B000000800020112B0000FDE80000FDE8000008B50BF013FF000010B5054C237833B9044B13B10448AFF300800123237010BDA08BFF1F000000005CE80100084B10B5DD
:402B40001BB108490848AFF300800848036803B910BD074B002BFBD0BDE81040184700BF00000000A48BFF1F5CE80100C880FF1F00000000024A062303FB002080787047ED
:402B8000C29EFF1FF8B50CF0D5FB40B2C3431D4A03F07F03137000231F461B4A06254FF0010E40FA03F111F0010122D105FB03F4161996F802C0BCF1010F15D1115B89B27D
:402BC000B1F5FA6F9FBF115B013189B2115305FB03F15418515A89B2B1F5FA6F0DD9217941F00101217108E0115386F802E0317103E005FB03218F700F710133042BD0D1B9
:402C0000F8BD00BFB09EFF1FC29EFF1F0CF0E4BA07B50CF08FFBC04340B28DF807009DF807301B070CD51B4802F0D6FA012002F051F80CF07FFB0007FBD50CF0CDFA25E074
:402C40009DF80730590721D5134802F0C5FA012002F040F80CF06EFB4207FBD5FA200EF02DFF0CF067FBC04340B210F00C0F8DF80700F6D09DF807301B0701D507F04CFC56
:402C80004FF47A700EF01AFF0EF010FF03B05DF804FB00BFDCD5FF1F6CC5FF1F08B508F009FC07F073FA07F0B9F9044B0020D96C07F092FCBDE808400CF0BCB9F080FF1FF3
:402CC00010B9022009F080B9034BB3FBF0F00A2358430CF093BE00BF00180D8F38B504460D460CF027F840B20DB1204301E020EA0400C0B2BDE838400CF016B870B52E4DB3
:402D00002E4C2B782E4660F303032B700023237109F078F92B7803F00F03032B18D8DFE803F002050A11264B5C6809E0254B02245C6101250EE0234B02245C6109F022FF5B
:402D4000002507E007F056F9002520601E4C01E000202CE001210846FFF7C0FF00210220FFF7BCFF337803F00F03032B16BF144B0220586909F038FB204609F095FA02209B
:402D80000BF0E8FE0CF072FE0BF092FF0BF01AFF0A200EF0A9FE29460220FFF79FFF00210120FFF79BFF0A200EF09EFE0120BDE8704009F053BB00BF3085FF1F50F6FF1F29
:402DC000F080FF1F5085FF1FB0710B0013B5164C94F9003033B907F007F960800CF09CFE01231DE0608807F00BF941F288339842F1D894F90030012B13D10DF106000CF084
:402E0000A1FE07280DD050B994F90430052BC5BFBDF80620054B01331A80D8BF23710223237002B010BD00BFBC8BFF1FCC80FF1FF8B5044608460E4607F024FA1C4D1D4A02
:402E4000E36A50B9934202BF1B4B02221A701422314617481BF019F91CE0934203D1174B1F68002303E0164A9342F0D1F7E7F25C58B20AB92A540BE0B918497801F00301B6
:402E8000022908BF203AEA540133142BEFD1184600232B54012684F820606562204601F0D1F8002384F82030034B1E70F8BD00BFC48BFF1FFE1702006181FF1F348BFF1FAB
:402EC000A56A02002DE9F04F5D4D8FB020235D4FADF81C302B68814638688A461446DE68D3F8148007F0C2FB082800F0A58014B10A2202FB0944544A53680392002B18BFB6
:402F00001C46BAF1020F02BF2B68C3F82890DC62B9F1000F06D13B6893F82B309A0744BF4A4B1C682B68DB6A002C72D12BB148494046FFF77DFF4FF0020A2B68454A9B6A7A
:402F40000A21009308A807231BF03EF80723414ACDF800900A210BA81BF036F83B68062793F829203C4BD6F8088003EBC20393F904300293FB1A0493029BC3B1049BBB4275
:402F800015D12B68022293F91030318C93FBF2F3F0690022C3EB08080FF05CFC2B68B28993F910102D48414489B212F077F908AB0BAAFB5CBA5C9A4202D1BAF1020F1FD197
:402FC00000220DF1380B1146F0690BF81C3D0FF041FC1FFA88F31946B2895846059312F05DF90BAAD25D318C8DF81C20F06900220FF030FC059BB2891946584612F04EF941
:403000002B68013F93F91030C3EB08087B1CB3D10BE09C4202D1BAF1020F06D1B8F1000F03D021464046FFF703FF2B68039AC3F82890DC62002353600FB0BDE8F08F00BF20
:4030400088A5FF1F80A4FF1F449FFF1F90A5FF1FD98BFF1F60E801006C84FF1FB98E03002DE9F043404BA3B01B78012B78D13F4C94F9005055B93E4C3E4B2046636200F079
:40308000E1FF3D4B84F820501D7769E0637B04AD032B3A4910D16068642390FBF3F38A693C2101926FF0630202FB030228460092334A1AF089FF08E051F83330314A0093A4
:4030C00063683C2128461AF07FFF94F9003013AE002B2D4CCEBF2D4A5B422D4A3C2130461AF072FF206807F0E3F82A4F8046386807F0DEF88146B8F1000F1AD0C8B12648D4
:403100000124456280F8204001F0FEFE2348466280F8204001F0F8FE2148C0F81880047701F092FF1448C0F81890047701F08CFF16E002963B68DFF8708001930095236817
:40314000184A3C2140461AF03FFF09484FF480630363012380F82030C0F8248000F072FF23B0BDE8F08300BFF88BFF1FD080FF1F48BEFF1FBCE90100B0D2FF1F6C84FF1F0B
:4031800065E8010069E80100049FFF1F70E8010074E80100009FFF1F6CC7FF1FE8BDFF1F9CA5FF1F79E80100089FFF1F024B002018701873FFF754BFD080FF1F2DE9F84359
:4031C00006460BF07BFC394B80461B7A384FDB0643BF022390FBF3F840258025022E04D1C7F8208006F000FFB884386A804502D10020BDE8F883B8EB000402D01E2008F065
:40320000B7FDB4EB550F06DD3B6AC3EB0800401BC0F1010409E0022395FBF3F35B429C42BEBF386AC0EB08004419B88C06F0E8FE012EDFF87C90054605D1C9F8208006F0B0
:40324000D3FEA9F824001B4B1B78052B01D0FFF7ADFFBA6A164B62439C6224D4002CC7D084EAE470A0EBE47095FBF0F080B2142819D80F2804D993F82C301BB10A200FE0E9
:403280000A2805D997F82C30012B03D9642007E0052808D997F82C30022B04D94FF496706043BDE8F8832046BDE8F8835CF6FF1FC48BFF1F449FFF1F012810B5034613D112
:4032C0000D4A927812070FD5FFF778FF88B10B4CA36818440A4BA060186807F0C7F9094B002220735A7004E01846BDE81040FFF765BF002010BD00BFB484FF1F0885FF1FAF
:4033000080A4FF1F449FFF1F2DE9F047484A1168914691F82B4014F0010F00F08780DFF82881444CE8B9444B93F900202AB1D8F80020187B127990420BD0D8F80020526BED
:403340005A6091F829205A733C4A126E9A6001221A70D8F8002012791A7305232370BDE8F08701226270D8F800402479072C03D1BDE8F04709F020BC2F4D2C78044464B290
:403380004CB1601C02D0002C01DA06E01446686800FB04F705E06FF001046F68604297FBF0F7384600F0F0FED9F800200646136ADFF87CA0984239DCD369984236DB00203B
:4033C0002C70FFF74DFE1E4B9B781B070FD5DAF800101C4C0B69186800F0D0FE381AA060DAF8000007F042F92073BDE8F087DAF80020D368146923B1314681209847206078
:4034000000E02660D9F80010D8F800400B69186800F0B4FED9F80020D8F80030606392690121586BBDE8F047FFF74CBDBDE8F08780A4FF1F449FFF1FD080FF1FF080FF1FD5
:40344000B484FF1F0885FF1F88A5FF1F2DE9F04114460746084611461E4600F095FE226A1AB394F82B50C5F3C00131B19042E16918DC8842B8BF104617E0AB0709D5E5694F
:40348000A84202DA002F0BDC0CD19042A8BF10460BE0904208DCE3699842B8BF184604E0284602E0084600E01046E26822B101463046BDE8F041104723691860BDE8F0814F
:4034C000022870B520D1284C2368DA681B691AB119688020904700E01868244D21682E6800F04CFE70630220FFF7E6FE2B682268586B92690221FFF7E5FC236893F82A20D6
:403500001B4B83F82C2070BD03280BD1164C2368DA681B691AB119688020904700E01868124D11E00120FFF7C7FE0146D0B10F4D0D4C2A68536B19440E4B516300225A7005
:4035400081232268FFF782FF21682E6800F016FE22682B68706392690121586BBDE87040FFF7B0BC70BD00BF80A4FF1F88A5FF1FC48BFF1F449FFF1F08B50120FFF71EFE25
:40358000014680B1084B00225A70084B9B781B0704D5BDE808406B2008F092BB0449BDE8084009F0F1BA08BD449FFF1FB484FF1F17B7D13838B56F4D2B78002B00F0D880A6
:4035C000052B0CD10120FFF7F9FD002801DD012002E012D04FF0FF30FFF796FE0DE0022B0BD10120FFF7EAFD002801DD012002E003D04FF0FF300AF06FFF5F4C2378052BB2
:4036000071D15E4B9B7858061FD5990605D5022000F038FF0320FFF753FF012000F032FF0320FFF74DFF032000F02CFF0320FFF747FF002000F026FF0320FFF741FF94F9AE
:40364000030000F01FFF012028E013F0080F94F9033026D0012B09D0012000F013FF0320FFF72EFF94F9030000F00CFF94F90330022B0AD0022000F005FF0320FFF720FF32
:403680003D4B93F9030000F0FDFE94F9030020B100F0F8FE0120FFF713FF0320FFF710FF2BE0012B09D0012000F0ECFE0320FFF707FF94F9030000F0E5FE94F9030020B182
:4036C00000F0E0FE0120FFF7FBFE2D4B1B78A3B1002000F0D7FE0320FFF7F2FE94F9030000F0D0FE09E0042BD7D0244B9B781A0703D52B78022BD0D138BD2878012828D1EF
:40370000204B1B7813F00F0301D101202CE0032B0CD11A4B9B785B0601D4FFF7D1FE1A4B93F91800BDE838400AF0E0BC012B04D094F903300BB9FFF71FFF002000F0A2FEF5
:403740000320FFF7BDFE94F90300BDE8384000F099BE0328D9D005280AD10A4B1B7803F00F03022B04D10320BDE83840FFF7A8BE38BD00BF449FFF1FF88BFF1FB484FF1F6E
:403780006A8DFF1F3085FF1FF080FF1F034A0023D366034A0348537009F0B0BAF080FF1F058CFF1F1C2E0300F0B50446DFF874E0DFF86CC0231A1BB28B422EDADCF8005082
:4037C000DEF80030164FAB42164D26D21E782C2E03D1002323705AB910E00A2EF9D00D2EF7D05D1CCEF800501B7804F8013BE1E739680C482B681A780A2A08D12B6838681A
:403800005A1C83422A6094BF00200120F0BD5A1C8B420260EED90120F0BD0220F0BD00BF549FFF1F509FFF1F2DE9F04F4B49ADF51D7D16F057FD0546002800F082801CACF0
:40384000474B21464FF400721C6016F0BCFD454B20441860284616F07FFC01220A216846FFF7A2FF9DF800300446423B182B6AD80122632103A8FFF797FF01220546632190
:4038800003A8FFF791FF2843044303A81AF08EFA354D01222860632103A8FFF785FF64B2204344B2A846002C4FD103A81AF07EFA023047B2142F2D4DDFF8C0A0DFF8C0B0D6
:4038C000A8BF14274FF00209B94527DA00220D212846FFF769FF002206460A2105F10D00FFF762FF304346B20122632103A8FFF75BFF304310F0FF0F29D19DF80C30412B09
:4039000002D145F804BC03E04C2B22D145F804AC0123EB752C7699442035D5E7144B154C0A22694614481F701AF088FBD8F8001020681AF031FB002820600CBF06200020FF
:4039400008E0012006E0022004E0032002E0052000E004200DF51D7DBDE8F08F964F0300509FFF1F549FFF1F6CA4FF1F9C9FFF1FE080FF1FF48BFF1F2485FF1F813F000035
:4039800095DE00002DE9F84F3B4C3C4B20460A2240F8113B3A491AF078FB3A4B002601250A22394904F131002362E67625771AF06CFB84F83B6084F83C5006F023FC334FCA
:4039C00000283ED0324811F051FD3248FFF72CFF80B90646A14607E04FEA4B1504EB050A9AF81B304BB9013697F900304FFA86FB5B45F1DC09F0AAFF23E000238AF81C309E
:403A00000AF1040006F01AFC0028ECD04FF00108C3458AF81C80E6DD4D4411350A221E4928461AF01DFB38B10A221C4928461AF017FB0028D7D1404604EB40100023037736
:403A4000D1E70D4EDFF8589000254FF00A0897F9003068B283420CDD410163181B7F33B131440A22113108FB00901AF00EFB0135EDE7BDE8F88F00BF589FFF1FFDCC0000DF
:403A800087E801007DDE00008FE80100E080FF1FB9A1000097E80100699FFF1F899FFF1FA4A3FF1FF8B50F4D0F4C061D00F5E67756F8043B0BB11A7802B92B68236054F8C9
:403AC000040B06F0DFFB38B954F8040C06F0F0FB10B92B6844F8043CBE4205F10405E7D1F8BD00BF9885FF1FDCA1FF1F70B505462E1AB3420C460ADD11F8016B964203D1D9
:403B000000232B70601C70BD05F8016BF0E7002070BD0000F0B5354DA9B02B780646002B60D0334C206816F017FB3249304616F0D9FB206008B9687052E016F051FA2E4BC8
:403B400005461B6898424DD82C4E3168002949D00246206816F037FC0746206816F0FCFABD423DD13468264E2544A54236D92378092B31D1611C32232C2201A8FFF7B6FF88
:403B8000014608B903202EE032232C220EA8FFF7ADFF01460028F5D032232C221BA8FFF7A5FF04460028EDD09DF80430302B04D012D3323B032B05D90EE09DF86C30312B9D
:403BC0000AD0DFE70EA81AF0F1F803B2013880B27128D7D846F823400134C6E7002002E0022000E0012029B0F0BD00BF058CFF1F70A4FF1F964F03006CA4FF1FF48BFF1F93
:403C0000D8A1FF1F00231946034A42F823100133732BFAD1704700BFD8A1FF1F08B50F4B00225A700E4B0F4ADB6E92F90020934201DA002B02DAFFF7A9FD0AE00A4A5B0171
:403C4000D018017F0029F6D0D358043098470028F1D1BDE8084000F0CFBE00BF058CFF1FF080FF1FE080FF1F589FFF1F37B50C4602AB03F8010D184606F004FD1D4B1E4DB0
:403C800093F900001D4BA042D8BF00F1FF34DA6E24EAE474A11A05EB4412127F42B9002902DB0134A04201E0013C002CF3DC1446DC669DF80730012B09D1FFF7AFFF104B95
:403CC0001B78032B13D1022000F0D6FD0FE0022B0DD1FFF7A3FF0B4B9B7813F0400F084BEED018780528EBD101210AF037FB204603B030BDE080FF1F589FFF1FF080FF1FEE
:403D0000F88BFF1FB484FF1F2C2359430A4B70B553F82060094D6E506C18191D51F82010616003F1080151F82010A16012B153F82230A36170BD00BFD8A1FF1FC4EEFF1F26
:403D4000734B7449D3F8342110B50A60724973484A627349D3F844414A6272494A62D3F85C11714A5162D3F84011704A5162D3F848216F494A62D3F82C1101606D484462AD
:403D80006D484162D3F860016C494862D3F838016B490860D3F83C016A490860D3F84C0169490860D3F8300168490860684901200A60684AD3F870119161D3F86C111162AF
:403DC000D3F874119162D3F880111163D3F87C119163D3F878111164D3F858115E4A5162D3F864115D4A1160D3F868115C4A1160D3F850115B4A1160D3F820115A4A116006
:403E0000D3F82411594A1160D3F82811584A1160D3F81C21574B04211A600022FFF774FF002201210D20FFF76FFF162202211320FFF76AFF002203211020FFF765FF0022CF
:403E400005211020FFF760FF002206210420FFF75BFF072108460022FFF756FF002208210A20FFF751FF412209211720FFF74CFF002212213220FFF747FF00220C212320C2
:403E8000FFF742FF00220A211A20FFF73DFF00220B211D20FFF738FF00220E212020FFF733FF002210212620FFF72EFF002211212920FFF729FF42220D212C20FFF724FF33
:403EC00000220F212F20FFF71FFF432213213520FFF71AFF442214213820FFF715FF452215213B20FFF710FF722222216F20FFF70BFF002217216120FFF706FF0022162181
:403F00003E20FFF701FF1C4A1C4BC3F8E02310BDD8A1FF1F80A5FF1FFCC1FF1F98A4FF1F24AAFF1F58C2FF1F24D8FF1F6CBFFF1F48ADFF1F00C8FF1FACB1FF1FA4CCFF1F3D
:403F400094A5FF1F8CA5FF1F94A4FF1F74A4FF1F84A5FF1F6C84FF1FB4C2FF1F049FFF1F009FFF1F78A4FF1F7CA4FF1F9CA4FF1F98A5FF1F90A5FF1FA4A3FF1FC4EEFF1FEF
:403F800010B5FFF73FFEFFF7C5FD044630B9044B58700448FFF786FDFFF7D2FE204610BD058CFF1FD8A1FF1F10B50A4C00232046236301F085F8084B20461B785A1E6369DB
:403FC00053435B08E36040F23C532363BDE8104001F076B874D9FF1FE480FF1F38B5104B04465B780D466BB1406A06F061F948B12B7FA86113B994F8200078B101232B775C
:40400000002007E02B7F13B994F820302BB100232B77012084F8200038BD012038BD00BF058CFF1F38B5064D00242B19605959680834FFF7D3FFB4F58C7FF6D138BD00BFFB
:40404000A4E8010038B504460F49002351F83300DA00A04210D10C4B204613445D682946FFF7BCFF18B1204600F04EFF02E0284600F0EAFF012038BD0133232BE6D12046A5
:4040800000F042FF002038BDA4E801000000000038B519F02BFC18F0E9FF0DA3D3E9002319F038F819F018FB054619F039FE0446284618F0DBFF0022074B18F079FE19F01B
:4040C000C3FA8442B4BF601C204638BDAFF30080B81E85EB51B8AE3F0000E03F082810B5044C04D9012007F06FFF206810BD54F8300010BD6C84FF1F914210B504463BD035
:40410000D0B3012903D1072A33D118200DE0022912D1042A05D0052A0AD0032A29D10A2003E0BDE81040FFF7B3BF94FBF0F010BDBDE8104008F070BD012A03D1072918D18B
:40414000182010E0022A14D1042905D005290CD003290ED10A2006E04FF47A7044433C2394FBF3F010BD604310BDBDE8104008F08BBD012007F028FF204610BD91F82920A4
:4041800091F82810FFF7B8BF91F8282091F82910FFF7B2BF38B5194D194B01240020AB602C7009F07BFF174B82681860164B17491A60002381F820301549EB7081F8203054
:4041C000144992F8290081F8203013490B771168124B59625168124B5962FFF77FFF114B9861114809F06CFE204600F073FD0F4B02201C70BDE83840FFF762B9F88BFF1F84
:40420000ECCFFF1F88A5FF1F80A4FF1FE8BDFF1F6CC7FF1F48BEFF1F8CCAFF1F68C4FF1FA4B2FF1F80CEFF1F80BDFF1F449FFF1F38B5204B1B7803F00F04844218D11E4BDD
:40424000DB780BB9914233DD1C4B5A6C2AB99B6E012B02D10AF0EEF806E00420FEF74EFD012102200AF07AF8154B01221A7138BD03F00F03DC1E012C1AD8114C94F9044003
:40428000B4B10D4CE57805F0FF048DB991420FDC042B04D1FEF732FD2146012004E0FEF72DFD2146074B9878BDE838400AF056B838BD00BF3085FF1F5085FF1FE480FF1F4A
:4042C00050F6FF1FF88BFF1FF8B5474E382404FB0067464B2C22397102FB0131B9600546FEF764FF424B19780139042979D8DFE801F00378140B3F0004FB05633D4ADA60B2
:4043000024221A743C4A06E004FB05633B4ADA6024221A743A4A5A6163E0022D0ED0032D19D0012D5DD1374B374ADA600C221A74364A5A61364A9A61364A16E0364B374A18
:40434000DA6010221A74364A5A61364A9A61364ADA61364A44E0364B364ADA600C221A74354A5A61354A9A61354ADA61002237E0032D36D8DFE805F0020E1A2604FB0563DF
:40438000304A5A62304ADA6016221A742F4A5A612F4A22E004FB05632E4A5A622E4ADA6010221A742D4A5A612D4A16E004FB05632C4A5A622C4ADA6010221A742B4A5A61B9
:4043C0002B4A0AE004FB05632A4A5A622A4ADA6010221A74294A5A61294A9A610022DA611A623846F8BD00BFA0A4FF1FC4EEFF1FF88BFF1FC4C1FF1F04B7FF1FE0D1FF1FD4
:4044000030CAFF1FD8A4FF1F24BAFF1FB8BAFF1F60BCFF1F00B3FF1F10A5FF1F88D8FF1F2CABFF1F48D0FF1FDCB4FF1F5CBAFF1F48A5FF1F60B6FF1F38A9FF1F24CEFF1F87
:40444000A0D6FF1F64B8FF1FB4AEFF1FD0ABFF1F90CFFF1F14B8FF1FF8B5FF1F88D4FF1FB8AFFF1F28CCFF1F94B7FF1FF0D0FF1F18D9FF1FC8A6FF1F50D4FF1F00CDFF1F03
:4044800048C0FF1F032808B504DD052007F09CFD002008BD044A382303FB0023034A13609A68034B1A6008BDA0A4FF1F88A5FF1F80A4FF1F70B50E46154CFFF7E3FF154D57
:4044C0007EB12368D86920B12B681B684362FFF7B9FD2368186A20B12B685B684362FFF7B1FD23680C495869FEF7A2FC23689E692B6893F82900FFF7F1FD236870629869BD
:40450000FFF7A0FDBDE870400220FEF7D9BF00BF88A5FF1F80A4FF1F298CFF1FF7B5744C2378052B00F2A180DFE803F037039F4C9F87704B1B7803F00F03012B40F09580B2
:404540006D4A527E022A13D16C4890F82020002A40F08B806A4A127F002A40F0868080F82030684B4FF478421B680263436226E0012A7AD1614C624D94F82030012B02D067
:404580002B7F012B71D1604B5C486362FFF75AFD002384F820302B7767E05C4C94F82030002B62D1012384F82030594B594A0093594B14215B68606A19F006FD2046FFF730
:4045C00041FD52E0554B987DC0B201280FD103229A7507F0CDFB4EF21C73514D2E6C2B64504B28461B686B62FFF72CFD2E6423793F4DD90712D50120FFF744FF0320FEF727
:404600005FFF0320FFF73EFF0320FEF759FF0220FFF738FF2B796FF300032B712379344D9A0722D500210120FFF744FF00210320FFF740FF0021022011E023792C4D9B07CE
:4046400013D500210120FFF735FF00210220FFF731FF00210320FFF72DFF00210846FFF729FF2B796FF341032B712F4B9B7803F0100303F0FF06002B37D11E4B1B7803F0F7
:404680000F03032B19D1294C94F90450012D14D1274FFB6C8BB1206805F0BAFC4EF66023B0FBF3F0FB6C984207D30420FEF726FB3146022009F052FE25711E4D6C78012C7D
:4046C00004D11B4B196C81B12A6908E0022C0CD1174BD86B48B108F0D7FA0146AA69204603B0BDE8F040FFF7A3BD03B0F0BD00BFF88BFF1F3085FF1F3485FF1F48BEFF1FAF
:404700009CA5FF1F78A4FF1FBCE90100D4C9FF1F2485FF1FE6E901005CF6FF1FC29EFF1F2CB9FF1F80A5FF1FB484FF1F50F6FF1FE480FF1F5085FF1F70B108490023CB60C5
:40474000074BD7225B78013392FBF3F35B004B6140F23C530B637047FFF726BC74D9FF1FE480FF1FF0B504460B4A0C4F966E0023251AA9420AD9257826B905F0FD0EBEF1C4
:404780000D0F01D0FD5401330134F1E70349023B53709160F0BD00BFE480FF1F84A4FF1F002870B50E462A4C07DD23786278934201D3227007E0013304E004D02378012BC4
:4047C00001D9013B237094F90050A36801202B4413F8011CFFF778FDA3680220595DFFF773FDA36803202B445978FFF76DFD26B301210846FFF75EFE01210320FFF75AFEC0
:4048000001210220FFF756FE114B12485B789D42B6BF114A114A12680E4B5A62FFF712FC012DC8BF0E4A0F4BD4BF0C4A12680D485A62FFF707FCFFF7B7FB0B4B0B4A13602A
:404840009A680B4B1A600B4B0222DA7070BD00BFE480FF1F2CB9FF1F8CA5FF1FBCE9010094A5FF1FB8CEFF1F10A5FF1F88A5FF1F80A4FF1FF88BFF1F00222DE9F041804611
:404880001046454C032323702379444D03F0FE036FF34103237155F8221001320C2A4FF0000381F82000F6D118463D4A3D4D116881F82530516881F825309168D26881F88A
:4048C000253082F8253055F823100133092B4FF000020877F7D13449344D354E4978012385F8203086F8203021B186F8442085F8442003E086F8443085F844302D4F97F9BC
:404900000230012B02D106212B480FE02B4B5B7803F00F03012B04D0022B05D10F21284804E00C21274801E027480821FFF71AFFB8F1020F18BF0123B96A4FF0000018BFD6
:404940003B7005F0A5FE214B01207362204B1B686B62FFF7F1FE1F4809F0B2FA1E4B012183F820101D4B002083F820101C4B83F820101C4B83F82010FFF712FF1A4B1B4A88
:4049800013609A681A4B1A600223E370194B03221A70BDE8F08100BFF88BFF1F90EA0100C0EA0100D0EA0100058CFF1F2CB9FF1FB8CEFF1FE480FF1FBDE901003085FF1F6F
:4049C000CFE90100C3E90100DEE90100BCE901008CA5FF1F4CD1FF1F5CBAFF1FA0D6FF1FDCB4FF1F00B3FF1F10A5FF1F88A5FF1F80A4FF1F449FFF1F0D4B9B785B0615D5FB
:404A00000C4A002382F821300B4A0C4982F821300B4A82F8213051620A4A82F821300A4A82F82130094A82F821305162704700BFB484FF1FACB1FF1F64D2FF1FBCE901009A
:404A400058C2FF1F48ADFF1F18D2FF1FA4D7FF1F034B1B685B6AD861184600F06BBB00BF88A5FF1FF8B53D4C012123793C4D08466FF34103052723712770A560FFF724FC1A
:404A8000384B02201B78264603F00F03012B0CBF39460321FFF718FC02210320FFF714FC002009F0FBFA304B18600020FFF7EAFC2E4B2F499A782F4B02F0400202F0FF04BA
:404AC000AAB142F645105A6A0224D06140F23C50D3F89420D0612848002281F821204862264985F82120686281F821200BE040F23C505A6AD06142F64510D3F89420D061C3
:404B00001F4A12684A6242F64512D96DD3F8CC30CA61DA611B4B1C481B681A681B4B5A6209F0CEF900210120FFF7C4FC00210220FFF7C0FC00210320FFF7BCFC00210846E5
:404B4000FFF7B8FC2046FFF79DFC0121F0702046FFF7B0FC0E4B01221A70F8BDF88BFF1F80B4FF1F3085FF1F88A5FF1FB484FF1F94A7FF1FA0A4FF1FBCE901001CA6FF1FA9
:404B80008CA5FF1F80A4FF1FECBCFF1F80AAFF1F449FFF1F08B5294B04221A70284B08B9012210E0013021D093F87C20032A0FD0052A0DD0012A0DD1224A127802F00F02CA
:404BC000012A03D1052283F87C200FE00322FAE70222F8E7196D21B9BDE80840012009F0BDBB0020BDE80840FFF73CBF93F87C100020FFF769FB144B144A18608368196871
:404C00001360134A93F8290051625968114A5162FFF764FA104B114A986100231377104A104882F8203009F04BF90F4B03221A700220BDE80840FEF743BC00BFF88BFF1F99
:404C4000E480FF1F3085FF1F88A5FF1F80A4FF1FC4C4FF1FC8B9FF1F2CACFF1F74D7FF1F30CAFF1F24C7FF1F449FFF1F10B542F64510FFF7EDFE114B114C1B7803F00F0308
:404C8000032B04D194F903200AB9E37007E0E3780B4A01335BB2032BC8BF0023D37094F90300FFF7EFFB40F23C50FFF7D1FE94F903000121BDE81040FFF7FCBB3085FF1F1E
:404CC000F88BFF1F08B511F011FDBDE8084000F055BF0000012838B50446074D06D12B7823B90AF04BFA2F200AF06AFA20460AF069FE2C7038BD00BF048CFF1F10B504468C
:404D00000020E4B209F07AFE204609F09BFE204609F080FE204609F089FE2046BDE8104009F09CBE002070477047704738B50B4D0346AD780C4615B1B2F1004F05D821469D
:404D40001846BDE8384015F057B8054B22F000421B7811F019FB012038BD00BF048CFF1F6181FF1F08B50020FDF704FF08B1012008BD0120FDF7FEFE0028F8D10220FDF74A
:404D8000F9FE0028F3D10320FDF7F4FE003018BF012008BDF8B5064600200D46FDF7EAFE28B1AA233360E1232B600020F8BD0220FDF7E0FE08B13223F4E70120FDF7DAFE6B
:404DC00020B14FF487733360C323EDE70320FDF7D1FE10B14FF48773E4E70120F8BD08B5C1B2002009F05CFEBDE808400A200CF07BBE08B5C1B2012009F052FEBDE808405D
:404E00000A200CF071BE000010B5344B04465B78002B61D03620FFF7E2FF2046FFF7E9FFE020FFF7DCFFD020FFF7E3FF0020FFF7E0FF0520FFF7DDFF0E20FFF7DAFF152038
:404E4000FFF7D7FF0D20FFF7D4FF3720FFF7D1FF4320FFF7CEFF4720FFF7CBFF0920FFF7C8FF1520FFF7C5FF1220FFF7C2FF1620FFF7BFFF1920FFF7BCFFE120FFF7AFFFCF
:404E8000D020FFF7B6FF0020FFF7B3FF0520FFF7B0FF0D20FFF7ADFF0C20FFF7AAFF0620FFF7A7FF2D20FFF7A4FF4420FFF7A1FF4020FFF79EFF0E20FFF79BFF1C20FFF7A6
:404EC00098FF1820FFF795FF1620FFF792FFBDE810401920FFF78DBF10BD00BF6181FF1F824210B50ED8029C013C2244904209D88B4207D803980138184481428CBF002033
:404F0000012010BD002010BDF7B590F820300446002B7BD03E4990F835200B88A76B012BD4F83CE090F8363090F822000AD1BFB24FF0000CA1F800C00197B4F848101FFAF8
:404F40008EF706E01FFA8EFEB4F84010CDF804E0BFB200970DF0DCFC217EA08B0DF056FCA068E168636922690B440244013B013A12B209B21BB200B20EF0DEFE94F834201A
:404F8000216B02B1012289B2E06A0DF063FCA2892189606A10F0D0F994F8283013B9A568043512E0012B07D11A4A236915685B1BA56805EB530508E0022B06D1A56823699D
:404FC000144A2B441568043B5D1B94F8293013B9E668043612E0012B07D10F4A636916689B1BE66806EB530608E0022B06D1E6686369094A33441668043B9E1B606AB2B21C
:40500000A9B203B0BDE8F04010F048B903B0F0BDECD0FF1FF8A7FF1F60A7FF1F10B590F8253004467BB190F82420016A02B10122E06989B20DF00EFCA2892189A069BDE83D
:40504000104010F02BB910BD037F23B1826981890089FFF76BBE7047F7B5037F0446002B2AD01649C27F0B88656A012BA66A90F82030807F07D10027ADB2B6B20F80A18E4F
:405080000195009604E0B6B2ADB2A18D019600950DF03EFC217D208B0DF0B8FB2269E168A36890B20144184412B209B200B203B0BDE8F0400EF0BCBB03B0F0BDECD0FF1F65
:4050C000F7B590F820300446002B2FD0184990F823200B88A56A012BE66A90F8243090F8220007D10027ADB2B6B20F80218F0195009604E0B6B2ADB2218E019600950DF034
:4051000007FC217EA08B0DF081FBA068E168636922690B440244013B013A1BB212B209B200B203B0BDE8F0400EF006BE03B0F0BDECD0FF1FF7B590F820300446002B31D0F9
:40514000194990F823200B88A56A012BE66A90F8243090F8220007D10027ADB2B6B20F80218F0195009604E0B6B2ADB2218E019600950DF0CDFB217EA08B0DF047FB208930
:40518000A189636922690B44024494F83440023B023A0131013000949BB292B289B280B20EF038FF03B0F0BDECD0FF1F10B5437E04467BB1017E808B0DF028FBB4F9143065
:4051C000B4F91020B4F90C10B4F90800BDE810400DF024BE10BD00002DE9F74F624B634D00221A8043682A68614C93422060DFF88C81816803D1D8F8002091422ED05D4EF2
:405200005D4F012296F8009098B2327089B2002297F800A03A7011F089FE20680B2281680C234068FFF781FD0D20FFF77BFD236818880DF05BFF236887F800A05A689B6862
:405240002A60C8F8003086F800900025AB46AA46A946A8462F4601952E461FE000880DF045FFF2E71169019B8B421CD3226891698F4225D32268916A89452DD32268116B2B
:405280008A4537D32268916B8B4541D32268116C8D424BD32268116A884553D32268D1688E42DFD35CE0526952F8230002799642DCD101339BB201930136FFF725FED5E7F5
:4052C000D26952F8270002799642D3D10137BFB20136FFF7A3FECDE7D26A52F8290002799642CBD109F101091FFA89F90136FFF7B3FEC3E7526B52F82A0002799642C1D105
:405300000AF1010A1FFA8AFA0136FFF7D9FEB9E7D26B52F82B0002799642B7D10BF1010B1FFA8BFB0136FFF705FFAFE7526C52F8250002799642ADD10135ADB20136FFF76B
:4053400035FFA7E7526A52F8280002799642A5D108F101081FFA88F80136FFF775FE9DE703B0BDE8F08F00BFECD0FF1FC4B9FF1F90B7FF1F078CFF1F088CFF1F88B9FF1F83
:405380002DE9F04F0026B046B146974C4FF0FF352560964C8BB02560954C964A2660964C964B246803900491954896492769DFF858A2DFF858B205600D6015601D600697EB
:4053C0000590079108920993069B43451AD963699F5997F82130CAF800707BB17B69049901933B6903980093FB68BA68FFF778FD012802BF81463D79CBF8007008F10108B9
:405400000436E1E7B9F1000F01D0059B1D6000252F46A946764BDFF8F8A11D60A369DFF8F4B106934FF0FF38069BBB421AD9E3695E5996F82630CAF8006083B173690499AE
:405440000193336903980093F368B268FFF748FD012802BF814696F80480CBF8006001370435E1E7B9F1000F02D0664BC3F8008000252F46A9465E4BDFF89CA11D60236A38
:40548000DFF898B106934FF0FF38069BBB4219D9636A5E59737FCAF8006083B1736904990193336903980093F368B268FFF718FD012802BF814696F80480CBF800600137EC
:4054C0000435E2E7B9F1000F02D04A4BC3F8008000252F46A946464BDFF844A11D60A36ADFF840B106934FF0FF38069BBB4219D9E36A5E59737FCAF8006083B13369049903
:405500005B0001930093F368B2680398FFF7E8FC012802BF814696F80480CBF8006001370435E2E7B9F1000F02D0344BC3F8008000252F46A9462E4BDFF8ECA01D60236B2A
:40554000DFF8E8B006934FF0FF38069BBB421AD9636B5E5996F82130CAF8006083B1736904990193336903980093F368B268FFF7B7FC012802BF814696F80480CBF8006087
:4055800001370435E1E7B9F1000F02D0164BC3F8008000252F46A946154BDFF894A01D60A36BDFF890B006934FF0FF38069BBB4242D9E36B5E5996F82130CAF8006083B1F3
:4055C000736904990193336903980093F368B268FFF786FC012802BF814696F80480CBF8006001370435E1E710C3FF1F9CD6FF1FF0CDFF1F64C4FF1F90B7FF1FF0A7FF1F0C
:405600003CB5FF1F00B4FF1F84D8FF1F34BDFF1F68A6FF1F44BEFF1F00D8FF1FACB3FF1FCCA5FF1F60B8FF1F28ABFF1FA8ADFF1F80D8FF1FF4A7FF1F1A4B1B4AB9F1000F66
:4056400001D0C2F800804FF0FF3119600599126809680029A4BF134801600799186809688142C4BF0F4801600899186809688142C4BF0C4801600999186809688142C4BF71
:40568000084801600949186809688142C4BF054801601B689A42C4BF024B1A600BB0BDE8F08F00BFF0CDFF1F9CD6FF1F10C3FF1F2DE9F047DFF8E490DFF8E4802C4F2D4E96
:4056C0002D4D2E4C00233B6033602B602360C9F80030C8F80030FFF753FE294B49461B685A1C424642D027480068834205D1386890F821700FB1806DD8B923480068834298
:4057000005D1306890F826600EB1406B88B91F480068834204D12868457F0DB1C06A40B91B480068834207D12068447F24B1406C10B1BDE8F047004716480068834208D128
:40574000096891F8210020B1896C11B1BDE8F0470847114909688B4208D1136893F8212022B19B6C13B1BDE8F0471847BDE8F08734BDFF1F44BEFF1FACB3FF1F60B8FF1FCC
:40578000F0CDFF1F3CB5FF1F00B4FF1F64C4FF1FF0A7FF1F10C3FF1F9CD6FF1FA8ADFF1FF4A7FF1F2DE9F843664D06462B680F46654C072B42D8DFE803F004414141154179
:4057C00024332068002839D0604B186090F84430002B33D05E4B02681B689A422ED1FFF793FB2BE0206848B35A4B186090F8303023B3574B02681B689A421FD1FFF72CFC75
:405800001CE02068D0B1544B186090F83430ABB14F4B02681B689A4210D1FFF751FC0DE0206858B14D4B186090F8353033B1484B02681B689A4201D1FFF77CFCDFF83C91DE
:40584000DFF83C81002339463046C9F80030C8F80030FFF795FD424B1B685A1C13D0414A1268934216D1394A1168164691F8210080B1CB6C03B1984723683268934202D11F
:405880005B6D03B19847002323604FF0FF332B60BDE8F883344A126893420ED1D9F8002092F8261049B1936A03B198472368D9F800209342E7D11B6BE3E72C4A12689342C6
:4058C0000DD1D8F80020517F49B1136A03B198472368D8F800209342D5D19B6AD1E7244A126893420DD11B4A11681646487F40B18B6B03B19847236832689342C3D11B6C22
:40590000BFE71C4A1268934207D1134A1168164691F8210008B1CB6B0BE0174A12689342B1D10E4B1A681E4692F821100029AAD0D36B03B19847236832689342A3D15B6CA9
:405940009FE700BF88C9FF1FA4ADFF1F34BDFF1F90B7FF1F60B8FF1FA8ADFF1FF4A7FF1FF0CDFF1F3CB5FF1F00B4FF1F64C4FF1FF0A7FF1F10C3FF1F9CD6FF1F44BEFF1FD6
:40598000ACB3FF1F2DE9F14F554CDFF88491DFF884B1DFF884A1DFF88481524F524E534D00232380C9F80030CBF80030CAF80030C8F800303B603360FFF7E2FC2B685A1C2B
:4059C00000F08B804A4A1268934215D1D9F8000090F8213083B190F844301BB101232380FFF792FAD9F80030424A00211360424A1B6D1160002B6CD1404A2B68126893427A
:405A00000BD1DBF8002092F8261031B1394902200A603949D26A086072B9394A126893420ED1DAF80020517F51B1324903200A603149526A08601AB101B0BDE8F04F1047C4
:405A4000304A1268934214D1D8F80000437F83B190F830301BB101232380FFF7FDFAD8F80030244A04211360234ADB6B1160002B2FD1254B2A681B689A4212D1386890F889
:405A8000213073B190F834301BB101232380FFF717FB3B68174A06211360174A1B6C1160BBB91A4B2A681B689A4216D1306890F8213093B190F835301BB101232380FFF717
:405AC00039FB33680B4A072113600B4A1B6C11601BB101B0BDE8F04F184701B0BDE8F08FECD0FF1FA8ADFF1FF4A7FF1FF0CDFF1F3CB5FF1FA4ADFF1F88C9FF1F00B4FF1F65
:405B000064C4FF1FF0A7FF1F10C3FF1F9CD6FF1F34BDFF1F44BEFF1FACB3FF1F60B8FF1F38B5FFF71FF9A8B1114D124C29462046FFF730F9D8B929682068FFF7B9FD0E4B54
:405B40001A78A2B901221A7029682068BDE83840FFF718BF084B1A78012A08D11870044B1968044B1868BDE83840FFF71BBE38BD38B5FF1FFCB3FF1F98B6FF1F2DE9F74FF7
:405B8000F0214FF4A07011F0D1F90C230B22F0214FF4A070FFF7C9F80020FFF735F90D20FFF7C0F8B34B00241C70B34B4FF0FF321C60B24B20461A60FF2322461946FFF7CC
:405BC000B3F8AF4A4FF4A0735360F023AD499360082313610223936101F12003D3610723136201F12803536201F1440353630223936301F15403A44DD3630223136401F182
:405C0000700001F15C035364E86119230220D36028624FF4A07301F174006B606862F02301F17C00AB60E862032301F18C002B61686301F1640303204FF0040C6B61286443
:405C4000012301F19000146051619462C2F830C02C60AB61C5F828C02B63AC6368640E20E8608A484FF4A0764660F02686600C26066101F19C06466101F1CC06C6610926E1
:405C8000066201F1DC0646620526066301F58076466301F58A76C6631F260460C0F818C0846283630464C66079484FF4A077476001F58C7EF0278760C0F814E0052701F597
:405CC000967E0761C0F81CE0022701F59A7E8761C0F824E0052701F5A47E0762C0F834E0022701F5A87E07638763C0F83CE0076401F5AC7E122704608462C0F844E0C760A2
:405D000040F23C5763484FF4A07980E880024FF0060AF02701F5B07E87600461C0F818A0C0F81CE004628462046384630464C0F80CA059484FF4A07B06604FF4A0764660E9
:405D40000526066101F5BC76466101F5C676C66101F5C87646630C268760836104628462C0F830A084630464C6604C484FF4A076466001F5D4764661032604608760C0F8A0
:405D800010C08461066201F5DC7646620226066301F5E27646630926846284630464C6603F484FF4A07646600B26066101F5E676466101F5FC76C6610926066201F5027619
:405DC000466201F50B76466301F50F76C66301F515764664232604608760C0F818C08462C0F830C0C0F838A00364C6602D484FF4A07646600326066101F51676466101F51A
:405E00001976C6610326046087608361066201F51A76466201F51D76C6620226066301F5217646630D26C0F828C084630464C6601D484FF4A076466001F52376466101F56E
:405E4000277646620326066301F52B76466301F52E7646640C26C66040F23C5604608760C0F810C08461C0F820C08462846303641CE000BF98B6FF1FA4ADFF1F88C9FF1F22
:405E800080BDFF1FF4E9010010C9FF1F4CD1FF1F24C7FF1FDCD5FF1FC0D9FF1FECC3FF1FECBCFF1FECAEFF1F88ABFF1FC1484EF21C7E80E840080226066101F52F764661E8
:405EC0000326866101F53171BB4EC16105218760046284620463C160B1601121F1601D217161B64984637162B5490464F1624FF6FF704CF218614FF49B7832603471C6F822
:405F000010803376F46186F8203086F8213086F8224086F8283086F8293086F84440306386F8344086F8354086F83640B063F1633164C6F848E0F46434657465B465A14E87
:405F4000052732603371B7602C27F760172777619A4FC6F8108007F10B08C6F824809A4F4FF6E078F7624FF002073376F46186F8203086F8213086F8224086F8283086F84E
:405F8000293086F84440C6F8308086F8344086F8354086F83640B063F1633164C6F848E0F46434657465B465884E4FF0D90937710227B7601427376112277761844F326052
:405FC000C6F80C90B377B7614FF00307F3773477747734627462B462F4627E4E4FF0A10837711427376112277761794F3260C6F80880C6F80C90B377F377B7613477747768
:4060000034627462B462F462734E5627F760F02737616A4F4FF06309C6F8149007F11D094FF00207326086F804C0B3603376F46186F8204086F8213086F828704FF0050725
:40604000C6F82490DFF8A09186F8223086F82930C6F82C9086F84440306386F8344086F8354086F83640B063F1633464C6F848E0F46434657465B465584EDFF870B1377109
:406080000227B760D827F760192777614B4FC6F8108007F11F084C4F32603376F46186F8203086F8213086F82230C6F8248086F8283042F6451886F82930F76240F23C57D1
:4060C000C6F850B0DFF828B186F84430376386F8344086F8354086F83640B063F163C6F84080B164F464C6F854B0B4653C4ED827F76019277761314F86F804A007F1280ADC
:40610000314FC6F824A0F76240F23C5737634FF00707DFF8E0A04FF0A00B3260C6F808B0C6F810B03376F46186F8203086F8213086F8223086F8283086F8293086F8443087
:4061400086F8344086F8354086F83640B063F163C6F84080C6F848E0F4643465C6F854A0B465204E4FF0610B3771144FC6F814B007F12D0B4FF008074FF0C80AC6F808A024
:406180004FF05E0AC6F80CA04FF02A0A3260C6F810A086F8254086F82630C6F818B0C6F81C90306286F82440B462F4623463746322E000BF6CC5FF1F68C4FF1F6381FF1F0A
:4061C000A8F80200A4B2FF1F4915030028B2FF1F961402005CB3FF1F04B7FF1FECCFFF1FFCC1FF1FC4C1FF1FFE170200FD9D0000599F0000519D0000C94E4FF0F709C6F87C
:4062000008904FF03C093771C6F810906E270BF102093260F760C6F814A086F8253086F82630C6F81890DFF830934FF00907C6F81C9048F6514986F82440C6F82090B462A7
:40624000F46234637463B74E4FF01E0937714FF00307C6F808904FF4917A4FF04D093260C6F80C90C6F810A0C6F814903776C6F81C807376AC4E0227B7605B2737614FF086
:406280000B074FF00A0886F804804FF09708C6F80C80DFF8C8824FF0180B3260C6F814B03376F46186F8204086F8214086F8223086F8234086F82440B062F162316386F8F5
:4062C0003440C6F838E0F46334647464C6F84880964E40F23F1937715B2737614FF00C07C6F808C04FF04C0CC6F80CC0DFF870C23260C6F814B03376F46186F8204086F867
:40630000214086F8223086F8234086F82440B062F162316386F83440C6F838E0F46334647464C6F848C0824E4FF0750C37715B2737614FF00D07C6F808C04FF0D70CC6F810
:406340000CC0DFF820C23260C6F814B0C6F83CC0DFF814C24FF48068B0623376F46186F8204086F8213086F8223086F82440F162746486F82340C6F8308086F83440C6F859
:4063800038E0C6F840C0B4646A4E4FF0B70C377119277761684FC6F8109007F13309674F3260F7624FF47847B360C6F80CC03376F46186F8204086F8213086F82230C6F8B3
:4063C000249086F8283086F8293086F8444037634FF00E0786F83440B063F163346486F8354086F83640C6F848E0F46434657465B465534E4FF0E0093771B927C6F8089004
:40640000F760DFF868915B2737614FF478473260C6F814B03376F46186F8204086F8213086F8223086F8234086F82440B062F162376386F83440C6F838E0F4633464C6F853
:406440004490B4643F4E0527B760F76014273761122777613C4F4FF00F09326086F80490B377F377B7613477747734627462B462F462364E0527B7602C27F7601427376141
:4064800012277761304F4FF0100AB7614FF01107326086F804A0B377F3773477747734627462B462F4622A4E4FF4957A377109273260C6F808A0F760152777614FF0020781
:4064C00086F834704FF01207C6F8109040F22D193376C6F81C8086F8204086F8213086F8224086F8234086F82440B062F162346386F83540C6F838E0F46334647464B46455
:40650000144EDFF834A037710B27F7600927376111273260C6F808907761337628E000BF80CEFF1F04D8FF1F20C5FF1FD8C6FF1FFCACFF1F48BEFF1F6381FF1F491503007B
:4065400014A7FF1FA4BEFF1F96140200C8BFFF1FB0B8FF1F20BFFF1F75850200FF9D0000079E0000B19D0000D59E0000119D0000C6F81C8086F8204086F8213086F822306B
:4065800086F8234086F82440B062F162C6F8308086F83540C6F838E086F83430F46334647464B464C24E0927F76077614FF002074FF0130986F804904FF49779C6F80890EE
:4065C00040F2351937764FF01407C6F81C803260C6F810907476B74E4FF0050937715627F7601427376112277761B34F3260B7614FF01507B360B377F37734777477346254
:406600007462B462F462AD4E4FF0160837711427376112277761A84F3260C6F80890C6F80CC0B377F377B7613477747734627462B462F462A24E14273761122777619E4FF0
:4066400086F80480B7614FF017074FF0B6083260C6F80880C6F80CC0B377F3773477747734627462B462F462964E4FF4887832603771C6F8088019274FF02F08C6F8108097
:4066800077610AF13A08904FC6F824804FF4FC68C6F80CC03376F46186F8204086F8214086F8223086F8284086F82930F76286F84440C6F8308086F8344086F8354086F8DF
:4066C0003640B063F1633464C6F848E0F46434657465B4657D4E1927326077615F227A4FB260C6F80CC057220AF13C0C86F804B032613376F46186F8204086F8214086F847
:406700002230C6F824C086F8284086F82930F76286F84440C6F8308086F8344086F8354086F83640B063F1633464C6F848E0F46434657465B465664E1427376112277761A6
:406740004FF0360C5C4FC6F808C04FF0BF0C35603471C6F80CC0B377F377B7613477747734627462B462F4625A4E4FF0400CC6F80CC04FF0680CC6F810C06E274FF04E0C53
:40678000B760C6F814C00227DFF85CC10197346235603371B377F377C6F818C0337773779DF804707462B462F4624B4E4FF0E30C3771B927F7605B2737614FF4784735604C
:4067C000C6F808C0C6F814B03376F46186F8204086F8213086F8223086F8234086F8244037634FF00307DFF804C1B062F16286F83440C6F838E0F4633464C6F844C0B464DE
:40680000364E4FF04D0C37719627B7600B2737614FF0030737754FF004073560C6F80CC0B06133777377B477F47786F820407062B162F16286F83040C6F834E0B463F46319
:4068400034647464264E4FF0900C377111273560C6F808C037614FF003074FF0470CC6F80CC03775B06133777377B477F47786F820407062B162F16286F83040C6F834E0A4
:40688000B463F46334647464164E4FF09C0C37754FF00607C6F808C04FF0530C356086F80490C6F80CC0C6F81090B06133771FE0C8BDFF1F8CCAFF1F961402009CA5FF1F28
:4068C000B0D2FF1FE8BDFF1F491503006CC7FF1FA8C6FF1F5CC1FF1F64ACFF1FA4D0FF1F48A8FF1F8CC9FF1F01090200719D00007377B477F47786F820407062B162F162CB
:4069000086F83040C6F834E0B463F46334647464C14E4FF0070B3771F260A027BF4A3560B76033613375B06133777377B377F47786F820407062B162F06286F83040C6F8AC
:4069400034E0B463F46334647464552696609B26D660942616611526156082F804B056610AF13E0696614FF00806AD4F82F82530D76182F82630106282F824409462D46225
:4069800014635463A74A40F23C5716719DF804604FF0300C16764FF00906C2F808C04FF01A084FF0C80C1560C2F80CC0C2F81080C2F814C05476D7619B4A4FF05909167146
:4069C0009DF804604FF01C0816764FF00A06C2F80C904FF01B091560C2F80880C2F81090C2F814C05476D761904A5B2715601671C2F80880576140F23C579DF804604FF0B7
:406A00005A0CC2F80CC0C2F810B01676D7615476874A172715604FF00B05137682F8213082F829307E4B1571D3624FF6E07302259560D163116409257E49D5605761B025D0
:406A40000AF14F071561D46182F8204082F82240576282F8284082F84440136382F83440234682F8354082F836409063C2F848E0D464146554659465CC6181F8204081F868
:406A800022400AF178044C62654C4FF00C02CC624FF6E0740D610C634CF218654FF6FF740A7103228A601E226348CA6017224A61012208600A7681F8212081F8283081F8A8
:406AC000292081F8443081F8343081F8353081F836308C63CD630D64C1F848E0CB640B654B658B655549774608604FF00D00087138208860BC20C860C7200861172048611A
:406B00000AF1A100486246480A76C8624FF6E07008634B48CB6181F8203081F8213081F8222081F8283081F8292081F8443081F8343081F8353081F836308C63CD630B6422
:406B4000C1F848E0CB640B654B658B65DFF800E13C4914264FF0D90C06611226016003718360C0F80CC046618277C2770362C0F818E00377437743628362C36232481426FA
:406B80000661122646614FF003064FF0A208036201600271C0F80880C0F80CC08277C277C0F818E00377437743628362C36227484FF04F0E067640F23C56C6614FF00406E1
:406BC000C0F80CE04FF4977E4FF0020A4FF0050CC0F810E04FF0450E016080F804A0C0F808C0C0F814E080F8202080F8213080F8222080F834604FF00306846280F82430DA
:406C0000C562036380F83520436480F823308763C363036483641DE038BDFF1FD8C8FF1F4915030028C0FF1FA4C0FF1F08B2FF1FD4C9FF1F28AEFF1F10C9FF1FB4C2FF1F61
:406C4000FCB8FF1F4CD1FF1FE4D4FF1FFCA7FF1F96140200C8484FF0640806719A26C66022264661C54E4FF0CC0906F18C0E4FF00406C0F824E0DFF82CE30160C0F8089069
:406C8000C0F810800276C36180F8203080F8212080F8222080F828A080F82920C0F82CE080F84430056380F8343080F8353080F836308463C56303648764C364036543656D
:406CC0008365AF4806710B26C66022264661AB4EC0F8089006F18E090160C0F810800276C36180F8203080F8212080F82220C0F8249080F828A080F82920C0F82CE080F8F8
:406D00004430056380F8343080F8353080F836308463C56303648764C36403654365836598485526C66022264661944EC0F8108006F190084FF006064FF0CB09016080F800
:406D400004C0C0F808900276C36180F8203080F8212080F82220C0F8248080F828A080F82920C0F82CE080F84430046380F8343080F8353080F836308463C56303648764BC
:406D8000C3640365436583657F48D04406719B260160C0F808C0C660C72606612626466148F2104606634BF2DB66866342F6FF7680F818A0C36180F8203080F8212080F8F9
:406DC0002220C0F8248080F8283080F82920C0F82CE080F8443080F8343080F8353080F83630C66303648764C3640365436583656648A02686600661654E80F804B04FF0A4
:406E000019094FF0D80B0160C0F80CB0C0F814900276C361C66240F23C5608F10308C0F82480066342F645185A4E80F8202046654FF0080680F8212080F8222080F828206C
:406E400080F8292080F8442080F8343080F8353080F836308463C563C0F840808764C364036583654C480671444EC0F8149006F19A09474EC0F80CB04FF0A10B016083602A
:406E8000C0F810B00276C36180F8202080F8212080F82220C0F8249080F82820C66240F23C5606634FF00906C0F84080DFF8F88080F8292080F8442080F8343080F83530A7
:406EC00080F836308463C5638564C3640365C0F85480836531484FF0180B06710C26C660C72606612226466148F2104606634BF2DB66C0F808C009F1090C016080F818A035
:406F0000C36180F8203080F8213080F82220C0F824C080F8283080F82920C0F82CE080F8443080F83430866342F6FF76C6634FF00A060364876480F8353080F83630C364E7
:406F400003654365836516484FF0E30C06714FF00B06C0F808C04FF0B80CC0F80CC04FF4784CC0F830C0DFF844C04FF05B090160C0F810901CE000BF38A9FF1FA181FF1FDF
:406F8000B8BAFF1F2CABFF1FA0D6FF1F2CB9FF1F49150300599E0000B8CEFF1F00B3FF1F14BBFF1F31CC0200A99E0000119D0000C0F814B00276C36180F8203080F821206E
:406FC00080F8222080F8233080F824308462C56280F834308763C3630364C0F844C08364C7484FF49C7C016006710826066140F23C5606634FF00C06C0F808C04FF06D0CB0
:40700000C0F80CC04FF03D0CC0F814C00276C36180F8202080F8212080F8222080F8233080F824308462C56280F834308763C363036443648364B3484FF0740C06714FF0FC
:407040000D06C0F808C04FF0D60CC0F80CC04FF4806C0160C0F81090C0F814B00276C36180F8203080F8212080F8222080F82330C0F830C0DFF8BCC28462C0F840C0DFF860
:40708000B8C280F82430C56280F834308763C363C0F844C083649C484FF0C00C06710D2686605526C66022264661984EC0F810C006F1A60C4BF2DB66866342F6FF76016039
:4070C00080F818A0C36180F8203080F8212080F82220C0F824C080F8283080F82920C0F82CE080F84430046380F8343080F8353080F83630C66303648764C3640365436574
:4071000083658348122686607726C660172646617E4E4FF0F508C0F8108006F1A9087D4E4FF00E0CC6624FF6E076016080F804C00276C36180F8203080F8212080F8222084
:40714000C0F8248080F8283080F8292080F84420066380F8343080F8353080F836308463C56303648764C3640365436583656A484FF00F0880F8048013264FF4A078C0F876
:40718000088006614FF06E08604EC0F80C804FF02A08C0F8148006F1BC08C0F81880DFF89C81016080F8252080F82620C0F81C80046280F824308362C36203634363574866
:4071C000BE3686614FF011064FF0100880F804804FF48E78C0F808804FF05708C0F80C804FF020080160C0F810C0C0F8148080F8253080F82620C0F81CE0046280F8243093
:407200008362C3620363436345480160067140F21D1686600D26C660424EC0F810C086614FF01206C0F8148080F8253080F82620C0F81CE0056280F824308362C3620363AB
:4072400043633948067140F21D1686609A26C6602E4EC0F810C006F1C20C4FF013060160C0F8148080F8253080F82620C0F818C0C0F81CE0056280F824308362C3620363FF
:4072800043632A4840F20D1E0160067126260661172646611F4EC0F808E0C66248F2104606634BF2DB66866342F6FF76C6634FF014064FF02D0EC0F80CE00CEB0A0E80F881
:4072C00018A0C36180F8202080F8213080F82220C0F824E080F8283080F8292080F8443080F8343080F8353080F8363003648764C3640365436583650D484FF4887E1FE099
:4073000074D9FF1F98BBFF1FDCB4FF1FA181FF1F5CBAFF1F4915030060BBFF1F88D8FF1F24BAFF1F6182FF1F60B6FF1F60BCFF1F24CEFF1FCF9E0000D99E000075850200DC
:4073400006712626066117264661BF4EC0F808E04FF0BF0E0160C0F80CE080F818A0C66248F2104606634BF2DB66866342F6FF760CF1060EC36180F8202080F8213080F8AE
:407380002220C0F824E080F8283080F8292080F8443080F8343080F8353080F83630C66303648764C364036543658365A7487726C660262606614FF0150E172680F804E0C1
:4073C00046614FF4847E0CF10A060160C0F808E080F818A0C36180F8202080F8213080F822204662984E80F82830C6624BF2DB66866342F6FF76C663954E80F8292080F825
:407400004430046380F8343080F8353080F8363003648764C364036543658365162030710320B0609620F060F4612046B4624FF608443463874C3160C6F81090C6F814B01C
:40744000327686F8203086F8213086F8223086F8233086F82430F56286F83430B763F36333647364B4644FF017067B4CDFF818C226710426A6604C26E6604FF6F07626639E
:40748000764E2160C4F81090C4F814B02276E06184F8203084F8213084F8223084F8233084F82430A062E56284F83430A763E36323646364A6646A4C05264FF014084FF080
:4074C000120EA6600C26216084F804B0E660C4F81080C4F814E0A277E277C4F818C02377637723626362A362E3625E4C0D264FF0190AA6605226216084F804A0E660C4F8D3
:407500001080C4F814E0A277E277C4F818C02377637723626362A362E362534C1A2626717626E6604FF01B062160C4F808E0C4F81080C4F814E0A277E277C4F818C0237784
:40754000637723626362A362E362484C0B2726710526A6609B262160E660C4F81080C4F814E0A277E277C4F818C02377637723626362A362E3623E4C1C26E7604FF01D0707
:407580002671CC262160A660C4F81080C4F814E0A277E277C4F818C02377637723626362A362E362334CDFF8E4B02771CB27A76055272160E760C4F81080C4F814E0A277DD
:4075C000E277C4F818C02377637723626362A362E362294C294F21604FF01E0121719A21E1602749A660C4F81080C4F814E0A277E277C4F818C02377637723626362A36201
:40760000E36205248C602C240F600B71CC60C1F81080C1F814E08A77CA77C1F818C00B774B770B624B628B62CB62164905248C60CC604FF002040F600A71C1F81080C1F877
:4076400014E08A7724E000BF4915030048D0FF1FECA8FF1F439E00005CC6FF1F319E000048CBFF1F60CFFF1F84AEFF1F60B7FF1F30B6FF1FF4CDFF1F98B5FF1F24C7FF1FBF
:40768000F8BFFF1FF4C0FF1F961402000D9E0000CA77C1F818C00B774B770B624B628B62CB62C249A1260C7102240F608C60D924CC604FF00304C1F81080C1F814E08A774C
:4076C000CA77C1F818C00B774B770B624B628B62CB62B7490C71D924CC604FF004040F608E60C1F81080C1F814E08A77CA77C1F818C00B774B770B624B628B62CB62AD49BF
:407700000C7111248C605F24CC604FF492740C6163240F604C61A84C0A7604F58779A74CC1F82490CC624EF21C748C644FF00504CB6181F8203081F8212081F8222081F8BD
:40774000282081F8292081F84430086381F8343081F8353081F836308863CD630B64CB640B654B658B6596494FF0DB090C713C240C612A244C61904CC1F808904FF06C091C
:40778000C1F80C9004F58879C1F818908D4C48F65149CC614FF006040F6081F8252081F82620C1F820904B638B6281F82430CB620B63854940F23C590C71D824CC607E4C96
:4077C0000E6104F58A764E6242F645167F4C0F608B60C1F814A00A76CB6181F8202081F8212081F8222081F8282081F82920CC6281F84420C1F8309081F8343081F83530B0
:4078000081F836308863CD630E648D64CB640B65C1F854B08B656E494FF007040A7681F8202081F8212081F8222081F8282081F8292081F844204EF21C728A64654A0C71A8
:407840004A654FF00802D824CC605B4CCB6181F8343081F8353081F83630CB640B658B655D4BC1F814A004F5907A584C4FF0A00B1A711E220F60C1F808B0C1F810B0C1F869
:4078800024A0CC62C1F830908863CD630E649A604FF491714D221F60DA6019614FF003015A6101225A761976DE614C494FF009030AF1050048624A484EF21C76C8624FF6D3
:4078C000FF704FF00A040B7106238B601123CB601D234FF49B794B6100230F60C1F810900A76CB6181F8202081F8212081F8223081F8282081F8292081F84430086381F871
:40790000343081F8353081F836308863CD630D648E64CB640B654B658B6532494FF0A80B0F600C715F24CC602A240C61234CC1F808B0CC614FF00B044FF0610BC1F814B023
:407940000AF10A0B0862C1F818B081F824308B62CB620B634B6381F8253081F8262022494FF0E20B0C715B240C614FF478440C634FF00C04C1F808B04FF0B70BC1F80CB0D8
:40798000DFF868B04FF0180A0F60C1F814A00A76CB6181F8203081F8212081F8222081F8233081F82430886222E000BFC4C0FF1FC8B5FF1F30CAFF1F6381FF1FFE170200FF
:4079C0002CACFF1F758502006CBFFF1F4915030024AAFF1F519D00008CB3FF1FC4C4FF1FA8F80200E0D1FF1FA0C3FF1F119D0000CD6281F834308E63CB630B64C1F844B027
:407A00008B64C4494FF0D20B0C7180248C605B240C614FF00D04C1F80CB04FF4007BC1F830B0DFF82CB30F60C1F814A00A76CB6181F8203081F8212081F8222081F82330D1
:407A400081F824308862CD6281F834308E63CB630B64C1F844B08B64AF494FF0300B0C7107248C60AD4CC1F810904FF01709C1F8149004F59679AA4C0F60C1F80CB00A76A3
:407A8000CC624FF6E074CB6181F8202081F8212081F82230C1F8249081F8282081F8292081F844300C6381F8343081F8353081F836308863CD630D648E64CB640B654B65E2
:407AC0008B6598490924CC604FF4FC64CC614FF002044FF00E0981F804904FF49579C1F808904FF00F0B4FF015090F60C1F810B0C1F814900A7681F8203081F8212081F8CB
:407B0000223081F8233081F824308862CD620B6381F835308E6381F83440CB630B644B648B6481490B2481F804B040F22D1BCC6009240C6111244C614FF4FC640F60C1F8C9
:407B400008B00A76CC6181F8203081F8212081F8222081F8233081F824308862CD620C6381F835308E6381F83420CB630B644B648B646E490824CC604C614FF002044FF02A
:407B8000100B81F804B04FF4977BC1F808B040F2351B0C764FF4FC64CC614FF011040F60C1F810B04B7662494FF08A0B0F600C7168273C248C60CF60C1F81080C1F814E07B
:407BC0004B628A77CA77C1F818C00B774B770B628B62CB6257491E248C600B24CC602A244C614E4C544F4FF0F70EC1F810E004F5987E524C0F600B7181F8252081F82620D7
:407C0000C1F818E04FF4504ECC61C1F820E081F824308B62CB620B634B6349490A248C604FF04F0E3D4CC1F80CE04FF0FB0EC1F810E004F5A07E3A4C0F60CC614FF00204E4
:407C40000A71C1F8149081F8252081F82620C1F818E00B6281F824308B62CB620B634B6338494FF0970E0C710A248C602B4CC1F80CE04FF0DD0EC1F810E004F5AF7E284C09
:407C80000F60C1F8149081F8252081F82620C1F818E0CC614FF003040B6281F824308B62CB620B634B6328494FF07C0E0C710A248C601A4CC1F80CE04FF09D0EC1F810E078
:407CC00004F27D1E164C0F60C1F8149081F8252081F82620C1F818E0CC610B6281F824308B62CB620B634B6318490A248C600B4C4FF0B00CC1F80CC004F2931C084C4FF070
:407D0000040E0F6081F804E0C1F810B0C1F8149020E000BFB4C5FF1FC8B9FF1F6381FF1F49150300D0A5FF1F58B2FF1FC0D8FF1F74D7FF1FF0CBFF1FDCD5FF1F75850200B9
:407D40008CB9FF1FCCB6FF1F34AFFF1FE0D8FF1F1F9E000081F8252081F82620C1F818C0CC614FF005040B6281F824308B62CB620B634B63EA490F600C71202763248F609D
:407D8000CC607327E74C0F610CEB08070B62C1F814908F61CC6181F8252081F8262081F824308B62CB620B634B63DF494FF05308C1F8108040F2FF78DC4F4FF0E70CC1F823
:407DC00008C04FF0D70C0F600B71C1F80CC0C1F814A00A76CB6181F8203081F8212081F8222081F8233081F824308862CD62C1F8308081F834308E63CB630B644B648B64AE
:407E0000CB4907248C605B240C614FF4FC640F600A71C1F80CC0C1F814A00A76CB6181F8203081F8212081F8222081F8233081F824308862CD620C6381F834308E63CB63A5
:407E40000B644B648B644FF00201DFF8F082802488F804104FF00301C8F80CC04FF4806CC8F830C0DFF8D8C2C8F808405B24C8F81040CCF810404FF6E0748CF804104FF0F8
:407E80000501C8F80070C8F814A088F81820C8F81C3088F8203088F8212088F8222088F8233088F82430C8F82800C8F82C5088F83430C8F83860C8F83C30C8F84030C8F8DE
:407EC0004430C8F848304FF04B08CCF80070CCF808E0CCF80C80CCF814A08CF81820CCF81C308CF820308CF821208CF822208CF823308CF82430CCF82800CCF82C50CCF8D2
:407F000030408CF83430CCF83860CCF83C30CCF84030CCF84430CCF84830DFF828C205248CF804E04FF0960ECCF80CE04FF47C4ECCF830E0DFF810E2CCF808405B24CCF8D7
:407F40000070CCF81040CCF814A08CF81820CCF81C308CF820308CF821208CF822208CF823308CF82430CCF82800CCF82C508CF83430CCF83860CCF83C30CCF84030CCF893
:407F80004430CCF848308EF804104FF006014FF0E00CCEF808C0CEF810404FF0B90C4FF47844CEF80070CEF80CC0CEF814A08EF81820CEF81C308EF820308EF821208EF82A
:407FC00022208EF823308EF82430CEF82800CEF82C50CEF830408EF83430CEF83860CEF83C30CEF84030CEF84430CEF84830DFF85CE14FF0D00C8EF80410CEF808C04D4911
:408000004FF0340CCEF80CC01B244FF05E0CCEF80070CEF810C0CEF814408EF81820CEF81C308EF820208EF821208EF82220CEF82C104FF00701404C8EF8282004F2B51CD2
:40804000CEF824C08EF82920CEF830008EF844208EF834308EF835308EF83630CEF83800CEF83C50CEF84030CEF84860CEF84C30CEF85030CEF85430CEF85830DFF8D0E04B
:408080004FF04C0C8EF80410D921CEF808102549CEF810C004F2BD1CCEF80070CEF80CA0CEF814908EF825208EF82620CEF818C0CEF81C10CEF820008EF82430CEF82830CD
:4080C000CEF82C30CEF83030CEF83430DFF884E04FF0A20CCEF808C04FF05C0CCEF80CC04FF0920CCEF810C04FF0260CCEF814C004F2C71CCEF824C0DFF85CC04FF00801E3
:40810000CEF82CC048F2104CCEF830C04BF2DB6C8EF804104FF00201CEF838C01EE000BF24C1FF1F49150300E0D2FF1FC0D9FF1F90D5FF1FA8F802006381FF1FD4BEFF1FA4
:40814000B0B3FF1F78D3FF1F2CD3FF1FF4D3FF1F8CC1FF1F70B0FF1F31CC020042F6FF7C8EF818104FF00901CEF83CC0DFF804C4CEF80070CEF81C308EF820208EF821208B
:408180008EF822208EF828308EF829208EF844308EF834308EF835308EF83630CEF84030CEF84860CEF84C30CEF85030CEF85430CEF858304FF0980E8CF80410CCF808E0A2
:4081C0002C214FF09C0ECCF80070CCF80CB0CCF810E0CCF814104FF002018CF82810D84904F2D11ECCF82C104FF00A018CF81820CCF81C308CF820308CF821208CF8222080
:40820000CCF824E08CF829208CF84430CCF830008CF834308CF835308CF83630CCF83800CCF83C50CCF84030CCF84860CCF84C30CCF85030CCF85430CCF85830DFF838C32C
:408240004FF044088CF804103721CCF814104FF00201CCF808804FF07208CCF80C804FF04708CCF80070CCF810808CF81820CCF81C308CF820308CF821208CF82810B149D3
:4082800004F2DB18CCF82C104FF00B018CF82220CCF824808CF829208CF84430CCF830008CF834308CF835308CF83630CCF83800CCF83C50CCF84030CCF84860CCF84C30BC
:4082C000CCF85030CCF85430CCF85830DFF8ACC204F5EF748CF804101221CCF808100921CCF80C104FF00201CCF800708CF8281078279549CCF810706327CCF814708CF80B
:408300001820CCF81C308CF820308CF821208CF82220CCF824408CF82920CCF82C108B49CCF84860D9248A4ECCF83000CCF83800CCF83C508748884DCC6014240C618A77D6
:40834000CA7732711224D82208600B718B604C618D610B774B770B624B628B62CB62F2600EF11001A1228CF844308CF834308CF835308CF83630CCF84030CCF84C30CCF8F7
:408380005030CCF85430CCF858303060B36032617162724942F64517F16240F23C514FF6FF7431634CF21861376419226C4F726101223276F36186F8202086F8212086F8BE
:4083C000222086F8282086F8292086F8442086F8343086F8353086F83630B463F163B164F36433657765B3655E4EA027B760D927F760A2273761192777615B4F4FF0020B70
:40840000306086F804B03276F36186F8202086F821207762514F86F82220F76240F23C57376342F645173764504F86F8282086F8292086F8442086F8343086F8353086F890
:408440003630B463F163B164F36433657365B3655326BE600D26FE6096263E611B267E610EEB09067E62424E4FF0030C386087F804C03A76FB6187F8202087F8212087F8E9
:40848000222087F8282087F82920FE624EF21C76DFF8EC80BE645B26C8F810604EF21C764FF0E209C8F808904FF0B709C8F80C904FF47849C8F83090DFF8C89087F844205E
:4084C0003C6387F8343087F8353087F83630BC63F9633B64FB643B657B65BB650427C8F8000088F80470C8F814A088F81820C8F81C3088F8203088F8212088F8222088F82E
:40850000233088F82430C8F82840C8F82C1088F83430C8F83860C8F83C30C8F84030C8F84490C8F84830DFF860805B26C8F810601826C8F814604EF21C76C8F8386025E083
:4085400075850200A56A0200FE170200C4A9FF1F00C8FF1FECC3FF1F9614020049150300BF9E0000ECCAFF1F098CFF1F24D8FF1FA8F8020044C3FF1F7CC8FF1F14B0FF1F83
:40858000ACADFF1F119D000004B4FF1F4FF006064FF0800AC8F808A04FF0D20A4FF00509C8F80CA04FF4007AC8F8000088F8049088F81820C8F81C3088F8203088F821208A
:4085C00088F8222088F8233088F82430C8F82840C8F82C10C8F830A088F83430C8F83C30C8F84030C8F84430C8F84830DFF8AC834FF4997A88F804600926C8F808602A26CB
:40860000C8F80C601726C8F81460DC4EC8F80000C8F810A088F81820C8F81C3088F82020C8F82C604EF21C760EF11A0AC8F824A0DFF86CA3C8F848600A26CAF80860CAF890
:408640000C60142688F8212088F8222088F8283088F8292088F84430C8F8304088F8343088F8353088F83630C8F83840C8F83C10C8F84030C8F84C30C8F85030C8F8543029
:40868000C8F85830CAF810604FF007081226CAF800008AF80480CAF814608AF81E208AF81F20CAF818508AF81C308AF81D30CAF82030CAF82430CAF82830CAF82C30DFF83D
:4086C000E4A2CAF800004FF008008AF804002E20CAF80C001420CAF80880CAF81000CAF814608AF81E208AF81F20CAF818508AF81C308AF81D30CAF82030CAF82430CAF891
:408700002830CAF82C30DFF8A0A29D481426CAF810601226CAF800008AF80430CAF80890CAF80C30CAF814608AF81E208AF81F20CAF818508AF81C208AF81D20CAF82030E1
:40874000CAF82430CAF82830CAF82C30DFF85CA2DA26CAF800008AF80420CAF80C601426CAF810601226CAF808B0CAF814608AF81E208AF81F20CAF818508AF81C208AF801
:408780001D20CAF82030CAF82430CAF82830CAF82C30DFF81CA2A226CAF80860DA26CAF80C601426CAF81060CAF818501226754DCAF800008AF804B0CAF814608AF81E20E9
:4087C0008AF81F208AF81C208AF81D20CAF82030CAF82430CAF82830CAF82C301B264FF49B7A286085F804C0AF60EF60C5F810A06E61654E0EF11C0AEE624EF21C762A7645
:40880000EB6185F8202085F8212085F82220C5F824A085F8282085F8292085F844302C6385F8343085F8353085F83630AC63E9632B64AE64EB642B656B65AB65534D792686
:40884000EE6065262E6154266E6142F64516EE614EF21C7628602F71C5F8089085F818C085F8202085F82130AE6340F23C5685F8223085F8233085F82430AC62E9622B630A
:4088800085F8353085F83470EB632B646B64AB643F4D4FF0350AEE614EF21C76AE634FF0060685F804904FF02409C5F80C904FF49D79C5F810904FF048092860C5F808C04A
:4088C000C5F8149085F818C085F8202085F8213085F8223085F8233085F82430AC62E9622B6385F8353085F83470EB632B646B64AB64284D0EF127092E71D926EE60A126CB
:408900002E6119266E611D4EC5F82490EE6240F23C562E6342F64516DFF898902860C5F85090DFF89490C5F808B02A76EB6185F8202085F8212085F8222085F8282085F88A
:40894000292085F8442085F8343085F8353085F83630AC63E9632E64A964EB64C5F85490AB650D4DA126286085F80480AE60D926EE60A0262E6119266E611FE04915030065
:40898000ECBCFF1F80AAFF1FA8F8020014B8FF1F64B8FF1F80B4FF1F94A7FF1F90A8FF1F50B4FF1F64A7FF1F58C9FF1F74CCFF1F14C3FF1F199F0000559F0000C64E0EF146
:4089C0003008EE6240F23C562E6342F645162E644EF21C76AE644FF00806C5F82480DFF824832A76EB6185F8202085F8212085F8222085F8282085F8292085F8442085F856
:408A0000343085F8353085F83630AC63E963EB642B65C5F85480AB65B04D4FF0D7092E715B262E6118266E614EF21C764FF075082860C5F80880C5F80C902A76AE634FF0B6
:408A400009064FF48068C5F83080DFF8BC82AC62C5F84080DFF8B482EB6185F8203085F8212085F8222085F82430E962C5F8448085F8233085F83430EB63AB64984D4FF03D
:408A800068082E7199262E6137266E61954EC5F80880EE624EF21C764FF02F08C5F80C800EF1350828602A76EB6185F8203085F8212085F82220C5F8248085F828B085F8F7
:408AC000292085F844302C6385F83430AE644FF00A0685F8353085F83630AC63E9632B64EB642B656B65AB657F4D4FF0E5082E7117262E617B4EC5F80880EE614FF00B06ED
:408B0000C5F814A04FF030080EF1370A2860C5F80C8085F8253085F82620C5F818A02C6285F82430AB62EB622B636B636F4D4FF4807A2E7137262E6148F21046C5F808A0A4
:408B40004FF0340AC5F80CA04FF0220A2860C5F814A085F818B02E634BF2DB66AE6342F6FF76EE634EF21C760EF1390AC5F824A0DFF89CA1EB6185F8202085F8213085F84B
:408B8000222085F8283085F82920C5F82CA085F8443085F8343085F8353085F836302B64AE64EB642B656B65AB65514D7926EE6065262E6154266E6142F64516EE614EF248
:408BC0001C764FF00C0A85F804A04FF06E0A2860C5F808A085F818C085F8202085F8213085F8223085F82330AE634FF00D0685F82430AC62E9622B6385F8353085F834702C
:408C0000EB632B646B64AB643A4D4FF02C0A2E717926EE6065262E6154266E6142F64516EE614EF21C762860C5F8089085F818C085F8202085F8213085F8223085F823307E
:408C400085F82430AC62E9622B6385F83530AE6385F83470EB632B646B64AB64264D0826AE60A126EE60254E0E27EE624EF21C762F712B274FF05F096F610EF13D072860AB
:408C8000C5F810902A76EB6185F8203085F8212085F822206F6285F8282085F8292085F84430296385F8343085F8353085F83630AC63E9632B64AE64EB642B656B65AB65E7
:408CC0000F4D0F27A22628602F71C5F80880EE602A266E611EE000BF491503001CA6FF1FD0ABFF1FA56A0200B4AEFF1F90CFFF1F28CCFF1FC8A6FF1F88D4FF1F7585020087
:408D0000F8B5FF1F619D0000D59E0000D59D000031CC0200C24E13270EF13F0C29626B63AB622F6185F8253085F82620C5F818C0EE6185F82430EB622B63BA4D26262E61F5
:408D400017266E61B84E4FF0100CEE6248F210462E634BF2DB6685F804C04FF0410CC5F808C04FF0A70CC5F80CC00EF1410C286085F818B0EB6185F8202085F8213085F85D
:408D80002220C5F824C085F8283085F8292085F8443085F8343085F8353085F83630AE6342F6FF76EE634EF21C762B64AE64EB642B656B65AB659D4DA026EE60984E0194E4
:408DC000EE624EF21C76AC634FF012044FF0110C85F804C04FF0710CC5F808C00EF1440C2860C5F81090C5F814A02A76EB6185F8203085F8212085F82220C5F824C085F816
:408E0000282085F8292085F84430296385F8343085F8353085F83630E9632B64AE64EB642B656B65AB65824D0EF1460C2C719924AC60A124EC602A246C61794C29622860CB
:408E40002F6185F8253085F82620C5F818C0EC6185F82430AB62EB622B636B63754D4FF0AA0C2624C5F808C02C614FF0A50C6E4CD846C5F80CC085F818B04FF0170C0EF15A
:408E8000480B28602F71C5F814C0EB6185F8202085F8213085F82220C5F824B085F8283085F82920EC6248F210442C634BF2DB64AC6342F6FF74EC634FF0140485F84430AC
:408EC00085F8343085F8353085F836302B64AE64EB642B656B65AB65574D4FF09D0B2C71D924AC604E4CC5F81090EC624FF6FF740EF14B09C5F8249040F201192860C5F8E9
:408F00000CB0C5F814A02A76EB6185F8203085F8212085F8222085F8282085F8292085F84430296385F8343085F8353085F83630AC63E9632B64AE64EB642B656B65AB6565
:408F40003E4D2A246C61364CC5F808902F614FF0150A0EF14D074FF09E09286085F804A0C5F80C90AF6185F8253085F82620EC61296285F82430AB62EB622B636B63304DCA
:408F8000162726242F712C614FF48977264CAF60A2272860EF60C5F814C085F81880EB61EC6248F210442C634BF2DB64AC6342F6FF74DFF898B085F820200BEB020785F8AE
:408FC000213085F822206F6285F8283085F8292085F8443085F8343085F8353085F83630EC632B64AE64EB642B656B65AB65154D5B242C614FF6FF749727EF60124F4FF0DC
:409000001809286085F804C0C5F80880C5F814902A76EB6185F8203085F8212018E000BF75850200B8AFFF1F49150300F0D0FF1F94B7FF1F18D9FF1F00CDFF1F50D4FF1F0D
:4090400048C0FF1FE4BBFF1FFF9D0000098CFF1F85F8222085F8233085F82430AC62E962296385F83430AE63EB632B646B64AF64BD4D0924AC602A24EC604FF01904642704
:409080002F613C276F61B94F2860AF61B84F85F804903C710B24BC604FF01C04AA77EA772A776A772B626B62AB62EB62DFF8FCC27B254FF0250EFD60572538603D61C7F8B1
:4090C00014E0BA77FA77C7F818C03A777A773B627B62BB62FB62A74F4FF01A0C87F804C04FF0740CC7F808C04FF07A0CC7F80CC0DFF8BCC238603D61C7F814E0BA77FA7799
:40910000C7F818C03A777A773B627B62BB62FB62994F4FF01B0C87F804C0C7F814E04FF0DF0CDFF890E2C7F808C04FF07C0C3860C7F80CC03D61BA77FA77C7F818E03A7732
:409140007A773B627B62BB62FB628C4F4FF04C0E3C71E024BC60B924FC605B243C614FF6FF74BC624FF478443C63854C38607C644FF01D04C7F814903A76FB6187F8203019
:4091800087F8212087F8222087F8233087F82430F96287F83430BE63FB633B64BB64794F4FF0140C3C710424BC605B243C614FF6FF743860C7F80CE0C7F814903A76FB6170
:4091C000BC624FF01E04DFF8F0E187F8203087F8212087F8222087F8233087F82430F9623963BE6387F83430FB633B647B64C7F848E0654F4FF4957E3C710924FC604FF412
:409200008064FC614FF6FF74C7F808E04FF00F0E3860C7F810E0C7F814A03A7687F8203087F8212087F8223087F8233087F82430BC62F9623B6387F83530BE6387F8348074
:40924000FB633B647B64BB64504F4FF0120E38601F20387140F22D103A7687F8212087F8222087F834204A4A87F8203087F8233087F8243087F83530FB633B647B64BB641B
:40928000202313714FF4977393600823F962D3604FF4806140F2351339634FF00201B8600B20F86009203861112078614FF48060F861384813610823BC62BE63106053610D
:4092C00011764FF480610023D1613349537621220A7189228A60314C2F22CA6001220860C1F810C0C1F814E08A77CA778C610A774A770B624B628B62CB622949DFF8BCA0D3
:40930000086022200871D92088609D20C860C1F810C0C1F814E08A77CA778C610A774A770B624B628B62CB621E49D920C1F800A00B71C1F80880C860C1F810C0C1F814E095
:409340008A77CA778C610B774B770B624B628B62CB6215496E2088604020C860682008614E2048612CE000BFFCD6FF1F77000200F8ADFF1FBCBCFF1FBCCAFF1FB0ACFF1F37
:40938000119D0000DCAAFF1F94D1FF1F60B1FF1F40B5FF1FECBCFF1F30BCFF1F9614020060D5FF1F94A9FF1FF4A9FF1F5BFA0100F4F30100C8EC0100079E0000ECAEFF1F61
:4093C000BD48C1F800A088614FF002000A718A77CA770A774A770B624B628B62CB62B7494CF2186408719620C1F800A088604D20C8600B2008614FF0030008754FF6FF70EC
:409400004FF0030788610A774A778B77CB7781F8203048628C62CC6281F830304E638B63CB630B644B64A6494FF090080F7111270F614FF003070F754FF00407C1F80880DB
:409440004FF04708C1F800A0C1F80C8088610A774A778B77CB7781F8203048628C62CC6281F830304E638B63CB630B644B6495494FF09C080F7105270F614FF003070F7554
:409480004FF00507C1F808804FF05308C1F800A0C1F80C8088610A774A778B77CB7781F8203048628C62CC6281F830304E638B63CB630B644B6484490BF1020BCD604FF0E4
:4094C00006050F71A027C1F800A08F600A617F4F0A75486288610A774A778A77CB7781F820308C62C86281F830304E638B63CB630B644B647649CF614FF007070D71552529
:409500008D609B25CD6094250D6115254D61714DC1F800A005F5087881F8252081F82620C1F81880086281F824308B62CB620B634B6369494FF0E308C1F800A00F71B927E1
:40954000CF605B270F614FF478470F63634FC1F808804F644FF00807C1F814900A76CB6181F8203081F8212081F8222081F8243081F823308862CC6281F834308E63CB636E
:409580000B648B64564905F231280F7102278F60D827CF60A1270F6119274F614B4FC1F800A00A76CB6181F8202081F8212081F82220C1F8248081F82820CF6240F23C578F
:4095C00042F645180F63474F81F829204F654FF0090781F8442081F8343081F8353081F836308863CC63C1F840808C64CB640B658B653D490F71A0278F60D827CF60A027CF
:409600000F6119274F61314FC1F800A0CF6240F23C570F63354F0A76CB6181F8202081F8213081F82220C1F824B081F8282081F8292081F8442081F834304F654FF00A074D
:409640008863CC63C1F840808E6481F8353081F83630CB640B658B6525494FF0B30B0F7175278F60D727CF605B270F614FF480670F634FF00B07C1F800A0C1F814900A7661
:40968000CB6181F8203081F8212081F8222081F8233081F824308862CC6281F834308E63CB630B644B648B641249C1F800A00F7106278F6020E000BF010902002CD7FF1F4A
:4096C000CCB7FF1F24D6FF1FA8CBFF1F49150300C8C7FF1F6381FF1F14CFFF1F119D000048ADFF1F1D9F0000A4D7FF1F519D000018D2FF1F6CD6FF1FBC4F0B628B62C1F885
:409700000CB0C1F810C0C1F814E08A77CA778F610B774B774B62CB62B54906278F604FF49B770F611E274F61B24FC1F800A0CF624FF6E0774FF00C0AC1F80CB005F2422BBE
:4097400081F804A00A76CB6181F8203081F8213081F82220C1F824B081F8282081F8292081F844300F6381F8343081F8353081F836308863CC630B648E64CB640B654B65FF
:409780008B659D490527DFF8A0B28F60974FC1F800B00B71C1F80CA0C1F810C0C1F814E08A77CA778F610B774B770B624B628B62CB62924905278F608C4F4FF02E0AC1F87E
:4097C00000B00A71C1F80CA0C1F810C0C1F814E08A77CA778F614FF002070B774B770B624B628B62CB6286494FF0D80A0F7102278F60D927CF607D4FC1F800B08F614FF096
:409800000307C1F810C0C1F814E08A77CA770B774B770B624B628B62CB627A490F71A1278F60D927CF60714FC1F800B08F614FF00407C1F810C0C1F814E08A77CA770B77A8
:409840004B770B628B624B62CB626F494FF6FF7C0F71D827CF60A1270F6119274F6105F26B274F62634FC1F800B0CF6240F23C570F63664F8A600F65654F0A764F654FF0AD
:409880000507CB6181F8202081F8212081F8222081F8282081F8292081F8442081F8343081F8353081F836308863CC63C1F840808C64CB648B6557494CF2186EC1F800B0D9
:4098C0000F71A0278F60D827CF60A0270F6119274F6105F279274F62464F0A76CF6240F23C570F634C4FCB614F654FF0060781F8202081F8212081F8222081F8282081F8E9
:40990000292081F8442081F8343081F8353081F836308863CC63C1F840808E64CB640B658B653E490F7105278F601127CF604FF49B770F611D274F6105F27E27C1F800B00C
:409940000A764F62364FCB61CF624FF0070781F8202081F8213081F8223081F8282081F8292081F84430086381F8343081F8353081F836308863CC630C648E64CB640B65A9
:409980004B658B6527490F7105278F602C27CF604FF49B770F6117274F6105F28F27C1F800B00A76CB6181F8202081F8213081F822304F620F4F81F82820CF624FF6E0771A
:4099C0000F634FF0080781F8292081F8443081F8343081F8353081F836308863CC630C648E64CB640B654B658B651FE096140200A4CCFF1F49150300C4D3FF1F78CBFF1FF3
:409A000034C4FF1F9CB6FF1FACB1FF1FFD9D0000599F000058C2FF1F519D00006CA6FF1FA8F8020094CDFF1F88ABFF1FA8490F7108278F604D27CF6040F239170F614D2733
:409A40004F614FF003070F764FF00907C1F800B04A76C1F81C809F4940F23C580F713D278F60A927CF6009270F611C274F614FF00A07C1F800B00A76CB6181F8202081F8F1
:409A8000212081F8222081F8233081F824308862CC62086381F834308E63CB630B644B648B648D490F71E0278F60B927CF605B270F614FF478470F63884FC1F800B0C1F8CB
:409AC00014900A76CB6181F8203081F8212081F8222081F8233081F824308862CC6281F834308E63CB634F644FF00B070B648B647B490F7175278F60D727CF6088625B2761
:409B00004FF48060C1F800B00F61C1F814900A76CB6181F8203081F8212081F8222081F8233081F82430CC62086381F834308E63CB630B644B648B646A4931248C600B2484
:409B4000CC60D72468480C612A244C6105F5287408600B7181F8252081F826208C61634C81F82430CC614FF450440C628B62CB620B634B635E4907240A718C6081F82520A7
:409B800081F8262050245B4ACC6040F23314CA614FF002020B6281F824308B62CB620B634B63554B05F2AF250C61152408604C618D611A717C21652218609A604D48D96047
:409BC0001A61012105F12A025C6183F8251083F826109A6100221A625A639A62D86183F82420DA621A63454B05F138065E6242F645174EF21C76DFF8F0B003241C714FF031
:409C00001909A024C3F800B09C60C3F80CA01C61C3F814901976DA6183F8201083F8211083F8221083F8281083F82910D86283F84410C3F8308083F8342083F8352083F8D1
:409C40003620C3F838C0C3F83CE01F649E64DA641A655A659A652A4B3C35C3F800B04FF0040B9A60DA61D86283F8342083F8352083F83620DA641A655A659A6583F804B0DC
:409C8000C3F80CA01C61C3F81490197683F8201083F8211083F822105D6283F8281083F8291083F84410C3F83080C3F838C0C3F83CE01F649E64134B4FF4A0721A601248D8
:409CC000124BF0221A6003B0BDE8F04FFBF784BA5CC8FF1F6CAFFF1F14D5FF1F119D000064D2FF1F5CCDFF1F6CC5FF1F7585020028B1FF1F4915030060B5FF1FCCB0FF1F79
:409D000000C6FF1FC4B9FF1F10C9FF1F88B9FF1F10B50E4C2378032B17D0012002F028F8A37803F0080303F0FF042BB1BDE810400021692001F0C4BF0520F8F7DFFF2046F6
:409D4000BDE81040012104F009BB10BDB484FF1F08B5012002F00CF8BDE8084004F0DABA08B5012002F004F8BDE80840FAF77EBF10B50E4C2378032B16D0012001F0F8FFEA
:409D8000A37803F0080303F0FF042BB1BDE810400021682001F094BF04F07AFB2146BDE81040082004F0DABA10BD00BFB484FF1F38B5074B012093F9015018701C4625B97A
:409DC00001F0D6FF2846FAF7E5FE0023637038BD449FFF1F70B5084B012593F901601D701C4636B9284601F0C3FF3146284604F0B5FA0023637070BD449FFF1F70474FF043
:409E0000FF30F9F781BA0120F9F77EBA08B5012001F0AEFFBDE808400120FAF72DBD08B5012001F0A5FFBDE808400120FAF7B2BE08B5012001F09CFFBDE808400120F9F7D0
:409E400063BA08B5012001F093FFBDE808404FF0FF30F9F759BA000010B5012001F088FF0F4B5B8A9BB2B3F5FA6F13D90D4C63681BB9BDE8104004F04DBA3B2B4FF0000191
:409E80000CBF012300230846A37000F0BFFB0023636010BD01210846BDE81040FAF780BCC29EFF1FE480FF1F08B5012001F060FFBDE8084001214FF0FF30FAF771BC08B5BA
:409EC000012001F055FFBDE8084004F01BBB0020F9F71ABAFFF7FBBF70B50D4B032293F901501A701C467DB90A4E012001F040FF96F90200012803D1FAF7BEFCB57003E026
:409F00002946082004F02AFA0023637070BD00BF449FFF1FE480FF1F7047000008B5012001F026FF094B9B781B0705D5BDE808400021662001F0C4BE04F0BEFA044B0121DB
:409F40001878BDE8084004F009BA00BFB484FF1FF88BFF1FFFF7E2BFFFF7E0BF7047000010B5FFF7FBFF154B9B789B0711D5144B93F900201C460AB9032000E0022007F018
:409F8000A7F823780E4A01335BB2092BC8BF002313700C4B1B7813F00F0302D102F0C4FA08E0012B02D102F0D7FA03E0022B01D102F094FDBDE81040FFF7D0BFB484FF1F0C
:409FC0000C8CFF1F3085FF1F08B5FFF7C7FF04F0DBFF030704D5FFF7C1FF02F007FBF6E7BDE80840FFF7BABF014B588880B270470C8CFF1F014B5868704700BF0C8CFF1FC8
:40A00000024B5B88181A80B2704700BF0C8CFF1F014B5B68181A70470C8CFF1F08B562B6054805F0A7FC054805F036F8BDE80840034805F0B3BC00BF21A10000C99F000003
:40A04000619F000070B5094C094E0A4D12B97356984006E055F82130725643FA02F29B1A1844A060A36845F8213070BD0C8CFF1F5284FF1FDC9EFF1F70B5274D287B2C4608
:40A0800040B210B101280AD070BD012005F05AFE002840D005F06AFE01232B7370BD05F051FE002837D005F061FE697B1B4D49B22A7A064652B2FFF7C5FF637B052B05D12B
:40A0C0002A7A062152B23046FFF7BCFF637B022B05D12A7A072152B23046FFF7B3FF637B01335BB26373637B5BB2052B0EDD0A4B01225A736B89094A1BB2002BC1BF5389C0
:40A1000003F1FF331BB2538101232B72607B05F0ABFE0023237370BD0C8CFF1F5284FF1F10B5104C05F052F8FFF718FF636801336360638801339BB2638002F03FFB02F0F2
:40A1400005F8F8F71FFDFFF797FF01F01DFEA37B042B8CBF00230133A373BDE81040FFF7FDBE00BF0C8CFF1F0728DFBF054B064A53F820301056DABF43FA00F000B2002019
:40A18000704700BFDC9EFF1F5284FF1F10B508F087FA0446064A0120002350731373054A137205F061FE2046BDE8104008F07CBA0C8CFF1F5284FF1FF8B50F460F4D014638
:40A1C00004461646286800220FF068FFB7F5007F06D83A460A49286810F0F5F830600AE0C4F308044FF4007205492868C4F5007410F0E9F834600248F8BD00BF08DAFF1F18
:40A200000CDAFF1F30B585B004F066FF0A4D044618B100242C706C700AE00FF041FF2046092201A910F0DAF8013018BF01242C70204605B030BD00BF058CFF1F08B5084B1C
:40A240001B780BB9002008BD064910F04BF8064A10600028F6D00FF07FFF012008BD00BF058CFF1F964F030008DAFF1F08B5F9F78DFA034B1868BDE808400FF06DBF00BFD0
:40A2800008DAFF1F38B5054613F0D0FE44B2E01E05220649284413F0E3FE20B92C442E2304F8043C38BD012038BD00BFC62D03002DE9F843124C0746238813B90020BDE80D
:40A2C000F883FFF7DFFF0028F8D126880446DFF834904FF02408A3B29E42EFD908FB04911E22384613F0BCFE254601340028F2D1044B242202FB0535286ABDE8F88300BF48
:40A300001C8CFF1F0CDCFF1F2DE9F04F394F0026BA46394DDFF8E4B091B03E804FF082084FF00709B1440022494628680FF0B6FE012203A9286810F046F80128044601D07C
:40A34000002054E09DF80C600EB938884FE00246092128680FF0A2FE224603A9286810F032F80128ECD19DF80C40231F2C2BE7D8224603A9286810F026F88442E0D110AB50
:40A380001C4403A8002304F8343CFFF77BFF044638BB3888242303FB00B01E2203A9019313F073FE224609F1020128680FF076FE042203A9286810F006F80428C0D1BAF876
:40A3C0000020019B039903FB02B341F00041812A196203D80132AAF8002002E0054B1C80AEE708F1FF3818F0FF089BD1A8E711B0BDE8F08F1C8CFF1F08DAFF1F0CDCFF1F9C
:40A4000070B50D4D06462B788BB10C4C20680FF0A3FE0B4930460FF065FF206008B9687005E0FFF771FF20B920680FF095FE012070BD002070BD00BF058CFF1F08DAFF1F65
:40A44000964F030070B514465518861AAC4206D0A01980B204F0DCFC04F8010BF6E770BD2DE9F04104460144571E5E1E8DB24FF00008AC4215D016F8013F17F8012F9A4252
:40A480000CD03B70B8F1000F03D104F0D5FC4FF001082146307804F06BFC28B90134A4B2E7E70120BDE8F0810020BDE8F081000070B50E4D0E4C2B7823B1FFF795FD00236F
:40A4C00020802B702088FFF79BFDB0F57A7F0BD9FFF78AFDBDE87040054B064A18807021054B0020FFF7BCBF70BD00BF5E84FF1F1E8CFF1F54EEFF1FF080FF1F45F227529B
:40A50000034B1A80034A1A6600225A669A667047F080FF1F00009F4208B5FFF7EFFF00F007F9064B064A70210020FFF799FFBDE808404FF4FA7007F0C1BA00BFF080FF1F94
:40A5400054EEFF1F10B50D4C04F00DFC0A2007F0CBFA224670210020FFF774FF45F2275322889A4203D0BDE81040FFF7D5BF70222146034813F052FC10BD00BF54EEFF1FEE
:40A58000F080FF1F08B5082004F0C8FEBDE80840082004F0B7BE0000064B0846C3F8CC10D3F8C0301A689142C8BF1960024BD963704700BFC4EEFF1FF080FF1F3B2910B524
:40A5C0000C4603D1FFF7A8FF07F070FA014B20461C6010BD208CFF1F10B50C46102049B2F8F77CFB014B2046DC6410BDF080FF1F044B05481A68824202D81A6802B9186804
:40A60000704700BFE08CFF1F9F860100022810B50C461ED00320F8F7ADFA0F4B30B1002C08BF01245C600D4B5C6002E05A6812B1586022460EE01CB1197A81F00101197216
:40A64000197A074B11B10749496800E00649596000E00022104610BD208CFF1FE480FF1F449FFF1F5CF6FF1F2485FF1F034BC01A034B8010584340B2704700BFC4EEFF1FC8
:40A68000A38B2EBA037803F07F020270D809704773B502AB03F8010D1846FFF7F3FF204B1A78204B02F00F02022A05D11E48406A10B1C3F8AC2104E001220229C3F8AC21E7
:40A6C00006D0012908D0022902D10520042205E004200246002101E0032002469DF807506C1E012C0BD8104CE669B14201D1012D05D10E4DE1612C7944F002042C7183F8ED
:40A700005D01084683F8D92083F8312183F8392283F8412383F8E92283F8152302B070BD3085FF1FC4EEFF1FF080FF1FF88BFF1F2DE9F04F00242046DFF8E0E3E8490EF1E4
:40A7400009070EF10C09A1F1040C4FF02C0808FB04C541F8047C0F604F608860C1F80C904F618861C861086281F8240081F8250081F8260095F82B60002206F0FC06013453
:40A7800062F3C306232CD74B85F82B60CEF80C0001F12C01DFF884A3D9D1D348D349C3F8D00093F8DB00C3F8BC1040F00100D04900F0FD0062F3C30083F8DB00084640F295
:40A7C0006719072783F8557093F85770C94C07F0FC079C6362F3C30701F10C04DFF840C3DC6383F857703024C34F9C644FF4166440F804C9022503264FF0040E4FF4FA7B0E
:40A800004FF49668DC645F66012401F11007C0F81080C3F8C010C3F8CCB0C3F8D4C083F8D85083F8D9E083F8DA60C3F8508083F854409D67DD67C3F8C8205A6483F856208B
:40A840009F665A6783F8802083F8812083F8822093F88370C3F8A49007F0FC0762F3C30783F88370C3F8FC90A44F41F28839C3F8907001EB0E07C3F8947093F8AF704FF038
:40A88000060807F0FC0747F0080783F8AF709C4F4561C3F8E87001F10807C3F8EC7093F80771826007F0FC0747F0080783F80771944F83F8AC80C3F81471934F83F8AD8088
:40A8C00083F8048183F80581C260C3F81871C3F89C20C3F8A020C3F8A82083F8AE20C3F8F420C3F8F820C3F8002183F80621C3F82021C3F82421C3F82821C3F82CC193F8E0
:40A900003381C7F800C0C3F8447108F0FC08764F62F3C30883F83381C3F85071DFF804827A4FC3F84081C3F86C7193F85F8101F11407C3F8707193F88B7148EA040808F0DD
:40A94000FD0807F0FC0762F3C30862F3C30783F85F8183F88B71DFF8B0816D4F48F80CCBC3F858C1C3F898714FF00B0C01F11807C0F818C083F8305183F831E183F85C51AC
:40A9800083F85DE183F85E61C3F880C1C3F884C1C3F89C7183F83221C3F84C21C3F85491C3F87821C3F87C2183F8882183F8892183F88A21C3F8A82193F8B771C26107F0DE
:40A9C000FC0747F0080783F8B771524FC0F83C90C3F8247301F13807C3F8287393F84373C3F8AC51274307F0FD0762F3C30783F8437301F13007C3F820721027C3F82C72B9
:40AA0000394FC3F834B3C3F8307293F83B7283F84053374362F3C30783F83B7201F11C0783F841E383F8425383F8385283F839E283F83A624263C3F8B02183F8B42183F816
:40AA4000B52183F8B621C3F83023C3F83893C3F83C93C3F81C22C3F82822C3F83422C3F86025C3F8647593F87F7593F8E3C1374362F3C30783F87F75274F4CEA060CC3F87E
:40AA8000C47101F12007C3F8C8714FF0050762F3C30C83F8E3C101F1240CC3F890C593F8ABC5DFF884B04CEA060C62F3C30C83F8ABC501F1280C0262C3F8745583F87E45EB
:40AAC000C3F8D44183F8E07183F8E17183F8E2614262C3F8A06583F8AA45C3F8702525E0C8EEFF1FC4EEFF1F5A6E190049C30000F480FF1F95C1000039C4000079C300005A
:40AB0000B1C30000A9C600003485FF1F35C2000091A6000099A500004DC90000208CFF1FA08601007DC800009F860100C3F8782583F87C2583F87D25C3F8D021C3F8D8B1FC
:40AB4000C3F8DC21C3F88C25C3F89C25C3F8A42583F8A82583F8A9258262C3F8BCC593F8D7C5C2624CEA060C62F3C30C83F8D7C5DFF8C4C4C3F8C845C3F8F0C101F12C0C75
:40AB8000C3F8F4C193F80FC283F8D4754CEA060C62F3C30C83F80FC2DFF8A0C483F8D575C3F874C201F14C0CC3F878C24FF00A0C83F8D665C3F8004283F80C7283F80D7222
:40ABC00083F80E620263C3F888C2C3F88C62C3F8B825C3F8C425C3F8CCB5C3F8D025C3F8FC21C3F804B2C3F80822C3F88022C3F8842283F8902283F8912283F8922293F82E
:40AC000093C206650CF0FE0C4CEA050C62F3C30C83F893C2DFF828C483F8EA62C3F8CCC201F1500CC3F8D0C2DFF818C483F81663C3F8E0C293F8EBC2F24F4CEA060C62F38B
:40AC4000C30C83F8EBC2DFF800C493F81763C3F8F8C201F1540CC3F8FCC242F2317C46F0030662F3C30683F8176301F13406426583F8E85283F8E9E283F8145383F815E3A7
:40AC80008265C3F84C62C3F85C42C3F86042C3F8D822C3F8DC92C3F8E422C3F80423C3F808C3C3F80C73C3F81023C3F84822C3F8582283F8642293F86762846306F0FC06D1
:40ACC00062F3C30683F8676201F13C06C3F8A4623C26C3F8B462082683F8BC6283F8BD6293F8BF62026406F0FE062E4362F3C30683F8BF6201F14006C3F8546393F86F632B
:40AD0000456406F0FC06C3F86453C3F8685362F3C30601F1440583F86F63C3F88053C3F8904383F8652283F86622C3F8A022C3F8AC22C3F8B022C3F8B82283F8BE22C3F885
:40AD40005023C3F8602383F86C2383F86D2383F86E23C3F87C23C3F88C23C3F8942393F89B53826405F0FC0562F3C30583F89B5301F15805C3F8E85593F80356C3F8F845CD
:40AD800005F0FC0562F3C30583F803569E4DC465C3F8A85301F14805C3F8AC5393F8C753C3F8FC4505F0FC0562F3C30583F8C753964DC3F8BC43C3F8D45301F16805C3F807
:40ADC000D853934DC26495F9005083F89823013D83F8992383F89A23C3F8E425C3F8F42583F8002683F8012683F80226C3F8B823C3F8C02383F8C42383F8C52383F8C62386
:40AE0000C3F8E423C3F8E853C266824893F8F353C3F800040AEB0E00C3F8040405F0FC0593F81F0462F3C30583F8F35300F0FC00794D62F3C30083F81F0405F10800C3F86F
:40AE400000057648764EC3F8080593F827054FF0640E00F0FE0040F0020062F3C300C3F814E483F81E44C3F8FC54C3F81CE583F82645C3F8EC2383F8F02383F8F12383F844
:40AE8000F223C3F80C24C3F81024C3F8182483F81C2483F81D24CAF80420C3F80465C3F80CA5C3F81425C3F81825C3F8202583F8242583F8252583F82705504683F85245FB
:40AEC00093F8534505F1240E04F0FC0462F3C30483F85345534C2D35C3F8304493F84B44C3F82C5504F0FC044F4D62F3C304C3F8345583F84B444D4D4D4C40F8092BC3F80A
:40AF000028E5C3F83065C3F83855C3F84025C3F84425C3F84825C3F84C2583F8502583F851252A60C3F82004C3F82404C3F82804C3F82C24C3F83804C3F83C24C3F8402484
:40AF400083F8482483F8492483F84A24C3F84C04C3F85004C3F85404C3F8584493F87744C3F85C8404F0FC0462F3C30483F8774401F16004C3F8884493F8A3445C3104F09E
:40AF8000FC0462F3C30483F8A3442A4CC3F86404C3F8B4444FF00504C3F8682483F8CC4483F8CD44C3F86C2483F8742483F8752483F87624C3F87804C3F87C04C3F88004E9
:40AFC000C3F88424C3F89004C3F89424C3F8982483F8A02483F8A12483F8A224C3F8A404C3F8A804C3F8AC04C3F8B024C3F8BC04C3F8C024C3F8C42483F8CE2493F8CF4469
:40B0000024E000BF5A6E1900D9A500006D3C0000E080FF1F0DA60000CA2D0300BDA50000202E03003085FF1FF1A50000E08CFF1FFDC100009085FF1FD9CC0000ADC8000069
:40B04000C9C8000003B70C00F5C80000C3F8E01493F8FB1404F0FC0401F0FC0162F3C30462F3C30183F8CF4483F8FA2483F8FB14C3F8D004C3F8D404C3F8D804C3F8DC2437
:40B08000C3F8E804C3F8EC24C3F8F02483F8F82483F8F924BDE8F08F10B5074C0020E169FFF7F6FAE16B0020FFF776FA216B0020BDE8104001F010BEF080FF1F30B52D4D75
:40B0C0002C7A04F0400404F0FF031CB100230B70012303E0B0F5487F02DC0623137030BD40F61874A04220DCB0F55F6F02DD0B70012332E040F6A444A04224DC40F6D42456
:40B10000A04201DD01200AE040F66814A04201DD012318E040F65C04A04202DD022008701BE0B0F5F06F02DD02230B7015E040F23463984203DD03230B7000230DE0B0F579
:40B14000B76F03DD03230B70022306E0B0F5A36F4FF00003C4BF0B70052313706B7ADB0706D50123044A0B70937843F04003937030BD00BF5CF6FF1FB484FF1F08B50A46E9
:40B180000123022100F0DEF9BDE80840642006F095BC0000002108B50846FFF7EFFF044B187918B1034B04221A70012008BD00BFB484FF1F308CFF1FF8B56B4C002004F0C5
:40B1C000BFF8A378694D03F082036FF3C713A370E37803F0FE0343F00203E370644B1B7A13F0080F09D0634B01221A7000236B70A37843F00203A37028E004F0B9F8A8706B
:40B20000B0FA80F0A378400960F34103A37003F0020303F0FF0003B1012004F09DF8FEF7E3FE0746544E33881BB2002B05DD3846FEF7E6FEB0F57A7FF5D90120FEF794FFD8
:40B240004E4B4F4A4B491880FFF738FF494B6D781978022D59704B4B5A7861F303025A702FD0052D13D0012D44D1022323706370A378284603F0FB0343F09803A370E3781E
:40B280006FF34103E37004F067F8294615E003232370A378344A03F02B0343F0D003A370E3786FF34103E3700023637123790BB10A2300E0FF23537000210420F7F70EFD7F
:40B2C0003EE0A378012143F04403A370E378042043F00303E370217061706171F7F7FEFCA37843F020039A07A3702CD4FFF752FF30BBF8BD0126314604206671F7F7EEFCC2
:40B30000304604F029F8A378174D13F0020FE2780BD0002103F0FB0361F3041342F0030229706970AB70EA700AE042F0030243F00403EA702E706E70AB70FFF72BFF88B17A
:40B34000A3789B0701D5032000E0012005F0C0FE0023A371FEF748FE0B4B1880BDE8F840F9F74ABBF8BD00BFB484FF1F308CFF1F5CF6FF1F5085FF1F5C84FF1FC8F4FF1F52
:40B38000318CFF1F3085FF1FCAF4FF1F37B50120FEF7EAFE0DF106020DF10701FFF78EFE03F0E6FF154A164D9378164C83420CD19DF8063052789A4201D0062B05D1124B3C
:40B3C0001A789DF807309A4208D02888FEF718FEB0F57A7F05D90523A37102E0FEF704FE288094F90630052B02D106F05FFB01E0002B01DDFFF7E0FE03B030BD308CFF1FF9
:40B40000CAF4FF1FB484FF1F5085FF1F08B5044B01221A70FEF7E8FD024B188008BD00BFBC84FF1F12F5FF1F10B4064A064C137803F00701013313706054062010BC00F02F
:40B44000C3BD00BF388CFF1F14F5FF1F08B518B1BDE80840FFF7DABF034B1870FEF7C4FD024B588008BD00BFBC84FF1F388CFF1F0C4B0D4A99780D4B11F0200F02D003F100
:40B48000080103E0090704D503F1240159601C2303E003F1400159600C2313701278044B1A717047B484FF1F0EF5FF1FBC84FF1F388CFF1F10B5FEF797FD064C6080FEF7DC
:40B4C00093FDE080FEF790FD2081BDE8104003F0C1BF00BF388CFF1F024A13880344138004F04EB810F5FF1F10B5441E14F8010F10B1FFF7F1FFF9E710BD000010B5064CA4
:40B500000346064A2046142112F05EFD2046BDE81040FFF7E9BF00BF59F5FF1F102E030010B5064C0346064A2046142112F04CFD2046BDE81040FFF7D7BF00BF59F5FF1F6D
:40B54000142E03002DE9F04180460E460220244F14461D4604F014F8002340463B80FFF7CDFF3046FFF7CAFFB31E092B27D8DFE803F005052626090C090C13132046FFF7B8
:40B58000BDFF1CE0FFF742FF19E02046FFF7B6FF2846FFF7C5FF12E00A2E03D12046FFF7ADFF02E02846FFF7BBFF0E4B2C2202FB043423691D682846FFF7B2FF65613B88D9
:40B5C000094A1421094812F0FFFC084804F00AF8032003F0D5FF064B01229A72BDE8F08110F5FF1FC4EEFF1F192E030059F5FF1F388CFF1F2DE9F041304B93F904201C4650
:40B60000002A03DD013AD2B21A714DE093F90B30042B0ADD00262089E672FEF7F1FCB0F5FA7F264D31D8BDE8F08100210846244BDFF894E093F90050224B4FF02C0C5F6843
:40B6400094F90C304AB295421BDD01335BB2AB42A8BF0023FA5C01310CFB02E630697669D0F8008001204645ECD023730023184652B20A21FFF766FFE37A0133E372BDE8B3
:40B68000F0810028C6D02373C4E76B7B0C4A013392F900205BB29A426B73D8BF6E73FEF7A3FC94F90D202081064BBDE8F041596800238A5618460A21FFF744BF388CFF1F82
:40B6C0000EF5FF1FBC84FF1FC4EEFF1F2DE9F14F002630461E4B1F4993F900E01E4BDFF87C90D3F804C091F90E304FF02C0A72B2964521DD01335BB29E45D8BF00231CF8C5
:40B70000032001360AFB0294256904F11008D5F800B004F11407646901205C45E7D08B7352B22B680921FFF70DFFD8F800301B683B6001B0BDE8F08F00B18B7300231A46C0
:40B740000921012001B0BDE8F04FFFF7FBBE00BF0EF5FF1F388CFF1FBC84FF1FC4EEFF1FF8B5234DAB78590740D503F04BFF074600283BD11F4C237826465BB11E4B188850
:40B78000FEF73EFCB0F5FA7F30D90A20FFF74CFE27702BE094F94C207AB1184C2C2101FB02410C6949692468A14202D00A21FFF7C9FE002386F84C3018E0114C6088FEF774
:40B7C0001FFC0A2812D994F90F30AA78DB439206E37306D52BB91A4606210220FFF7B2FE01E0FFF707FFFEF7FFFB60800120F8BDB484FF1FBC84FF1F12F5FF1FC4EEFF1FDE
:40B80000388CFF1F0146574A0A29108A38B5084480B21082134656D004D8022909D0032912D07AE0222968D02C2949D00D2974D149E04D4B00200121907483F860101076C9
:40B8400050765061108238BD927E002A34D193F91210988B03EB8102D269424D90421CBF01225A7693F91900002410B920353F4C04E0FFF7D9FD6C76204638BD42B29142B9
:40B8800005DD55F8202044F820200130F6E793F95C20002A07DC0022012083F85D109A741A76987638BD3248324D0022545D14540132402AFAD1EEE70720FFF7B5FD3CE052
:40B8C000908300221A7628485A6990F96010254C5143012280F8602093F9122059610D2A03EB82031962D4BF013202234FF00000D6BFA2746376606138BD137E002033B1A1
:40B9000092F95C301076134483F85E0038BD0121117682F85C30184638BD187E114A70B192F95C003F2806DC431C82F85C30024482F85E1001E003225A76002038BDA1F1F1
:40B940003004E5B2092D06D851694B0003EBC1031C44546138BD2D29EDD1034BFF2283F8602038BD388CFF1FBC84FF1F1CF5FF1FCDF4FF1F968CFF1F10B5002403F0A0FDAD
:40B9800020B1FFF73FFF01280446F7D1204610BD632870B504460E463FDD2F4B9B785B073BD5A0F16504072C52D8DFE804F00409511522512E33294B1A78294B1A7147E026
:40B9C00002F07AFD002318460A211822FFF7BAFD244B0121187809E002F05AFD00230A2118461822FFF7AEFD0021082002F0B6FC2EE00520F7F782F900230A211846182202
:40BA0000FFF7A0FD01210020F0E71749304601F0BBF81DE0154B19661AE0E3B2222B19D8134D2C2303FB04552B6929461868F8F7A5FB311811F10A0F04DB02232A463046D1
:40BA4000F7F704FD002322460A211846FFF77AFD002070BD012070BDB484FF1F0EF5FF1F388CFF1FF88BFF1F17B7D138F080FF1FC4EEFF1F2228F8B505460C4667DC354B35
:40BA80002C2202FB003212691E461268914226D01828314F49D1314B5A6E914245D05966BA782F4B1960D10607D51A782D4902F00F02022A18BF01224A70187800F00F00D0
:40BAC000F7F71CF9BB7803F0400202F0FF0042B1254B0020D969FEF7DBFD02F095FC0020F8BD1A0721D5204BD969FEF7D1FD1C4B1B7803F00F03052B17D8DFE803F00C0C89
:40BB00000C090603012100200DE0012102200AE00121072007E0154B187800F0FB0101291CBF0121082002F019FC2C2303FB0563DA681AB121460220904701E01B691C6025
:40BB4000BB785B07CBD5054B83F84C50C7E70120F8BD00BFC4EEFF1FB484FF1FBC84FF1F3085FF1F5085FF1FF080FF1FF88BFF1F37B503F0DFFC002800F09380FFF7FCFE98
:40BB8000002800F08E80484C484A236848495BB213706268474D52B20A701BB195F9011099427BD1297800297BD0023A092A75D8DFE802F0050A747429515D671E1EA0681C
:40BBC000C0B203F0BDFB69E00020FEF7CDFA0DF107020DF10601FFF771FA9DF80730062B5CD1A3686B70AB7843F00103AB7055E0A068E16840B2FFF73DFF01283DD105200B
:40BC0000FFF712FC4AE0002B48D02B4C052005F055FF94F95920642A0ADDE36D07210120FFF790FC642384F859300023E36524E0636D53B194F9582007210120FFF782FC87
:40BC40000023636584F8583017E01A4607210120FFF778FC11E0A468002064B2FFF7F6FBE4B1114B2046D968FFF792FE14E0ABB1052005F023FFFFF729FD0020FFF7E6FBF4
:40BC80000CE0A468002064B2FFF7E0FB34B1064B2046D968FFF7EEFE0128B0D0074B00229A76002003B030BD1CF5FF1F58F5FF1FCCF4FF1FB484FF1FBC84FF1F388CFF1FCB
:40BCC0000A4B9A7802F0080202F0FF034AB1084B93F95920642A06D183F85900D96501207047184670470020704700BFB484FF1FBC84FF1F704700002DE9F0410024804604
:40BD000025460F4F0026A0B211F0ECFD314611F0FDFF30B130460B4911F034FDED430646EDB20DB93D5501E007F804800134C82CE9D12146024803F02BFD2046BDE8F08185
:40BD400070F5FF1FBDE92D4110B5084B00241C7003F07EFD03F00EFD2046FFF7CDFF03F077FDBDE8104003F0D1BD00BF3AF6FF1F034B1A781AB9012119705A80187170476E
:40BD80003AF6FF1F0000000038B5254A1378002B3FD0244B19881C4611B901221A8038BD00211980538801339BB2012B538001D11D4B10E0092B0BD865681C48294611F02F
:40BDC000DFFC1B4911F09AFE294611F0DBFC10E00B2B02D8154B636013E0152B0BD8606811F044F90CA3D3E9002311F0BDFA11F073FC606005E0182B01D80023EBE75180A8
:40BE00001170606811F08CFFBDE83840C0B2FFF773BF38BDAFF30080CDCCCCCCCCCCF43F3AF6FF1FD88CFF1F0000204100007F4300004040F8B55E4DFEF790F8012001F009
:40BE400005F901F02DF8FEF759FBAB7E05206FF38203AB76F6F752FF0020F8F73BFF554C0120F8F74BFF0120FEF78CFBF7F78AFDFEF75EFCFEF766FB00F0C6FF237ADF079E
:40BE800007D4F8F71FFF4C48F9F7A6F90120F8F721FFF6F703FF02F035FE012002F032F801F0EEFDFFF750FFFFF786F9FFF7F4F802F0EEFA0520F6F721FFFFF7D9FAAB7E80
:40BEC00043F00403AB763D4B9A6C1D46012A02D102F0DEFA02E03A4B00221A70237ADE0702D5F7F79BFE03E0F7F798FE02F072F8FEF77AF80646FEF777F8324B07469B7884
:40BF0000180703D500216520FFF7DAFE237AD90703D5F8F7D7FEF7F781FEAD6C012D06D10820002102F01AFA2846F8F7D3FEFEF715F8F6F76DFE01F06BFA032000F0D6FFDD
:40BF4000FEF70CF801F072FE002001F0DBFFF9F7E7FDFEF703F8F7F72DFBFDF7FFFFF8F7DDFA00F063F83046FEF74AF864280CD9FEF73AF80646FEF79BFA237A1A0701D4F1
:40BF8000FFF704FA0020F6F721FF3846FEF738F80A2807D9FEF728F8237A0746DB0701D501F090FAFFF7DCFBFFF7E2FDC8E700BF3485FF1F5CF6FF1F10C9FF1FF080FF1F9D
:40BFC000F88BFF1FB484FF1F4FF6FF710B4B1A6801321EBF1A6801321A60094A072828BF002032F810309BB28B421FBF32F8103001339BB222F81030704700BFE08CFF1F4E
:40C0000040F6FF1F7047000048B1074B984208DC41F287339842D4BF022000207047012070470320704700BF5A6E190010B51D4B1D49DB7813F0020F0CD00A7812F00F03DB
:40C0400002D163F3071204E04868FFF7DDFF60F307120A708B7F5B0723D5134B1A7802F00F03022B08D0032B00D0D3B9BDE8104001210820F6F732BE12F0F00F0B4C0AD1FC
:40C0800001210820F6F72AFE94F900304BB902F0FFF9012304E000210820F6F71FFE0023237010BDB484FF1F3085FF1FE88CFF1F144B10B55A6802F153048C4203DBA2F16E
:40C0C0005304A14201DA0A46596041F287339A420EDD0D4B1B7A13F0020F0C4BB3FBF2F314BF14220A2293FBF2F39842A8BF1846B0F5166F03DC3028B8BF302010BD4FF404
:40C10000166010BDE88CFF1F5CF6FF1F00180D8F10B50C4B0C4C9B7813F0080F0FD1DB0603D4A168FFF7C4FF206102F0E3FD2369984204D0044B186980B202F0E1FD206923
:40C1400010BD00BFB484FF1F3085FF1F10B50E4B9B781A0716D40D4C237803F00F03032B03D163690BB1606901E0094B1869FFF7CFFF94F823301BB9044B9B7F9B0701D475
:40C180000023636010BD00BFB484FF1F3085FF1FF080FF1F73B502AB03F8010D154C18460E46FEF76FFA2378254603F00F03032B16D09DF807303046012B04D0022B08D0A1
:40C1C000FFF7A6FF03E0FFF7A3FF0B4B1861286106E0FFF79DFF084B20611861206906E02B7813F0F00F0CBF024B034B186902B070BD00BF3085FF1FF080FF1F37B502AB79
:40C2000003F8010D18460D46FEF73CFA9DF80730074C022B09D1256102F06CFD2369984203D0206980B202F06BFD206903B030BD3085FF1F13B50C4602AB03F8010D18469A
:40C24000FEF720FA144B20461B7A9B0706D511F04DFB4FF07C5111F09DFB01E011F046FB10F004FF00224FF0804310F0A1FD00220A4B10F04FFF11F0E7F9FFF749FF084BCB
:40C28000586120469DF80730013B012B9CBF054B9C6102B010BD00BF5CF6FF1F000038403085FF1FF080FF1F38B5244C237803F00F03032B40D8DFE803F002192326A0609B
:40C2C00018B90220FFF780FE06E01D4BB3FBF0F00A235843194BD860E3684FF4B472B3FBF2F3A361A068F6F7EBFC02E0022003F085FB144B00201969BDE83840FFF74ABFDC
:40C3000000F030FCF5E7A06018B90220FFF75CFE06E00B4BB3FBF0F00A235843074BD8600025A561A068F6F7CBFC064B28469969BDE83840FFF77EBF38BD00BF3085FF1F27
:40C3400000180D8FF080FF1F37B50D4602AB03F8010D1846FEF796F99DF80730054C013B012B8EBF606828466560FFF79DFF606803B030BDF080FF1F13B502AB03F8010DD1
:40C3800018460C46FEF77EF99DF80730022B05D1054B9B7803F01803102B01D0034B9C60204602B010BD00BFB484FF1FF080FF1F13B502AB03F8010D18460C46FEF762F9C5
:40C3C0009DF80730022B05D1054B9B7803F01803102B01D0034BDC60204602B010BD00BFB484FF1FF080FF1F08B5124B1B7ADB0904D0002814DD012802D103E0002803DC79
:40C40000002010E0042002E001280BD1052002F097FD02F073FDBDE80840022002F012BD0820F4E7032002F00DFDBDE8084002F073BD00BF5CF6FF1F10B50C1E03DD012CA8
:40C4400018BF022400E00024034B20465C61FFF7CBFF204610BD00BFF080FF1F70B5174C0546A37F264613F0040F1ED000280FDA00210820F6F732FC01210846F6F72EFCA9
:40C4800000210220F6F72AFCA37F6FF341030AE001280AD102F074FF29460820F6F71EFCA37F43F00203A37770BD00210820F6F715FCB37F6FF34103B37770BD3085FF1F83
:40C4C00002291368B8BF02218B4270B5054616460C4603D0084602F03DFB3460114CA368B3F5AF7F0BDD092D09DC012003F0F0FA002003F0EDFAFDF731FDFDF72FFDA368AC
:40C50000092B0CDCB5F5AF7F09DD012003F0F2FA002003F0EFFAFDF721FDFDF71FFDA56070BD00BFE88CFF1F084B1B780BB101F001B9074B074A9868D3684FF4B471B3FB3F
:40C54000F1F118324143FFF7BBBF00BF6A8DFF1FF080FF1F3085FF1F0C4A92F8233003F0FF0093B90A4B5B7ADB0703D534324FF4F07108E0074B4FF4B471D868536A343202
:40C58000B3FBF1F14143FFF79BBF70473085FF1F5CF6FF1FF080FF1F38B5114B05469842104C0ADCA37FDA0715D56FF300030120A37702F0E5FE01230CE00B4B98420ADD56
:40C5C000A37F13F0010006D143F00103A37702F0D7FE02236377607F95FBF0F038BD00BFCB4D19003085FF1F5A6E190038B502F0D7FC1B4A1B4CD368D0601B1A6362606A92
:40C6000000F002FAE062E36A2BB1174BE26AB3FBF2F20A235343A363012384F822302378104D13F00F031AD0052B18D095F82120022A03D1BDE8384000F036BA6A6A72B1D7
:40C64000696A094A012BB2FBF1F14FF00A0202FB01F22A6303D1286BFFF79EFFA86038BDE88CFF1F3085FF1F00180D8F094B1B781B09022B07D0032B03D0012B08D1064B9B
:40C6800002E0064B00E0064B1A68064B00205A60704700BF3085FF1F7CA4FF1F9CA4FF1F98A5FF1F449FFF1F13B502AB03F8010D18460C46FDF7E6FF9DF80730022B054BD8
:40C6C00008BF5C6018B15868FFF7D0FF00E0586802B010BD3085FF1F012930B50D4904D1030F0001CB6188610EE0D1E90623140944EA0374121B4FEA131563EB0503121874
:40C7000043F10003C1E906238B69C8691B0943EA007030BDE88CFF1FF0B51F4B9B7803F0100303F0FF01002B35D101281B4B10D183F820101A490A6BD517680140EAD2609A
:40C7400052019A62D8624A7F0B6B93FBF2F34B60F0BD93F82020022A03D8013283F82020F0BD0F4AD3E90A67146B83F82010301947EBE471740944EAC764001B4FEA5715A3
:40C7800061EB0501C3E90A01430943EAC163517FB3FBF1F35360F0BDB484FF1FE88CFF1F3085FF1F10B502F08FFC034B5C6A02F085FC204610BD00BF3085FF1FF8B5FFF725
:40C7C000F1FF2C4C074694F822302B4D03F0FF0263B96B6BB3F57A7F05D9012384F8233085F8382014E001336B6317E095F838600023012E84F822306B6306D13146FFF7BD
:40C800006BFF3046FFF788FF05E004D984F82330FDF7A4FB02E0013685F8386094F8233003F0FF0543B929463846FFF755FF114B98622846FFF770FF23780E4A03F00F031F
:40C84000012B15D1936AB3F5E15F04D292F8233003F0FF013BB102F06DFA020708D4A37F9B0705D501210820BDE8F840F6F736BAF8BD00BF3085FF1FE88CFF1F13B502AB01
:40C8800003F8010D18460C46FDF7FCFE9DF80730022B054B08BF1C6018B11868FFF7E6FE00E0186802B010BD3485FF1F044B08461A6D8A421FBF1965024B01221A7070476F
:40C8C000F080FF1F7C85FF1F084A906D516558B151B101F108035B00984205DA9365044A137943F00103137108467047F080FF1FF88BFF1F124B10B59A6D08468A4204D092
:40C9000019B9596D09B1480021300D4A9865B0B1516DA1B1022390FBF3F3A3F10F04A1420DDB103B07495365D1F8DC128B42BCBF00235365044A137943F00103137110BDB0
:40C94000F080FF1FC4EEFF1FF88BFF1F0B4B1B7803F00F03022B0A4B01D0586A70475A6A8A4207D031B1074882691AB1C07808B95A66996659620846704700BF3085FF1FA6
:40C98000F080FF1F5085FF1F70B51C4C10F0AEFF216E10F0FFFF11F0C3F9A56D23460DB9626D52B308B9002070BD154A0A24B2FBF0F0444310465E6D07210123002BD6BF81
:40C9C000C3F1020204FB03F294FBF2F21DB1AA4201DD013B03E046B1B24206DA0133013911F0FF015BB2E9D101E006490B74002AD9D0B0FBF2F00A23584370BDF080FF1FCE
:40CA000000180D8F7C85FF1F174B2DE9F041D3F850800646B8F1000F24D0144C144F94F90030012B08D100254246294610F0AEF92570C7E900010EE0D7E900454246204678
:40CA4000294610F097F9201A65EB0101841941F10005C7E90045D7E90001424610F08AF9BDE8F081BDE8F081F080FF1F7C85FF1F288DFF1F10B5094CE068FFF785FF0849BD
:40CA8000886038B1074BB3FBF0F20A235343236123694B6010F026FF10BD00BF5085FF1F3485FF1F00180D8F08B5FFF7E3FF11F037F9084B586093F908304BB9064B1B7899
:40CAC00003F00F03022B03D1BDE8084002F096BF08BD00BF7C85FF1F3085FF1F0B4B4FF4B4719B780A4813F0100F15BF094B0A4B5B685B6814BFB3FBF1F193FBF1F1836880
:40CB0000064A59438068FFF7DBBC00BFB484FF1FF080FF1F5085FF1F7C85FF1F4885FF1F38B50D4C0D4D206E294611F0EFF800B12566206E10F09AFA05A3D3E9002310F08A
:40CB40005BFD10B1064A044B1A6638BDAFF300809A9999999999B93FF080FF1F0050C347CDCCCC3D08B5FFF785FF11F0FFF8044B00221A725860BDE8084002F03FBF00BFCD
:40CB80007C85FF1FFFF7EEBF38B50C4610F0AEFE2146084C10F0FEFE256E294610F0FAFE0146284610F0ECFD2066BDE83840FFF7B7BF00BFF080FF1F38B5144D2C782044C7
:40CBC00044B224B1621C0BD0002C0ADC01E06FF00104604210F08AFEA96810F0DBFE07E00124204610F082FE0146A86810F086FF074B2C701866074B9B781B0705D5BDE866
:40CC0000384001466C20FFF75BB838BDD080FF1FF080FF1FB484FF1F70B5164B9B78DB0902D0154B586970BD18B3144B5C6EFCB1586AF0B1124A986E966910F057FE0546B7
:40CC4000304610F04FFE0146284610F0A3FE0546204610F04BFE0146284610F04FFF11F05FF8084B9842A8BF1846034B586170BD204670BDB484FF1F7C85FF1FF080FF1F8A
:40CC80005085FF1F9F86010070B50446F8B1114B5D6EDDB15C6AD4B110F028FE0646284610F024FE0146304610F074FE11F038F810F01CFE0546204610F018FE014628464B
:40CCC00010F01CFF11F02CF8044600E02C46204670BD00BFF080FF1F38B50C46054D09B9E96003E00846FFF7CFFFE860024B20461C6338BD7C85FF1FF080FF1F08B5F6F721
:40CD000081FF0348F6F7CEFEF7F71AF8002008BD9485FF1F70B5194C2378264603F0FF0553BB012003F00EF830B3154B62881B88632A99B21ED96368952A0B44636019D17E
:40CD400010490A78052A4FF03202B3FBF2F308D10D702381658065602846BDE8704003F083B863810123237065606580BDE8704004F01CBB0132728070BD00BF308DFF1FBD
:40CD8000A05B00406087FF1F70B5044602F0EAFD830716D55C2C14DD0B4900230C255A1C05FB0313B3F90C3050B203F12706A64202DB273B9C4205DA052A1346EFD1002072
:40CDC00070BD012070BD00BF7C4E03000000000038B50D4610F086FD0446680010F086FD0146204610F08AFE10F040F904A3D3E9002310F08FF910F04FFC80B238BD00BF87
:40CE00000000000000FEAF4038B51F4D32242A781D4B002A2ED10A20013C04F065FE14F0FF04F4D12046194A0C2404FB0020184B07C883E807001A7A587A920642BF154A7F
:40CE40000121916410F0010010D0124B0022DA60C0221A61012002225A61D86402F076FD0D4A937843F04003937038BDBDE8384002F06CBD19895889FFF7AAFF074B1880EF
:40CE800000B2FFF781FFCEE7308DFF1F7C4E03005CF6FF1FF080FF1FB484FF1F58F6FF1F08B502F0D3FF084B0520187002F0DCFF02F032FF054804F061FA02F03BFF62B6DC
:40CEC000BDE8084004F06CBA6087FF1F15CD000008B502F0F3FF0A2004F0F0FD02F0E6FF18B1BDE8084004F0E1BD08BD2DE9F843374B1B7A13F0010363D0364A431C08BF6C
:40CF000092F9000092F900308342334B04D131491C7849788C4257D01B781070042B537008D0052B0BD0012B4ED1DFF8C8802B4D2B4E08E0DFF8C0802A4D2B4E03E0DFF8E3
:40CF4000BC802A4D2A4E022808D003280BD001283AD14FF005094FF4784708E04FF00A094FF6E07703E04FF011094FF4FC670023EB612B6311236B61F36801240233EB6046
:40CF8000284688F8194085F8204086F82040F8F7D1F8F36830461333C9EB0303EB60C8F81C70EF612F63F761C5F81490F8F7C2F82846F8F7BFF84046F8F7F8F82046BDE887
:40CFC000F8831846BDE8F8830020BDE8F88300BF5CF6FF1F3C8DFF1FF88BFF1F20BFFF1FB0B8FF1F58B2FF1FD0A5FF1F60B1FF1F94D1FF1FC8BDFF1FC0D8FF1F40B5FF1FE5
:40D0000008B5FDF7B1F8BDE8084002F0BBBE000038B5084D02206C68FDF7A6F864128442BEBF044643026B6020B2BDE8384002F0A9BE00BF3C8DFF1F08B50220FDF794F814
:40D04000014B4002586008BD3C8DFF1F38B504461B4DC8B9F7F752FE204602F015FF204602F0DCFE204602F0E5FE164B05209A7E64F382029A76F5F741FE2046F7F72AFE57
:40D0800001232C726B8138BD012002F0FDFE012002F0C4FE012002F0CDFE012002F0B2FE00232B7395F908304BB9012332202B7204F004FDBDE838400220FFF7BDBF38BD10
:40D0C0003C8DFF1F3485FF1F2DE9F0410220FFF797FF554D554C28600320FFF791FF20600420FFF78DFF524E3060FFF791FF514B2D68186080465049284610F04BFC4F4BD6
:40D10000074618604E49404610F0E2FD002870D14C49284610F0DCFD00286ED14849284610F0D6FD00286BD14749284610F0EEFD002868D1D4F800804449284610F02AFC95
:40D14000434910F01DFB414610F0E0FD414C30B1E3895A1CB3F5FA7FE28114D957E03E49284610F017FC3D4910F00AFB0146404610F0CCFD30B1E3895A1CB3F5FA7FE2813F
:40D1800001D948E0E081D6F8008000263146404610F094FD324D50B9324B4046196810F0F9FB0146384610F0A9FC286000E02E602D682D49284610F08BFD40B1238A5A1C95
:40D1C000B3F5FA7F22822AD80020BDE8F0812749284610F09BFD48B1238A5A1CB3F5FA7F2282F1D96FF00500BDE8F0812082BDE8F0814FF0FF30BDE8F0810220BDE8F08123
:40D200000120BDE8F0816FF00100BDE8F0816FF00200BDE8F0816FF00300BDE8F0816FF00400BDE8F08100BF7CF6FF1F70F6FF1F78F6FF1F74F6FF1F0000304180F6FF1FED
:40D24000F294A03F62ED9B3F175DF43F83C04A3EEC51383E3C8DFF1F48E1BA3F713DAA3F6CF6FF1F6487FF1F1F85AB3F1F850B4008B504F03BFD02F021FEBDE8084002F07C
:40D2800039BE08B501F00AFC01F016FC002002F0FBFD02F009FE002002F094FB01F056FE02F0E4FA04F052F802F03EFB02F014F802F0C4F902F08EFD03F02EFB02F040FC2A
:40D2C00001F053FD01F006FF03F072FF02F088FB02F0EAFB01F030FC01F092FC01F0F6FC01F014FD002001F01FFD01F033FD02F0FFFB02F00FFC01F0B5FD01F03DFE01F0CF
:40D30000B7FE03F0F5FEBDE8084002F049B800002DE9F0411D4B1E481E4C1F4D1F4E204FDFF88CE0DFF88CC0DFF88C801D4983421AD0A3421AD0AB420CD004D8634509D058
:40D34000434507D013E0B34204D0BB4202D0734517D00CE01A7802F0FE021A701A7802F0F10242F00C020BE00F4B00E00F4B1A7802F0FE021A701A7802F0F10242F0080233
:40D380001A7001338B42D2D9BDE8F08100500040385000406850004026500040675000407B5000407F500040605000407A50004066500040065000401950004008B572B6F6
:40D3C000002002F01FFDFFF7A3FF002002F05CFD012001F0A9FC002001F034FD002002F0BBFA002002F01AFD002002F023FD01F0D3FE04F07BFCFFF744FFFFF739FF04F059
:40D40000DDFD05F013F8BDE8084004F04FBB000008B5094B1B7ADB070CD572B602F04EFD02F070FD054802F051FD02F063FD02F069FD62B608BD00BF5CF6FF1FD1CE000018
:40D4400038B51B4B1B491D681B4C284610F040FC98B1B4F91230C72B21DD0120FFF746FDC8236382154B00209A7E6FF382029A76FEF7F4FF0123237511E01149284610F022
:40D4800027FC50B1237D43B9B4F91230632B06DD0220FFF72BFD642300E0002363824FF0FF30FFF723FD638A0133638238BD00BF7CF6FF1FCDCCAC3F3C8DFF1F3485FF1F8D
:40D4C0008C2EBA3F38B5204B1B7ADB073AD5FFF7FBFD1E4A002810701D4C0CDD022804D194F90C300BB90123237394F90830012B18D1002014E005D00020FFF7A7FDFFF792
:40D500005DFF0FE094F90830C3B994F90C50012D0BD1FFF775FD0F4910F0F8FB10B12846FFF794FD94F9083043B9B4F90A305A1CB3F5FA7F628101DDFFF740FFBDE83840B1
:40D54000FFF77EBF38BD00BF5CF6FF1F68F6FF1F3C8DFF1F6666A63F48B118235843044B0A21B3FBF0F041430120FEF7EDBE704700180D8F2DE9F04F06466C4C6C4B87B072
:40D580000021D3F80080D4F800A0D4F80490A768E56804910291019118F83600F20008EB020300F007000393062800F2AE80DFE800F00C33482B25040A000123019300229C
:40D5C0002E461546E8E70026E6E7019B03B1E560029B03B1A760049B0BB1C4F800A009B1C4F80490039B1868C0F3D20010F07AF9616810F0C7F810F0B9FB7EE058F83600B6
:40D600002A46C0F3D205DBE758F836500123721CC5F3D2050193D3E7002F02DC039B9F8807E0012F04D12A460297751C0027C7E7013F58F8020001232A460293C0F3D20557
:40D64000BEE700215046059210F038FB06F1005B0BF1FF3B059AC0B158F8020058F83B30C0F3D200C3F3D203C01A10F03FF9039B8146988810F036F90146484610F03EFAFC
:40D68000824681460123059A049351464846059210F078F8814658F83B00C0F3D20010F021F9494610F06EF810F03AFB00218346504610F02BFB059A28B158F80210C1F306
:40D6C000D2018B450CDC00215046059210F000FB059AB0B158F80220C2F3D202934510DA019B03B1E560029B03B1A760002363602360039B1868C0F3D200FFF72DFF701CF2
:40D7000011E02A460121751E5AE7019B03B1E560029B03B1A760049B0BB1C4F800A009B1C4F80490002007B0BDE8F08F548DFF1F88F6FF1F10B5034C2069FFF71BFF206120
:40D7400010BD00BF548DFF1F2DE9F04781460C469046DFF844A0002635B2454517DA671901223946DAF800000CF02DFE00B210B93870BDE8F087605D484503D00A2806F1FF
:40D780000106E9D100233B7040B2BDE8F087002323700120BDE8F08784F6FF1F2DE9F0410024B2B0C82269460A20FFF7CDFF25B2064628B10134B4F5967FF3D10020ADE08F
:40D7C000584FE800BD8210F021FB574C20600028F4D0564B3246314618680CF05FFCC82269460A20FFF7B0FF0A28E7D12568B7F9142033B2F4009A4205EB0408DEDDC822B0
:40D8000069462C20FFF7A0FF2C28D7D10A224849684610F025FC18B92B5D60F302032DE00A224449684610F01BFC10B92B5D012222E00A224049684610F012FC10B92B5D5C
:40D84000022219E00A223D49684610F009FC10B92B5D032210E00A223949684610F000FC10B92B5D042207E00A223649684610F0F7FB60B92B5D052262F302032B55C82233
:40D8800069462C20FFF760FF2C2818D096E70A222D49684610F0E4FB00288FD198F80030062262F3020388F80030D8F80030A8F8040060F3D503C8F8003001202EE068461A
:40D8C00010F074FA2B5960F3D5032B5103F00703012B02D0033B012B06D82B59C0F31200023860F3D5032B51C82269462C20FFF72BFF0446684610F059FA012CA8F8040001
:40D900007FF75CAF2C2C01D0013670E7C82269460A20FFF719FF0A28F6D04FE732B0BDE8F08100BF548DFF1F88F6FF1F84F6FF1FF54E0300FB4E0300004F0300054F03008B
:40D940000B4F0300104F0300174F030038B50D4B1B7873B10C490D480CF0C4FC0C4D286038B1FFF71BFF0446012C286803D00CF0F3FB002403E00CF0EFFB064B9C752046CA
:40D9800038BD00BF058CFF1F964F0300EA4E030084F6FF1F548DFF1F38B50F4C2368B9B95A1C22600D4AD05440F2FD7322689A420CD92268094960680CF0F0FD2368064D3A
:40D9C00098424FF00000286000D038BD012038BD002BEED1E8E700BF6C8DFF1FF2F6FF1F10B501210020FFF7D7FF044B58681C4608B10CF0B1FB0023636010BD6C8DFF1FA7
:40DA000070B50139084E451E4418A5420AD015F8010F3388002103443380FFF7BDFF0028F3D100E0012070BD8CF6FF1FF0B50D2985B00646174618D80E4B1B78BBB101460A
:40DA40000D220D4D684610F020FB0024FFF7C8FF394630462C600CF045FC686018B1074B20461C8004E0042002E0012000E0062005B0F0BD058CFF1F6C8DFF1F8CF6FF1FF7
:40DA800008B562B60221002002F02EFB014B01221A7208BD6C8DFF1F012002F0CFBB70B503EB83030E4615460146402202205C0002F086FB022002F067FB30B92CB1012080
:40DAC000013C03F0FBFFA4B2F4E7022002F05CFB10B12E80002070BD102070BDF7B50F461C460178174B3C2F197041781E4659708178DF70997021D80023BB4204D2D05CC3
:40DB0000F11808710133F8E720463D1D10F08EFA38B996230DF1060239460A48FFF7BFFF0DE02346721920448342F2D0911B3B29EFD813F8011B02F8011BF5E7012003B043
:40DB4000F0BD00BF8EF6FF1F10B5114C237A63B102F008FBC8B102F005FB70B102F008FBFFF79AFF0023237207E002F001FB20B102F0F8FA08B1FFF78FFF012002F004FB2E
:40DB8000012814BF0220002010BD012010BD00BF6C8DFF1F2DE9F84303EB83035C00224B17461A7A804689461E46A2B1254602F0D9FA30B92DB10120013D03F07FFFADB2A5
:40DBC000F5E702F0CFFAA0B102F0D2FAFFF764FF002333720DE002F0CBFA50B102F0C2FA38B1FFF759FF04E054B103F067FF013CA4B2012002F0C8FA01284FF00100F3D1FD
:40DC000002F0C2FA01280AD14A46402A28BF4022414602F027FB38800020BDE8F88300233B801020BDE8F8836C8DFF1F07B5FFF78BFF68B9084B0DF106025B7A6421002BDC
:40DC400008BFFF230548FFF7A5FF08B900F02EF803B05DF804FB00BF6C8DFF1FF1FEFF1FF8B5002303800F4B06461C4601220E4F9A7240F2FF720C4960680CF0A4FB054686
:40DC800050B10023D95D328801330A449D423280F8D1FFF7CBFFECE7FFF7A2FE014B01209D72F8BD6C8DFF1FF2F6FF1F30B55D4893B0C17800243C29027843788DF80C4068
:40DCC00000F2AA80282A40F0A180574A927A32B1072312AA02F83C3D0121544B24E0023B152B00F29380DFE803F00B263691913E535B6A70849991919191919191910B225A
:40DD00000191FCF7B3FA4A4A01994A48FFF78EFE12AD05F83C0D08B9474B02E0FFF760FE464B2A4601213F48FFF7D8FE76E04148FFF766FE72E03F48FFF762FE0128014693
:40DD400002D13F4B03AAEEE7FFF74AFE02238DF80C303C4B31E0FFF743FE3B4B1B88ADF80D303A4B19E03A4A3248FFF75FFE8DF80C0048B9374B03AA01212A48FFF7AEFE00
:40DD80003148FFF76DFF49E0FFF72AFE324B14E02D4B1B88ADF80D30304B03AA0321C2E72B4A2448FFF742FE8DF80C00FFF718FE9DF80C40002CE7D1294B03AAB2E7294B37
:40DDC0001B88ADF80D30284BE7E7284B03AA01211448FFF783FE2648F7F7FEF90120F6F779FF4FF47A7003F069FE0020F4F70EFF14E0204B03AA01210A48FFF76FFE4FF4AA
:40DE00007A7003F05BFE03F051FE07E0052312AA02F83C3D184B85E7012000E0002013B030BD00BFF1FEFF1F6C8DFF1F1B4F0300314F0300F5FEFF1F544F0300334F03007D
:40DE4000424F0300374F03008CF6FF1F4A4F0300964F0300524F03005B4F0300694F0300724F03001E2E03007C4F03008D4F0300DCD5FF1F984F03009F4F030008B5F5F742
:40DE8000C1FE0348F5F70EFEF5F75AFF002008BD6887FF1F10B5FCF7B3FA044648B9064B01225A70F5F7AEFE0448F5F7FBFDF5F747FF204610BD00BF058CFF1F3489FF1FC5
:40DEC00010B50446F6F7AEF82046BDE81040F7F783B9000004280FD8DFE800F00307070E070001290AD0022908D0054BDB6D002B14BF032000207047002070470846704798
:40DF0000F080FF1F38B5244C98B1FCF76DF80023A370224B01221A704FF6FF73204A20809361D3621F4A93611F4A93611F4A936138BD2088FCF764F8B0F57A7F2BD9FCF783
:40DF400053F81B4B20801B782BBB144DA2782B78511C002BA1704FF6FF7318BF0023032A19D8DFE802F00205070D0D48C36202E00E4800E00C488361BDE83840F7F76CB874
:40DF800008488361F7F768F80023A3702B78B3FA83F35B092B7038BD788DFF1F008BFF1F38BDFF1F48A8FF1FA4D0FF1F8CC9FF1FF88BFF1F08B5054B002201201A70FFF78C
:40DFC000A1FFBDE808400248FFF77ABF449FFF1F10C9FF1F0F4B70B59B6CCBB90E4B1B78B3B90E480E4E0F4D0F4C0123437673766B7684F82030F7F7D9F83046F7F7D6F8F4
:40E000002846F7F7D3F82046BDE87040F6F71AB870BD00BFF080FF1FF88BFF1F08B2FF1FA4C0FF1F28C0FF1FB4C2FF1F08B5134B9B785B0603D5124B124A9B681CE0124BB4
:40E04000597801F00F01FFF745FF042815D8DFE800F003070B0F0F00094B0C4A9B680AE0074B0B4A9B6806E0054B0A4A9B6802E0034B094A9B6812685A6208BDB484FF1FEC
:40E08000F88BFF1FBCE901003085FF1F98A4FF1F74A4FF1F94A4FF1F84A5FF1F38B5114B1A781D4602F00F02042A04D8DFE802F0080A0C0E0E000C4B382404FB003409E00C
:40E0C000042104E0062102E0072100E00821F6F7FBF80446287800F00F00FFF7A7FF204638BD00BF3085FF1FA0A4FF1F2DE9F74F194C0746A34644F228294FF6FF78B4F942
:40E100000CA0B4F90810B4F9142000266369124D05336361E3682846053BE360A3688DE806000F33A36073B2BB42ACBF4B4643460136CBF83030F6F7C3FF9DE806000B2EC5
:40E14000E4D14FF6FF73C5F80CA0A9606A612B6303B0BDE8F08F00BF6CAFFF1F10B5154C07232370144BA360144B187800F00F00FFF75CFF0020FFF791FF114B114A186040
:40E180008368114813600022E27019680F4A51625A680F4B5A62FFF793FE0E4B93F91800FFF7A4FFBDE810400B4B012202201A70F5F786B9F88BFF1FACB1FF1F3085FF1F7E
:40E1C00088A5FF1F80A4FF1F88ABFF1F6CA6FF1F94CDFF1FF080FF1F449FFF1F08B50C4A0C4B5A620C4B012283F820200B4A0C4B9A600C4B187800F00F00FFF717FF0A4BBB
:40E2000000221A700948BDE80840FFF759BE00BFBCE90100A4D7FF1FA4CCFF1F48ADFF1FF88BFF1F3085FF1F449FFF1FECAEFF1F2DE9F047344B354F1B68354C9E689AB077
:40E240000546214638467E62F5F7C8FE8046C0B30024A146A246C7F824D04FF0320831466A46C7F80C8000230E4608780131B9F1000F16D118B9B8F1320F12D114E00D2882
:40E2800007D10DB90E4611E0013D6DB24B466A4601E002F8010B0133DBB2642B0E46E3D104E04FF0010901E00124A14682F800A0164808F11408F5F7C5FEB8F1D20FCED11F
:40E2C0001EE025B92046F6F7BFFE2C4618E06422314668460FF0D9FE68460FF0A7FE1AAB40B21844303500F86D5C6846FBF7E0FF28B1A0612046F6F7A7FE444600E00124DC
:40E3000020461AB0BDE8F08780A4FF1F90A8FF1F64A7FF1F0B4B10B50024DC700A4B0B481A785A7006221A70094B02221A70094A094B5A62FFF7C4FD2046BDE81040FFF722
:40E3400077BF00BF788DFF1FF88BFF1FECC3FF1F449FFF1F298CFF1F90A8FF1F082810B503460C4605D1254B5B6C012B0CBF05230123234A9278520605D523B1022B02D091
:40E38000072B18BF05231F4A11781370062903F1FF3314BFE0B20220062B26D8DFE803F0041B0E09161220002046BDE81040F5F7F1BE2046BDE81040F6F7ECBBBDE810409A
:40E3C000F6F75ABABDE81040FFF7A4BF2046BDE81040F6F747BB2046BDE81040FFF7FEBE2046BDE81040FFF7B9BE0520F4F786FC2046BDE81040FFF7DDBD00BFF080FF1FE5
:40E40000B484FF1FF88BFF1F094B01211B7803F00F03052B01D1002007E0042B01D1022003E0032B0CBF07200520FFF797BF00BF3085FF1F08B5084B03201A789A70074B84
:40E440001A7860F303021A70F4F758FCBDE8084001210720FFF782BFF88BFF1F3085FF1F032810B5044602D1FFF7E4FF05E0F4F745FC14B9044B01221A70044B0020D96997
:40E48000BDE81040FCF704B9F88BFF1FF080FF1F074B1B7A1B0708D4064B5878012805D0022814BF0020022000E00020FFF7D8BF5CF6FF1F5085FF1F08B5064B59781878E6
:40E4C00001F00F0100F00F00FFF704FDBDE80840FFF7C6BF3085FF1F10B5094B084CDA78104440B20028B6BF0022D870DA7093F90300FFF79DFE10B1E378013BE37010BDFC
:40E50000788DFF1F024B4FF0FF315878FFF726BFF88BFF1F052810B514D80B4A4000C0B252F8201013180C7893F8303023430B70431CD8B252F82010104490F830300A78B5
:40E5400013430B7010BD00BFC06C0300052810B516D80C4A4000C0B252F82010131893F830400B7823EA04030B70431CD8B252F8201010440B7890F8302023EA02030B70D6
:40E5800010BD00BFC06C03002DE9F04172B6BE4ABE4E1378002443F020031370062707FB04630021B3F84020D86B01340FF041FC0B2CB64DF3D100240A2606FB045213461D
:40E5C00053F87E0FB2F88620596801340FF026FC052CF2D100221146AD4C04F1B00554F8210005EB420320F0FF06C0B2024405EB4200013303300233834206D013F8037C6A
:40E6000013F802EC07F806E0F5E701312C29E6D1A04B00221A609A609F4903F50E435833196001F18041C3F8801201F5A06103F59453196099499A4C0B789A4D43F0020373
:40E640000B700B7C43F002030B742378A1F5863143F04003237041390B7843F010030B70914B1E461868596803C556F80A0F1989B83525F8B81C716803C531891E4656F8F5
:40E68000140F29807168283503C531891E4656F81E0F29807168E83D03C531891E4656F8280F29807168083503C531891E4656F8320F29807168083503C531891E4656F8BE
:40E6C0003C0F29807168083503C51846318943F2C826298050F8461FC5F80A1041681846C5F80E1050F84E1FC5F81A1041686F48C5F81E10017841F0080101706C496120BD
:40E700000870A1F5F06158200A80887069488A801A210170428040F25A30674A1170A4215180664918220A70488040F227500A71C8804FF6FF700A7248810A7340F2CF7154
:40E740005F4AD3F8560011805E4B1B219170262283F8002243F21332A3F81221052283F8102193F81021186003F588731D462B781B0606D54FF4F07003F08AFF013EF6D10A
:40E78000FEE740F62132504B504F1A8001224FF040231A7041F251221926A3F8202200253B784FF4F07003F0010343EA450503F06FFF013E05F0030564D0032DF0D1444ACD
:40E7C0004FF48073138041214FF040231970702183F800123F4907231370482000230B708870137053713C4B02221A7004229A7293F8A123FF2283F8A123384A384F137881
:40E80000DFF8F48043F0010313702378012243F080032370264B0A201A70324B324A1B783D78DBB298F80060EDB203F007011B091170F6B2537045F003033B7046F003031D
:40E8400088F80030402382F89330102182F89530202382F8223282F8B21282F8B532234B4FF481721A8003F03FF9214B88F8006044223D701F4D1A7094E80F0007C52B8068
:40E88000BDE8F081FEE700BFE8460040C06C0300706D0300007600400404048403500140A043004000510040208103002243004000480040864000408A4000408E400040A4
:40E8C0009C400040004100402242004025420040044000400640004001400040A1430040F8460040CF0100496E580040445B004076580040B0430040F946004008B50FF089
:40E9000059FA03680C2B00D1FEE7FEE710B544F620640849084A0B681844821AA24201DC086005E00FF046FA0C2303604FF0FF33184610BD048BFF1F200A002080B51148B6
:40E94000114B0025C0B1A3F1100192C922460439161BB74204D051F8046F42F8046BF7E7114653F8046C8C1AA64202D041F8045BF9E701381033E5E70FF022FAFDF75AFA2A
:40E98000FEE700BF0100000094900300124A134B10B51A60124A134C1368134843F4007313600023032B98BF54F823204FEA830188BF0E4A0133302B4250F3D10C4B1A7883
:40E9C0000C4B1A700C4B084A1A60FFF7DDFDBDE8104002F003BD00BF0004FA050CED00E014ED00E0002B00000080FF1FFDE80000BC760040C080FF1F08ED00E0044A40003F
:40EA0000137800F0020003F0FD0303431370704750510040044A0001137800F0100003F0EF03034313707047F0510040044A4001137800F0200003F0DF03034313707047C6
:40EA400050510040044A00F00100137803F0FE0318431070704700BF20510040044A4000137800F0020003F0FD0303431370704720510040024B01221A700A221A7470475B
:40EA80002A64004008B504490B781BB9FFF7F2FF01230B7008BD00BF7C8DFF1F70470000034A1378DB07FCD4024B1870197470476A6400404A640040FFF7F0BF08B502F04C
:40EAC00027FB803840B208BD024B187800F00F00704700BF6864004008B5084B0F221A70FFF7F2FF03F0DCFD054A137843F010031370BDE8084003F0D7BD00BF88640040A7
:40EB00009864004008B502F045FB802002F0FAFA044B1A780AB901221A70BDE80840FFF7DBBF00BF7D8DFF1F024A137843F080031370704777650040024A137803F07F0340
:40EB40001370704777650040014B1878704700BF77650040014B1860704700BF24640040024B1B78024B1868704700BF0464004044640040034A044913781B0701D50B688C
:40EB8000FAE7704767650040446400400A4A08B56323136042F8203C03F082FD074A137843F01003137003F07FFDFFF7E3FF044B00221A7008BD00BF246400409765004048
:40EBC0008765004010B5054C23781BB9FFF7DEFF01232370BDE81040FFF7A6BF7E8DFF1F10B5FFF7BDFF044C044B60601B782372FFF7AAFF607210BD808DFF1F87650040CE
:40EC000008B5074B1B7813F0800F064B14BF012200221A70FFF790FFBDE80840FFF7E0BF77650040808DFF1F144A137803F001031370937803F0FC039370114B1A7802F01C
:40EC4000CF021A701A7842F030021A701A7802F0F0021A701A7842F00F021A70094A137843F00103137040F22B13A2F80330A2F80530054B00221A70704700BF004F0040B5
:40EC80000B4F0040014F0040034F0040074A137843F001031370137C43F00103137492F85D3B43F0010382F85D3B7047A343004008B505490B781BB9FFF7B6FF01230B70C1
:40ECC000BDE80840FFF7E2BF8C8DFF1F084A1378A2F65D3203F0FE0382F85D3B137803F0FE031370137C03F0FE031374704700BF004F0040014B188880B27047044F0040D6
:40ED0000014B1880704700BF044F0040044B054A1B7813F0010318BF01231370FFF7D6BF004F00408D8DFF1F014B1870704700BF77640040014B1878704700BF776400400C
:40ED4000024B1A78024B1A70704700BF776400408E8DFF1FFFF7F4BF08B502F031FCBDE8084002F091BCFFF7F7BF02F0B5BC000037B50C468DF8070003F09CFBB4F5006FE7
:40ED800024D203F037FC18BB04F00F0101230DF10702402003F0BEFB07284FEA141504460FD1194A1378184C13F0020FFAD02378980702D44FF0FF3405E023789B0809D0C0
:40EDC000F8E70128F6D103F035FC1AE0012418E0042416E00D4A294653784020127803F0CFFB0728E6D12278074B9107FBD51A789207DFD51B789B0814BF4FF0FF340024FB
:40EE0000E1E7204603B030BD22470040BF00002038B5044603F044FC054602F06FFC04F1804303F500431C7802F074FCE4B2284603F03AFC204638BD08B502F0C1FBC0B21C
:40EE400008BD0000014B1870704700BF7C640040024B1A78024B1A70704700BF7C6400408F8DFF1FFFF7F4BF184A137843F002031370937803F08F0343F010039370144B54
:40EE80001A7802F0CF021A701A7842F030021A701A7802F0F0021A701A7842F00F021A700A2223F8072C052223F8052C002203F8082C084A137843F00203137092F86A3B8F
:40EEC00043F0010382F86A3B704700BF0C4F0040174F0040A3430040074A137843F002031370137C43F00203137492F8693B43F0010382F8693B7047A343004008B505498F
:40EF00000B781BB9FFF7B0FF01230B70BDE80840FFF7E2BF908DFF1F084A1378A2F6693203F0FE0382F8693B137803F0FD031370137C03F0FD031374704700BF0C4F00403A
:40EF4000014B1880704700BF124F0040044B054A1B7813F0010318BF01231370FFF7DCBF0C4F0040918DFF1F024A137843F080031370704775640040024A137803F07F034C
:40EF80001370704775640040014B1878704700BF65640040014B1878704700BF75640040014B1868704700BF40640040024B1B78024B1868704700BF006400404064004067
:40EFC000054B00F003001A7802F0FC021A701A7810431870704700BF75640040034A044913781B0701D50B68FAE7704765640040406400400C4A08B54FF0FF33136042F880
:40F00000203C03F04DFB094A137843F01003137003F04AFB0020FFF7D3FFFFF7DFFF044B02221A7008BD00BF20640040956400408564004010B5054C23781BB9FFF7DAFFA3
:40F0400001232370BDE81040FFF78EBF928DFF1F10B5FFF7ABFF044C044B60601B782372FFF798FF607210BD948DFF1F8564004008B5074B1B7813F0800F064B14BF012269
:40F0800000221A70FFF778FFBDE80840FFF7E0BF75640040948DFF1F064A0123136002F68832126800211064034A1170A2F540721360704780E100E000E400E0014B012200
:40F0C0001A60704700E100E0014B01221A60704780E100E002F06CB8024B1878C0F3C000704700BF51510040184A137843F002031370937803F08F0343F010039370144B9F
:40F100001A7802F0CF021A701A7842F030021A701A7802F0F0021A701A7842F00F021A70312223F8072C2D2223F8052C082203F8082C084A137843F00403137092F8763BA7
:40F1400043F0010382F8763B704700BF184F0040234F0040A3430040074A137843F004031370137C43F00403137492F8753B43F0010382F8753B7047A343004008B50549CC
:40F180000B781BB9FFF7B0FF01230B70BDE80840FFF7E2BFA08DFF1F084A1378A2F6753203F0FE0382F8753B137803F0FB031370137C03F0FB031374704700BF184F004088
:40F1C000014B1880704700BF1E4F0040014B1878704700BF1B4F0040024B40221A7002F065BC00BFFA4600402DE9F843224BDFF8A8804FF40049C3F8009098F800301F4CC2
:40F200001F4FE3703B781F4E237133781E4D637130783B782A7843EA002002F0FE0201302A7080B203F034FA03F03AFA174A137803F0FB031370137C03F0FB03137403F094
:40F2400033FA2B78102243F002032B70E37888F80030E37888F8003023793B70637933702B7803F0EF032B70094BC3F80090094B1A70BDE8F88300BF80E100E0088BFF1F6C
:40F28000DB490040DC490040D6490040A543004080E200E055FFFF1FCA490040084B1A78084B9A70084A12785A70084A1278DA70074A12781A71074A12785A71704700BF67
:40F2C000D6490040088BFF1FC8490040CA490040DB490040DC49004008B5084B1B7803F00403002B064B14BF012200221A7001D0FFF77AFFBDE80840FFF7D0BFA5430040FC
:40F30000088BFF1F044A00F00E00137803F0F10318431070704700BF1E500040044A00F00E00137803F0F10318431070704700BF1D500040014B1878704700BF6565004047
:40F34000044A8001137800F0400003F0BF0303431370704750510040044A4000137800F0020003F0FD0303431370704760510040024B1878C0F3C000704700BF31510040F6
:40F38000014B1870704700BF76640040024B1A78024B1A70704700BF76640040A18DFF1FFFF7F4BF08B51149032002F0ADFC0421032002F0B7FC0E4B00221A700D4B7222FB
:40F3C0001A70202203F8032C0B49042002F09CFC0421084602F0A6FC084B06221A7047221A74022283F85F2008BD00BF61F60000A28DFF1F8F640040FDF600002E640040D4
:40F4000010B503F04DF904460E4A0F49137843F02003137012F8033C43F0100302F8033C0A4A082313600B7843F010030B70084910230B60136001F0C7FE2046BDE81040FF
:40F4400003F032B99F6400409D64004000E100E080E200E010B5054C63781BB9FFF7A2FF01236370BDE81040FFF7CABFA28DFF1F10B503F015F904460D4A137803F0DF034C
:40F48000137001F0ADFE0B4A0B491378204603F0EF031370094A082313600B7803F0EF030B7010231360BDE8104003F0FDB800BF9F6400409C6400409D64004080E100E050
:40F4C000164B08221A60164A9378D1781079DBB2C9B208B98B420ED01249C85C0133DBB2642B28BF002393701379C0B28BB10C4B00221A710DE00C4B1B78DBB203F02002C3
:40F5000002F0FF002AB1094A13F01E0F107818BF0020074B08221A60704700BF80E100E0A28DFF1F56FFFF1F6C6400404C64004000E100E00F4B08221A600F4A9178D37824
:40F54000994205D11379002B14BF642000200CE09178D37899422BBFD078D378937890782ABF6430181AC01AC0B2044B08221A60704700BF80E100E0A28DFF1F00E100E04E
:40F5800010B5134CE379A279D2B2934202D2511E994201E0991A632914BF002101210029F1D193420B4A05D11178490702D40A4B187010BD642B094928BF0023C854013384
:40F5C000E37113789B0742BF054B10221A6010BDA28DFF1F6D6400404D640040BAFFFF1F00E200E038B5064B05465B783BB10024A3B2E85C013410B1FFF7C2FFF8E738BD52
:40F60000A28DFF1F0A4B10221A600A4A9179D379994207D0917990798B4298BF6433181AC0B200E00020044B10221A60704700BF80E100E0A28DFF1F00E100E0064B074A4C
:40F640001B7803F0100303F0FF0113B10123137000E01170FFF70CBF9C640040AB8DFF1F2DE9F0431D491E4C0A4625461D4E1E481E4FDFF880E0DFF880C03378DBB213F040
:40F680001E091EBF90F8008049EA080880F800809B061ED597F800800B785FFA88F8DBB20EF80380237813B101238CF8003013780133DBB213701378632B84BF00230B70EE
:40F6C0000B4B92F800801B789845D6D101232B70D3E7BDE8F043FCF70DBB00BFA58DFF1FA68DFF1F6C640040A28DFF1F4C640040A48DFF1F56FFFF1FA78DFF1F0E4AF0B5C9
:40F7000011460E4C0E480F4D0F4E137827789F4211D0037813F004030DD11778632F88BF13700B78DBB2EB5CDBB233700B780133DBB20B70E9E7F0BDA88DFF1FA98DFF1F65
:40F740006D640040BAFFFF1F4D64004010B5084C01F08AFD0121207801F056FE6078012101F052FEBDE81040002001F0A3BD00BFAC8DFF1F10B5054C207801F05BFE607899
:40F7800001F058FEBDE8104001F07ABDAC8DFF1F70B50E4601210546020C4FF48043084601F02AFD094C3146A27820700123104601F0C2FEA9B2A07845F6823201F0CEFE6E
:40F7C000A1782078BDE8704001F070BEAC8DFF1F70B50E4601210546020C4FF48043084601F026FD094C3146E27860700123104601F0A2FEA9B2E07845F6823201F0AEFEF1
:40F80000E1786078BDE8704001F050BEAC8DFF1F10B501F075FD022001F03EFD042001F061FD01F06FFE084CA07001F06BFEE070064C2C212046FFF7ABFF04F12C000421AC
:40F84000BDE81040FFF7C4BFAC8DFF1F8A83030010B5054C23791BB9FFF7DAFF01232371BDE81040FFF772BFAC8DFF1F08B5064B064A1B78C3F380031370FFF77BFFBDE871
:40F88000084001F053BD00BFA8430040B18DFF1F084A137843F060031370A2F5A652133A137843F004031370137C43F004031374704700BF77580040084B09491A7802F0A1
:40F8C000FB021A700A7802F0FB020A701B7823B9044A137803F09F0313707047A4430040B443004077580040054B00F003001A7802F0FC021A701A7810431870704700BFE0
:40F900005C5800400320FFF7EFBF000008B5054B1A781AB901221A70FFF7F4FFBDE80840FFF7B6BFB28DFF1F064B074A1B7803F0040303F0FF011BB101231370FFF7BCBF49
:40F9400011707047A4430040B38DFF1F014B1870704700BF76650040014B1870704700BF7D640040024B1878C0F3C100704700BF21510040074A4FF40023136002F68832A5
:40F9800012686021C2F88C00034A1170A2F213321360704780E100E013E400E0074A0223136002F68832126840215064044A11706FF440710A441360704700BF80E100E098
:40F9C00001E400E0014B1870704700BF78640040024A137843F080031370704775650040024A137803F07F031370704775650040014B1878704700BF75650040014B18602B
:40FA0000704700BF24650040024B1B78024B1868704700BF0465004044650040034A044913781B0701D50B68FAE7704767640040446500400A4A08B50123136042F8203C78
:40FA400002F02EFE074A137843F01003137002F02BFEFFF7E3FF044B00221A7008BD00BF24650040976400408764004010B5054C23781BB9FFF7DEFF01232370BDE810401E
:40FA8000FFF7A6BFB48DFF1F10B5FFF7BDFF044C044B60601B782372FFF7AAFF607210BDB88DFF1F8764004008B5074B1B7813F0800F064B14BF012200221A70FFF790FF16
:40FAC000BDE80840FFF7E0BF75650040B88DFF1F014B1870704700BF78650040024B1A78024B1A70704700BF78650040C48DFF1FFFF7F4BF014B1870704700BF7A650040D6
:40FB0000024B1A78024B1A70704700BF7A650040C58DFF1FFFF7F4BF10B502F0CBFC02F069FD50B9012002F04BFD072814BF4FF0FF34072402F07EFD00E00424204610BDE0
:40FB400070470000F8B5124C0746237899071AD423789B0815D12378DA0712D50D4B1D461E78F6B22378DB0703D4012001F0BCFFF8E72B78012EDBB218BF5B423B8000241B
:40FB800002E0072402E0102402F054FD2046F8BD224700402047004010B502F081FD214A044613780A2043F001031370137C43F00103137412F80A3C43F0010302F80A3C07
:40FBC000937943F00103937102F5AA521832137843F003031370144B18221A7013F8012C42F0400203F8012C13F8012C02F0FC0203F8012CC82203F8062CA3F59753022236
:40FC0000123B1A70094A137843F00803137001F06BFF074B04222046BDE810401A6002F043BD00BFAB43004006590040275B004080E200E008B502F033FD0F4A137803F06E
:40FC4000FE031370A2F5AA52153A137803F0FE031370137C03F0FE03137412F80A3C03F0FE0302F80A3C937903F0FE039371BDE8084002F019BD00BF00590040082804D079
:40FC80000A280CBF8223C22300E0422308380E4AC0B20428137098BF0C4B4FF0000298BF33F910100A4B88BF11461A8042F210734B4341F2883103F6C41393FBF1F30549DF
:40FCC0000B60054B1A80704702590040BA83030028000020200000202400002008B5102001F06AFB0721022002F01CF80749022002F00AF8064A0C20137843F00603137092
:40FD0000FFF7BCFF034B00221A8008BDD1FD0000015900402600002010B5054C23781BB9FFF7DCFF01232370BDE81040FFF734BFC68DFF1F024A137843F0010313707047F1
:40FD40000059004010B5084B1C7814F0010403D10028F9D0002404E0204601F0C5FE024B1B78204610BD00BF01590040034A044B1B881088181A00B2704700BF240000206D
:40FD8000A05B00400E4A38B513881BB223B114880A2324B25C4301E00A4B1C680A4B1B88C01A00B20DF0A2FD08490DF0F3FD054620460DF09BFD014628460DF09FFE38BDA7
:40FDC0002800002020000020260000200000204170470000084B094A1B7813F0010308D0074B1B78DB074CBF032301231370FFF721BF1370704700BFAB430040C78DFF1FF7
:40FE000000590040044A8001137800F0400003F0BF0303431370704740510040044AC000137800F0080003F0F703034313707047F0510040044A8001137800F0400003F09D
:40FE4000BF030343137070470051004010B50024E0B20134FEF77AFB062CF9D1014BFF221A7010BD0E8BFF1F38B5064B054618781C46FF2801D0FEF769FB2846FEF74AFBAA
:40FE8000257038BD0E8BFF1F014B1870704700BF73640040024B1A78024B1A70704700BF73640040C88DFF1FFFF7F4BF024B1878C0F38010704700BFC1510040024B18787C
:40FEC000C0F38010704700BF8C450040074A4FF40063136002F688321268E021D066044A1170A2F20B321360704700BF80E100E00BE400E0024B4FF400621A60704700BFF0
:40FF000000E100E0024B4FF400621A60704700BF80E200E0F8B502F0C3FB3C4A01271378022643F001031370137C394C43F001031374384B02F5E3521F700B3203F8946C1C
:40FF40001378054603F07F031370002001F0CCFD2378314A03F0F90323701378384603F0DF03137023783B43237001F0BDFD282001F0BAFD294B30461A7802F07F021A7020
:40FF80001A7802F0BF021A7023783343237001F0ABFD2378224A43F004032370002313702846537002F080FB0721172001F0BAFE1C49172001F0A8FE0721182001F0B2FEE1
:40FFC0001949182001F0A0FE0721152001F0AAFE1649152001F098FE0721052001F0A2FE1349052001F090FE0721062001F09AFE1049062001F088FE07210C2001F092FE47
:020000040001F9
:40000000BDE8F8400C490C2001F07EBEA5430040944300409D60004012600040F8510040846000401B0701007D05010019070100BD060100E90601001509010008B51D4B9B
:4000400001221A701C4B1D4A1870002313701C4A13701C4A13701C4A13701C4A13701C4A13701C4A13701C4B4FF400021A604FF080721A604FF400121A6020221A604022A3
:400080001A60164B29B1012903D11A7842F0010202E01A7802F0FE021A70114B03221A70802203F8202C012002F0F2FA0D4B04221A7008BDBC000020B0000020AF0000209B
:4000C000AD000020B50000209C000020B1000020AE000020B700002000E100E009600040286000401260004070B5074C054623780E461BB9FFF70EFF012323703146284623
:40010000BDE87040FFF79ABFC98DFF1F0C4B01221A700C4A002313700B4A13700B4A13700B4A13700B4A13700B4A13700B4A13700B4B03221A70802203F8202C704700BF33
:40014000BC000020AF000020AD000020B50000209C000020B1000020AE000020B700002028600040014B1878704700BFB5000020044B1A7802F0FF001AB118780022C0B250
:400180001A707047AD000020024A0C2303FB0020407870472E000020431E072B0CD8074A064B00010344805C5B7800F00F0043EA0020023880B2704700207047FC5F0040EA
:4001C000431E072BF0B531D8194B0C2505FB0035EC88184FA4B2C4F50074A2424FF00C0404FB003488BFEA88E67884BFC2F5007292B2104C46EA12260501EE552C44D6B264
:40020000667041B90C2202FB0030002343704379DBB2A370F0BD0E46074F2F44751AADB2AA42EFD916F8015B3D72F7E7F0BD00BF2E000020FC5F004070600040431E072B06
:400240000AD8064A0C2303FB002300225A705A79034BD2B200011A54704700BF2E000020FE5F004038B505461446D1B1431E072B19D8FFF791FFA04203D22846FFF78CFFD7
:4002800004460A4609482B011844531A9BB29C4203D9037A02F8013BF7E72846FFF7CEFF02E00C4600E00024204638BD7060004030B51A4A1A491B4D0878138803449BB22F
:4002C0001380194A00231488D8B2A4B27CB1082B0CD050680078C0B2E85450680133013050601088013880B21080ECE718460B780E4C082B0E4A00D040B10E4D2B7883F024
:4003000080032B700F232370022301E0022323701370094B1870087030BD00BF9A000020B700002000600040A0000020B6000020AF000020B3000020B2000020074B0222E8
:400340001A70074B80221A70064B0F221A70064A00231370054A012013707047AF000020B3000020B6000020B7000020B200002030B5164B16491B780A8803F00F03023B9C
:40038000DBB21A4492B20A80124C134A0020118889B279B173B15568215C013BC9B229705168DBB20131516011880130013989B21180ECE7094A1370094A137883F0800387
:4003C0001370084B0B221A7030BD00BF296000409A00002000600040A0000020B2000020B3000020B6000020064A06231370064A01201370054B80221A70054B00221A70FE
:40040000704700BFAF000020B6000020B3000020B2000020054B9A683AB19A68044910709A680988518000229A607047A00000209A00002008B5124B1A78D2B21A701B78F2
:40044000DBB21A0602D50F4A137008BD0220FFF7E1FF0D4B1B7803F06003202B05D0402B06D043B900F0E6FC04E002F021F901E000F018FE10B9034B03221A7008BD00BFCE
:4004800028600040B60000200060004008B5084A084B0120197813880B449BB21380064B00221A70FFF7B6FF044B03221A7008BD9A000020B7000020AF000020B60000207F
:4004C00008B50C4B1B78DBB2042B07D0062B09D0022B0DD1BDE80840FFF7D8BFBDE80840FFF746BF0320FFF795FF034B03221A7008BD00BFAF000020B600002008B5054B6B
:40050000002201201A70FFF785FF034B03221A7008BD00BFAF000020B600002008B50A4B1A7832B11A78094942F080020A7000221A70074B002201201A70FFF76BFF054B3A
:4005400003221A7008BD00BFB100002008600040AF000020B6000020074B1B78DBB2042B05D0062B05D0022B05D1FFF7A1BEFFF7C5BFFFF7D3BF7047AF00002038B51D4C78
:400580002378DBB2DD0634D518060AD503F00F03012B2ED1FFF74EFF174B1B78190609D538BD5A0602D5FFF7D7FF03E09D0620D5FFF786FF23781B061BD4104B1A78104BE4
:4005C0001B7813430F4A13701278934211D10A4A0849154613782078DBB2000605D41378DBB20B700B7803F00F0328788342F1D138BD38BD28600040B6000020B3000020C9
:40060000B200002029600040054A00231380054A916819B191680B7092685380704700BF9A000020A00000200E4808B503889BB213B9FFF783FE13E00B4B02221A700B4B5C
:4006400000221A70FFF7E0FF094AD1799379028843EA012392B2934238BF0380FFF728FE012008BDA0000020AF000020B30000200060004008B50C4B04221A700B4B802222
:400680001A70FFF7C1FF0A4A0120D179937943EA012308490A8892B2934238BF0B80064B0B221A7008BD00BFAF000020B300002000600040A0000020B6000020084B012286
:4006C0001A700F3B9B7C074B1A7B02F00302012A1EBFDA7B82F08002DA7301225A7370470B6000402E000020094B02221A700F3B93F82230074B1A7E02F00302012A1EBFE1
:40070000DA7E82F08002DA7601225A76704700BF0B6000402E0000207047FFF7F7BC000008B50B4B18780138C0B200F09BF9094B09491B79DBB200EBC3004269CB5C02EB55
:40074000C3035B68054A596A0B781380516008BDB500002000600040AC000020A000002008B50D4B18780138C0B200F07BF90B4B0B491B79DBB200EBC3004269CB5C02EB65
:40078000C3035B68DB69597813F8022B42EA012204490A804B6008BDB500002000600040AC000020A000002038B5174C00232380164B18780138C0B200F054F9144AD37834
:4007C0001179DBB2F1B913490978CDB2591E022918D8416903F1005301EBC5014968013B927801EBC30011F83330D2B2934209D30C2353434168CA185068CB5A60602380D0
:400800009368A36038BD00BFA0000020B500002000600040AC00002010B5394B1A791978D2B211F0800F194632D05B78013B052B63D8DFE803F0101826626203CB78212B4B
:4008400002D1FFF76DFF08E02D4BDB78222B54D1FFF786FF01E0FFF7A7FF2A4B1B889BB2002B4AD009E0002A47D18B78002B44D1244B01221A80244A5A60BDE81040FFF7CF
:40088000D3BE002A39D11F4B01221A801F4AF3E75978C9B20A290DD00B2922D009292CD1FFF782FF174B1B889BB233B3BDE81040FFF7E0BE0ABB9A7802F0FF01EAB9DB7861
:4008C000114ADBB21370124B14781878844201D219700EE0197801290BD91278D2B21A7007E052B99A78012A07D89B78074ADBB21370BDE81040FFF777BD002010BD00BF80
:4009000000600040A0000020BD000020BC000020BE00002000F05ABD2DE9F04101F0C0FEDFF8BC80074698F80030274D13F0800F3AD00126254A2E701378254C03F07F03EE
:400940001370002001F0D0F82378002003F0F903237098F8003003F07F0388F8003001F0C3F81C4B30461A7832406A701A7802F0FE021A7001F0B8F82378174A03F0FE03F3
:4009800023701378304643F020031370A2F5E3520D3A137803F0FE031370137C03F0FE03137401F0A1F801E000232B70384601F07BFE00F00BFD094A4FF480531360A2F52F
:4009C000C0721360BDE8F081CA8DFF1F1060004094430040096000401260004080E200E0086000402DE9F0411A4D01222E460C2080274FF0080E184B00FB025C1401234416
:400A0000187016499CF805802144B8F1000F07D09CF8044024064CBF887081F802E000E08F7000FB0261CC880132E4B29C71CC88092AC4F30724DC71CC88E4B21C71C9887D
:400A4000C1F307215971D6D1054BFF221A70BDE8F08100BF2E00002070600040FC5F00400A600040064B074A1B7802EBC30253681A7C824286BF03EBC0035869002070472C
:400A8000B0000020108403002DE9F84F424B1A78002A7ED01878414D0138C0B2FFF7E2FFA8463F4AC3681478007ADFF800C1E4B203EBC0000C2600274FF0010E834268D013
:400AC0001A78A24263D11CF80420597891425ED19A7893F8039002F07F0206FB02FA05EB0A01CF7093F802B009F0030981F804B093F803B005F80AB0B3F804A0A1F808A073
:400B000093F902A0BAF1000F0BDAB9F1010F0CBF4FF007094FF00D0981F8059081F801E009E0B9F1010F0CBF4FF005094FF0090981F805904F704FEA02191A4906FB028242
:400B4000494481F802E0B2F808A0CAF3072A81F800A0B2F808A05FFA8AFA81F801A0B2F806A011495FFA8AFA494481F806A0B2F80690C9F3072981F80790B2F806905FFAE3
:400B800089F981F80490D288C2F307224A71083394E7BDE8F88F00BFB50000202E0000209C000020FC5F004070600040AC00002008B5064B18780138C0B2FFF753FF20B15A
:400BC00043681B7900EBC300406908BDB500002000212DE9F84F0B464C4E0C2707FB01F501317219092973554FF000049370474DD3701381937253705371EFD118B1444B25
:400C00001C70444B1C70444B1A78002A7BD0187801240138C0B2FFF725FFA0464368DFF8F0E0DB790C2713F0400F3C4B4FF0000C1A7814BF42F0010202F0FE021A70027A88
:400C4000D20007FB0451C36803EB02094B4531D093F802A00AF07F06A64229D10E89B3F804B0B6B25E4538BFA1F808B01E7893F801B01EF80660B3451AD181F804A0DE781B
:400C80000E7093F902A0DE78BAF1000F06F0030607DA012E0CBF07260D264E7181F8018006E0012E0CBF052609264E7181F801C00833CBE70134092CC3D1C1680A328B1C5B
:400CC0000A440C200833934209D013F8081C13F80A4C01F07F0100FB01518C72F2E7FFF767FF0F4B0122186000230C2000FB0251CB80098901320B44092A9BB2F6D1BDE833
:400D0000F84FFFF76FBEBDE8F88F00BF2E000020AC000020B4000020B5000020AE000020B8000020114B1B7903F07F035A1E072A19D80F490C2202FB031291781B0141F008
:400D4000010191700021D170517841F002015170127912F0800F074A1A4414BF8D2389239370FFF741BB0020704700BF006000402E000020FC5F004030B4194B1A7902F075
:400D80007F02531E072B27D8164B0C2404FB02339978154D01F0FE0199700021D97029461201505D114400F07F0050555A7802F0FD025A701A795B78120605D5012B01D1FA
:400DC0008C7006E00D2303E0012B0CBF082309238B7030BCFFF708BB002030BC704700BF006000402E000020FC5F004010B50D4B0D4C21791878C9B20138C0B2FFF732FE19
:400E000043681B798B4201D2012909D8074A0848535CDBB24354A3780120DBB2535410BD002010BDB500002000600040AC000020B400002038B5894A894913780020DBB24B
:400E40000880180640F18C8050780A2800F20481DFE810F05B00020102010201020102010B0002017C0002018000D3787B48012B09D17C4B1A787C4B03EBC2035B685B6873
:400E80004B60122310E0C378022B12D18078FFF7E9FD002800F0E08043684B604B68DA784B689B7843EA02230B80BDE83840FFF7BBBBC378032B24D16C4B00228478D5B28A
:400EC000A54210D3654A9078694AEE2808BF1346624A907870B1674C9078247C664A844208BF134606E01C780132002CEAD01C782344E3E71A78002A00F0AE801A780A8074
:400F000018E0BDE8384001F0D3BB13F0030313D0022B40F0A1800B80504B0C201B7903F07F02564B00FB02339A78554BD2B21A7000225A704B60B8E702220A80514A1078C1
:400F40004F4AC0B2107053704A60AEE701230B804D4BEFE701230B8013794C4A1344E9E7517801390A2977D8DFE801F037764F76067676760A7620009378454ADBB25AE0B7
:400F8000937803F0FF0153B93F4B1A7891425FD01970404B01201870FFF71AFE58E0481EC0B2FFF75FFD0028EED155E0FFF71EFF002851D0294A384913791279DBB2D2B248
:400FC0000A70364A3149D25CCB5C9A4240D0314B01221A70FFF758FD3AE003F00303012B2BD009D3022B37D11C4B9B78002B33D1BDE83840FFF7C0BE184B9B78012B2BD1A5
:40100000204A137803F0FD0315E003F00303012B13D008D3022B1FD1104B9B78E3B9BDE83840FFF77FBE0D4B9B78012B14D1154A137843F0020313700AE0084B1A795AB975
:4010400098781B791649DBB2CA5C22EA0002CA54BDE83840FFF7C8B9002038BD00600040A0000020B000002010840300DE840300FC83030038850300D48403002E000020CE
:40108000CC8DFF1FAE000020B5000020AC000020B1000020AD0000209C000020B40000202C000020074B1A78120609D55B78012B06D1054B054A5A6012781A80FFF7B4BA3F
:4010C0000020704700600040A0000020D4830300014B1870704700BF72640040024B1A78024B1A70704700BF72640040CE8DFF1FFFF7F4BF024A137843F0800313707047D4
:4011000070640040014B1870704700BF0B640040024B1B78024B1878704700BF0B6400404B640040034A044913785B0601D50B78FAE77047646400404B64004008B5114B4A
:401140001A7802F0F8021A701A7802F0FC021A70FFF7E8FF0C4A80230021137002F8203C82F8591039321278084A137001F098FA074A137843F010031370BDE8084001F0D8
:4011800093BA00BF706400402B6400403B6400409464004010B5054C23781BB9FFF7CEFF01232370BDE81040FFF7A4BFCF8DFF1F034B044A1B78C3F30013137001F0B8BA84
:4011C000996500400F8BFF1F044A137843F010031370137C43F0100313747047A2430040044A137803F0EF031370137C03F0EF0313747047A243004073B515461E460B4CC9
:401200000023019300930A4601461846237000F059F932462946207800F030F90221207800F01AF9207802B070BD00BF118BFF1FF7B516461F460B4C002301250193009320
:401240000A4601462846257000F03CF93A463146207800F013F90221207800F0FDF8207803B0F0BD128BFF1F044A137843F004031370137C43F0040313747047A843004009
:40128000044A137803F0FB031370137C03F0FB0313747047A8430040054B00F002001A7802F0FD021A701A7810431870704700BF28580040014B1870704700BF825B00409F
:4012C000064B074A1B78C3F3810303F19243063393F82831DBB21370704700BF285800400A460040054B00F00C001A7802F0F3021A701A7810431870FFF7E2BF28580040B0
:4013000008B5084B0020084A18705870137843F008031370FFF7E6FFBDE808400220FFF7BBBF00BF28580040975A0040044B1B789B065FBF034B1A78034B5A70704700BF76
:4013400029580040825B0040D08DFF1F08B5094B094A1B7803F0040303F0FF0113B10123137000E01170FFF78BFFBDE80840FFF7DDBF00BFA8430040D08DFF1F064A042389
:40138000136002F688321268E0219064034A1170A2F202321360704780E100E002E400E0014B04221A60704700E100E0014B04221A60704780E100E0034A00F0F8001378CA
:4013C00003431370704700BF02410040024B1878C0F38010704700BF8F450040074A7F23802113705170064A013BDBB202F80839002BF9D1034A1370704700BF148BFF1F5D
:40140000F87B00400078004017280FD8084B0001C25C11B142F0200201E002F0DF02C254C25C42F00102C25400207047012070471070004017280BD8064B0001C25C02F06D
:40144000FE02C254C25C02F0DF02C25400207047012070471070004017280BD8064A0001835C490003F0F10301F00E011943815400207047012070471070004041F6FF7315
:40148000994208BF4FF400519A4208BF4FF4005217289FBFC00000F1804000F5EC4081809ABFC280002001207047000017289FBF034B00011954002088BF0120704700BFA4
:4014C00019700040172810B51AD8C00001F07F0100F1804441EAC21204F5EC44D2B222709DF8082003F00F0343EA0213DBB263709DF80C30002003F00F03A370E07010BD7F
:40150000012010BD10B501F0CBF80A4A5378182B0AD91478013B5370E30003F1804303F5F0431B78137000E0FF2401F0BDF8204610BD00BF148BFF1F30B504060CD411F46D
:40154000704509D1C40004F1804404F5F0442180A270E370284630BD012030BD03065FBFC00000F1804000F5F04081805ABFC280002001207047000038B500F09BFF01F04A
:4015800039F8C0B901F070F80728044610D10B4D2A780A4B910703D4012000F0A5FAF7E71A78920704D51B789B0814BF0724002401F040F800E00424204638BD22470040F1
:4015C00070B5FFF7D9FF044610BB00F073FF01F011F8E0B9012000F0F3FF07280AD10D4D02210D4800F078FF02280A4E05D02B789B07F5D54FF0FF3406E033789A0703D4C7
:40160000012000F071FAF8E701F014F800E00424204670BD22470040BF00002010B5044601F03EF80F2C06D8164A137803F01F0343F0400320E0202C06D8124A137803F066
:401640001F0343F0800317E0312C06D80D4A137803F01F0343F0C0030EE0422C04D8094A137803F01F0307E0532C06D8054A137803F01F0343F020031370BDE8104001F056
:4016800013B800BF0048004008B501F009F80F4A137843F008031370137C43F0080313740B4BC8221A700B4A137843F010031370137C43F01003137402F5557213789B06B7
:4016C000FCD5BDE8084000F0EFBF00BFA043004001470040AC43004008B500F0E1FF064A137803F0EF031370137C03F0EF031374BDE8084000F0D8BFAC430040044B1A78A6
:4017000042F001021A701A789207FCD5704700BF02470040024A137803F0FE031370704702470040204B1A78510703D11F4A1278D20731D41B7803F00703012B05D11C4B6E
:401740001B7813F0010327D100E0002308282AD8DFE800F00507090B0D0F11291600154B0AE0154B08E0154B06E0154B04E0154B02E0154B00E0154B1B78154ADBB209E0F9
:40178000144A13491278D2B20A7063B1124A137843F00203137070470F4A137803F0FD0313700123D2E7704793430040A5430040B543004008010049090100490A0100491D
:4017C0000B010049890100490C0100490D010049A14600400F010049096000400B4A137803F0F00313700A4B00221A70094A137843F080031370084BC2B21A70000A074ADE
:401800005870137843F00103137070471440004010400040084000400240004001400040024A137803F0FE031370704720420040012808D014D3022817D14FF04022137868
:4018400003F0BF0304E04FF04022137843F04003137092F8003243F0200382F800327047024A137803F0DF031370704700420040024A137843F010031370704700420040F4
:40188000024A137803F0EF031370704700420040F8B5314C08282578064605F0070514BF07460327062D08D8DFE805F00607040A07070700032500E00225BD4204D800E039
:4018C00000253046FFF72EFF082E36D8DFE806F0050B11151B2127352E00237803F0B80343F0030320E0237803F0B80343F001031AE0237803F0B80316E0237803F0B803A9
:4019000043F0020310E0237803F0B80343F004030AE0237803F0B80343F0050304E0237803F0B80343F00603237011E0237803F0B80343F04203237001E0082E08D1FFF767
:4019400097FFAF4207D23046BDE8F840FFF7EABEFFF796FFF5E7F8BD00420040044A00F00300137803F0FC0318431070704700BF05400040014B1870704700BF0440004016
:4019800070B5044600F08CFE164B06461A78013B1B78D2B2DBB214B153EA02231AD1124B124D1978C9B206299CBF07221A703CB92B78204643F040032B70FFF70FFF06E00F
:4019C0002046FFF70BFF2B7803F0BF032B70064B197002E02046FFF701FF3046BDE8704000F062BE074000400440004008400040024A137843F0020313707047004300403C
:401A0000024A137843F004031370704700430040024A137803F0FB031370704700430040F8B5124A137843F010031370137C43F010031374C0B10E4B0E4D1C7893F8807066
:401A40002E7804F004040020E4B2FFB2F6B200F009FD012000F0EEFCC307FAD50CB9FFF7D7FF054B1F702E70F8BD00BFA0430040004300408243004080430040064A137820
:401A8000DBB210B143F0100101E003F0EF011170C3F30010704700BF00430040024A137803F0FE031370704710420040024A137843F0010313707047F646004038B50446FE
:401AC000084DB4F5004F05D9286800F0E1FDA4F50044F6E7034B58686043BDE8384000F0D7BD00BF1C8BFF1F024B1B7A584300F0CFBD00BF1C8BFF1F38B5054600F0D0FD5B
:401B0000064A074B1C7813781C4324EA0505157000F0CAFD04F0070038BD00BFD48DFF1FFA4600402DE9F8438946804600F0B8FD194B0126194C1D68C3F880602378184AEB
:401B400003F0BF032370137809F00F0103F0F0031943117053780746334353703046FFF7C3FF3046FFF7C8FF05F001052378B8F1000F02D043F0400301E003F0BF03237055
:401B8000084B01221A60A3F5C0731D603846BDE8F84300F089BD00BF00E100E0F7460040F446004080E200E02DE9F0418846074600F076FD184B194C064601201D68C3F866
:401BC00080002378164A03F07F032370137805F0010503F00F0343EA0811C9B21170537843F002035370FFF77FFF0220FFF784FF237817B143F0800301E003F07F032370BE
:401C0000084B01221A60A3F5C0731D603046BDE8F04100F049BD00BF00E100E0F7460040F446004080E200E008B5094A0120137803F0FE031370937803F0BF039370FFF785
:401C40005BFF0120FFF758FFC307FAD408BD00BFF546004008B5074A137803F0FD031370937803F07F0393700220FFF745FF8307FAD408BDF5460040F8B500F011FD074687
:401C80000F4E104B104A012534681D601378284603F07F03137012F8023C04F0010443F0040302F8023CFFF71FFF0420FFF724FF064B38461D603460BDE8F84000F0F4BC81
:401CC00000E100E080E100E0F746004080E200E008B5054A137803F0FB0313700420FFF70BFF4307FAD408BDF546004010B500F0D7FC044B4FF0FF321C681A6000F0D4FC97
:401D0000204610BD80E100E0054A00F01F00126800F1100352F8230042F82310704700BF08ED00E000F01F0000F16040490100F56440C9B2017070472DE9F04FDFF8A4B187
:401D4000514B9BF80020DFF8A0A19A729AF80020DFF89891DA724D4ADFF894811278DFF894C11A734A4ADFF890E11278494F5A73494A4A4E12784A4D9A734A4A4A4C127854
:401D80004A48DA734A4A4149127801311A74494A12785A74484A12789A74484A1278DA74474A12781A75474A12785A75464A12789A75464A1278DA75454A12781A76454AFF
:401DC00012785A76444A12789A76444A1278DA7699F800201A7798F800205A779CF800209A779EF80020DA773A7883F82020327883F821202A7883F82220227883F82320E0
:401E0000027883F82420364A127883F8252000228BF800208AF8002001F8012C0A708A700A718A710A738A73CA730A748A740A758A750A778A77CA7781F8202089F800205A
:401E400088F800208CF800208EF800203A7032702A702270027081F836201E31A1F5B8510A7802F0080202F0FF0042B1012283F82F200B7803F0F7030B70BDE8F08F83F8F8
:401E80002F00BDE8F08F00BFF08DFF1F035A0040045A0040325A0040065A0040335A0040345A0040085A0040365A0040385A00400A5A0040105A0040125A0040135A004048
:401EC000145A0040165A0040185A00401A5A0040205A0040225A0040235A0040245A00403A5A0040005A0040025A0040265A0040285A00402A5A0040305A00402D4B2E4A23
:401F0000997A183202F8181CD97A02F8161C197B02F8151C597B02F8141C997B02F8121CD97B02F8101C197C02F80E1C597C02F8081C997C02F8061CD97C02F8051C197D41
:401F400002F8041C597D02F8021C997D1170D97D9170197E1172597E9172997ED172D97E1173197F9173597F1174997F9174D97F117693F82010917693F82110D17693F8FD
:401F80002210117793F82310917793F8241082F8201093F8251082F8221093F82F302232012B06D1A2F5B852183A137843F0080313707047F08DFF1F005A004010B56A4AE7
:401FC0006A4C1378372003F00F0384F83030684B197884F83110117801F0F00111701A7800221A7003F25E431B7803F0C00384F83530FFF713FB5F4B1A7802F0070284F8C6
:4020000033201A7802F0400284F834201B7803F0100303F0FF021BB1012384F8393001E084F83920544B1B7803F00303012B84F8323010D14FF040231B7803F00303012B2F
:4020400006D003D3022B06D1032002E0002000E00220FFF783FC494B1B7813F0010305D0012384F83E30FFF7DBFB01E084F83E300420FFF70DFC424B1B7803F0100303F030
:40208000FF001BB1012384F8363006E084F83600FFF7C6FC0620FFF727FD364B1B7803F0200303F0FF026BB14FF040231B78002013F0400F0CBF0223012384F83730FFF7F1
:4020C000B7FB01E084F837204FF04022137803F0300384F838301BB1137803F0CF031370244B1B78DB0601D5FFF7CAFB254B1B78DBB284F83A3013B10020FFF73BFC94F81E
:40210000323013B10020FFF729FC1F4B1B781A021E4BA2871B781343A38713B10020FFF72FFC144B1A4A1B7803F00703D05CFFF775FA184B1B7813F0010305D0012384F825
:402140003F30FFF7ABFC01E084F83F30124B1B7803F0040303F0FF021BB1012384F8403010BD84F8402010BDA1430040F08DFF1FA2430040004200400540004020420040CA
:40218000A0430040044000400740004006400040C4830300104200400B4000402DE9F74F064600F07DFA924D00902B78190700F11981904C0120237803F01F0323708E4B1F
:4021C0001A78520742BF1A7802F0FB021A70FFF755FC8A4B8A4918700A789B46C2F340025A700A7801F28331C2F380029A70227802F0100202F0FF002AB9D8700A7842F075
:4022000010020A7001E00122DA707E4F3A7812F0010211D001228BF826207B4A127802F00F028BF82720794A1278C2F380128BF82B20FFF7F9FC01E08BF826203A7802F0BC
:40224000020202F0FF017AB101228BF828206E4A127812098BF829206C4A1278D2098BF82C20FFF7F7FC01E08BF828103A7802F0040202F0FF012AB101228BF82A20FFF75A
:4022800027FD01E08BF82A10DFF894A1FFF754FD9AF80020DFF88C918BF8072099F80020DFF884818BF8082098F80020B0208BF80920574FFF228AF8002089F8000088F8EB
:4022C00000203A78534B8BF80420320902F00402D2B23A701A78504806F00F068BF805201E7002784FF0000C8BF806204B4A80F800C01678414916F0070F01901E4603D1C3
:40230000012281F82E200AE081F82EC0107800F0070081F82D00117801F0F80111702A7802F0F80242F004022A702A7800BF00BF30BF9BF82E20012A08D03848027802F00A
:40234000F8012E4A92F82D200A4302709BF826102A4A012905D192F8271092F82B00FFF7E1FB9BF82810254A012905D192F8291092F82C00FFF718FC9BF82A20012A01D13A
:40238000FFF77AFCFFF7BAFD9BF80120012A01D1FFF72EFB9BF80220012A01D1FFF730FB9BF80000FFF76AFB9BF803201AB9227802F0EF0222709BF807208AF800209BF8EC
:4023C000082089F800209BF8092088F800209BF804203A709BF8052032709BF80630019A1370009803B0BDE8F04F00F05DB900BF934300408346004031430040F08DFF1FB4
:4024000000430040F5460040F4460040F746004098430040994300409A4300400042004085460040864600408A4600404020FFF7B5BE000038B5054600F032F9074A084BEA
:402440001C7892F842301C4324EA050582F8425000F02AF904F0070038BD00BFF08DFF1F9043004038B5114C0546237803F0FD032370FFF7C5FA237813F0010F0C4B0CD08D
:402480001A78AA4211D0227802F0FE0222701D70237843F00103237038BD19788D4218BF1D70237843F00103237038BD824300408043004008B500F0F3F8064A137843F0EC
:4024C00008031370137C43F008031374BDE8084000F0EAB8A04300402DE9F0410E464B1E0A4FDFF82C80451EC418A5420BD03B78DB0703D40120FFF7F7FAF8E798F8003064
:4025000005F8013FF1E73046BDE8F08122470040204700403E2870B501D81F2B02E03F2823D00F2B21D8144D2C78A6071FD5134CB6262670D4262670012626702D78AD0770
:4025400017D42070C1F3002020701046C9B22170591EC9B22170811AC9B28B4203D910F8011B2170F7E7072070BD012070BD042070BD092070BD00BF2247004020470040ED
:4025800070B50D4D2C78A60712D50C4CB6262670D8262670052626702D78AD070AD42070080AC9B22070217022702370072070BD042070BD092070BD224700402047004060
:4025C0000A4A137899070CD5094BB6211970E12119700E2119701278920704D4187007207047042070470920704700BF224700402047004038B500F053F80C4A147874B922
:4026000001250B4915700B682B400AD00B6823F001030B6000BF00BF00BF556002E0042400E01C4600F040F8204638BD348EFF1F0400084010B500F033F8094B00215A68EA
:402640001970012A08D1074C226842F00102226000BF00BF00BF5960BDE8104000F024B8348EFF1F04000840074B1B789B0708D5064BB6221A70E0221A700D221A700720D3
:4026800070470420704700BF22470040204700400230800803D000BF01380046FCD17047EFF3108072B6704780F31088704700BF0F4A137803F00303012B0AD0022B0DD16A
:4026C00013790C2103F07F020A4B01FB02339B7A00E01379DBB2012B08D800E00023064A1268D35C032B01D1FEF796B800207047006000402E000020B800002008B5FFF77E
:40270000CFFF0A4A137843F02003137092F8003143F0100382F8003192F8023143F0100382F80231BDE80840FFF7BEBF9964004008B5FFF7B5FF064A137803F0EF03137070
:40274000937803F0EF039370BDE80840FFF7ACBF99650040014B1878704700BF69650040034A13785B07FCD5024B1870704700BF696500404A650040014B1878704700BFD5
:402780005A65004008B50B4A0B4913789B0601D50B78FAE7FFF784FF084B1A7842F001021A701A7802F0FE021A70BDE80840FFF77BBF00BF6B6500405A6500409A650040F9
:4027C00008B5074B0F221A70FFF7DCFF054B064A1B78064B1B7800231370937008BD00BF8964004069650040896500406B65004010B5054C23781BB9FFF7E2FF012323706E
:40280000BDE81040FFF77ABF3C8EFF1F80B483B000AF02460B46FA807B7148F64063C1F6FF73FA881A807B79002B07D148F64263C1F6FF734FF001021A7005E048F64263BA
:40284000C1F6FF737A791A7007F10C07BD4680BC704700BF80B483B000AF786013460A467A807B7048F64863C1F6FF737A681A607B6803F102031B781A467B6803F103035C
:402880001B784FEA03239BB213449AB248F64C63C1F6FF731A807B6803F104031B781A467B6803F105031B784FEA03239BB213449AB248F64E63C1F6FF731A807B6803F16B
:4028C00006031B781A4648F65063C1F6FF731A8048F64463C1F6FF737A881A8048F64663C1F6FF737A781A7048F66C63C1F6FF734FF001021A7040F25513C2F200034FF060
:4029000000021A7007F10C07BD4680BC704700BF80B483B000AFF871B980FA70BB7048F65463C1F6FF73FA791A7048F65263C1F6FF73BA881A8048F65563C1F6FF73FA785A
:402940001A7048F65663C1F6FF73BA781A7048F65863C1F6FF733A8A1A8048F65A63C1F6FF73BA8A1A8007F10C07BD4680BC704780B485B000AF13460246FA710A46BA71CF
:402980007B71FB794FEAD303FB71FB794FEAC323FB81BB794FEA9303BB71BB794FEA43139AB2FB8942EA03039BB2FB817B794FEAD3037B717A79FB8942EA0303FB81FB89D8
:4029C000184607F11407BD4680BC704780B485B000AFB9607A603B600346FB81FB894FEAD3239BB2DBB24FEAC303DAB2BB681A70FB894FEA53139BB2DBB24FEA8303DAB2F8
:402A00007B681A70FB89DBB24FEAC303DAB23B681A7007F11407BD4680BC704780B586B000AFF880B9807A803B807B88002B01D1FB884DE07A883B889A4201D1BB8847E04A
:402A4000F88807F1140107F1120207F11003FFF7BDFFB88807F1130107F1110207F10F03FFF7B4FF7B88FA7C11463A7DC2EB010202FB03F23B8892FBF3F3DAB23B7D1344FC
:402A80007B757B887A7C1146BA7CC2EB010202FB03F23B8892FBF3F3DAB2BB7C1344BB757B88FA7B11463A7CC2EB010202FB03F23B8892FBF3F3DAB23B7C1344FB75797D21
:402AC000BA7DFB7D084611461A46FFF751FF0346184607F11807BD4680BD00BF80B483B000AF02460B46FA80BB8048F66463C1F6FF73FA881A8048F66663C1F6FF73BA88FF
:402B00001A8007F10C07BD4680BC704780B400AF48F66A63C1F6FF731B88DBB21846BD4680BC704780B582B000AF13460246FA800A46BA807B80B7F90630002B28DBB7F9E5
:402B4000062040F24E13C2F200031B889A4221DAB7F90430002B1FDBB7F9042040F24C13C2F200031B889A4218DA49F6FC63C1F6FF731B68F988BA8808461146984749F605
:402B8000BC63C1F6FF731B687A881046984706E000BF04E000BF02E000BF00E000BF07F10807BD4680BD00BF80B584B000AF13460246FA800A46BA807B80B7F90620B7F947
:402BC00004309A4205DDFB887B81BB88FB807B89BB80B7F90630002B03DA4FF00003FB8008E0B7F9062040F24E13C2F200031B889A4272DAB7F90430002B70DBB7F90420BB
:402C000040F24E13C2F200031B889A4208DB40F24E13C2F200031B8803F1FF339BB2BB804FF001037B734FE07B7BFB81FB8903F00103002B03D1FB89C3F10003FB81B7F99A
:402C40000E304FEA6303FB81B7F90220B7F90E301344002B31DBB7F90220B7F90E301A4440F24C13C2F200031B889A4227DA49F6FC63C1F6FF731B68F9887888FA89024433
:402C800092B2084611469847FB887B810FE049F6BC63C1F6FF731A6848F64063C1F6FF731B88184690477B8903F101037B817A89B7F904309A42EADD02E000BF00E000BF31
:402CC0007B7B03F101037B7348F64263C1F6FF731B787A7B9A42A7D902E000BF00E000BF07F11007BD4680BD80B584B000AF13460246FA800A46BA807B80B7F90620B7F93B
:402D000004309A4205DDFB887B81BB88FB807B89BB80B7F90630002B03DA4FF00003FB8008E0B7F9062040F24C13C2F200031B889A426BDAB7F90430002B69DBB7F9042089
:402D400040F24C13C2F200031B889A4208DB40F24C13C2F200031B8803F1FF339BB2BB804FF001037B7348E07B7BFB81FB8903F00103002B03D1FB89C3F10003FB81B7F964
:402D80000E304FEA6303FB81B7F90220B7F90E301344002B2ADBB7F90220B7F90E301A4440F24E13C2F200031B889A4220DAFB887B8115E07A88FB8913449BB219467A8992
:402DC00048F64063C1F6FF731B8809B212B2084611461A46FFF7A6FE7B8903F101037B817A89B7F904309A42E4DD02E000BF00E000BF7B7B03F101037B7348F64263C1F6D6
:402E0000FF731B787A7B9A42AED902E000BF00E000BF07F11007BD4680BD00BF80B588B000AFF880B9807A803B807A883B8810461946FFF753FEB7F90620B7F902309A4210
:402E40000BD1B7F90410B7F90020B7F90630084611461A46FFF748FF43E1B7F90420B7F900309A420BD1B7F90610B7F90220B7F90430084611461A46FFF796FE31E14FF0CE
:402E80000003BB827A88FB88C3EB02039BB27B81B7F90A30002B08DA7B89C3F100037B81BB8A03F1FF33BB8203E0BB8A03F10103BB824FF00003FB823A88BB88C3EB020327
:402EC0009BB2BB81B7F90C30002B08DABB89C3F10003BB81FB8A03F1FF33FB8203E0FB8A03F10103FB824FF000033B83B7F90A20B7F90C309A4248DA3B8B03F101033B83D4
:402F00007B897B83BB897B817B8BBB81FB887B83BB88FB807B8BBB80BB8A7B83FB8ABB827B8BFB824FF001037B7725E07B7FFB83FB8B03F00103002B03D1FB8BC3F100039A
:402F4000FB83B7F91E304FEA6303FB83BA88FB8B13449BB21A4648F64063C1F6FF731B8811B2B7F90620084611461A46FFF7DAFD7B7F03F101037B7748F64263C1F6FF73E4
:402F80001B787A7F9A42D1D931E04FF001037B7725E07B7FFB83FB8B03F00103002B03D1FB8BC3F10003FB83B7F91E304FEA6303FB83BA88FB8B13449BB21A4648F640633D
:402FC000C1F6FF731B88B7F9061012B2084611461A46FFF7A7FD7B7F03F101037B7748F64263C1F6FF731B787A7F9A42D1D9B7F90A304FEA43037B82B7F90C304FEA430309
:403000003B823A8A7B89C3EB02039BB2FB8160E0B7F90E30002B0ADBBA88FB8A13449BB2BB80FA897B8AC3EB02039BB2FB81FA88BB8A13449BB2FB80FA893B8A13449BB2D5
:40304000FB814FF001037B773BE07B7FFB83FB8B03F00103002B03D1FB8BC3F10003FB83B7F91E304FEA6303FB833B8B002B12D0BA88FB8B13449BB21A4648F64063C1F683
:40308000FF731B8811B2B7F90620084611461A46FFF748FD11E0BA88FB8B13449BB21A4648F64063C1F6FF731B88B7F9061012B2084611461A46FFF735FD7B7F03F101030F
:4030C0007B7748F64263C1F6FF731B787A7F9A42BBD97B8903F1FF337B81B7F90A30002B96DA07F12007BD4680BD00BF80B584B000AF0346FB8049F6FC63C1F6FF731B68E7
:403100004FF000004FF00001984740F24E13C2F200031B881A4640F24C13C2F200031B8803FB02F3FB604FF00003BB600BE049F6BC63C1F6FF731B68FA8810469847BB687F
:4031400003F10103BB60BA68FB689A42EFD307F11007BD4680BD00BF80B588B000AFF880B9807A807B7048F64263C1F6FF731B787B7748F64063C1F6FF731B88FB8348F65F
:403180004263C1F6FF734FF001021A7048F65263C1F6FF731A8848F64063C1F6FF731A80FA887B88C3EB02039BB203F101039BB2BB82FA887B8813449BB203F1FF339BB270
:4031C000FB82BA887B88C3EB02039BB203F101039BB23B83BA887B8813449BB203F1FF339BB27B834FF00003BB814FF00003FB814FF000033B82BA88FB88C3EB02039BB2B0
:403200007B827B88FB81B7F90E304FEA4303BB81BB89C3F103039BB2BB81F0E248F65563C1F6FF731B78002B00F0EA8148F65663C1F6FF731B78002B40F0F18048F6586360
:40324000C1F6FF73188848F65A63C1F6FF731988BA88FB8913449AB23B8BC3EB02039AB2B7F81AC03B8BC3EB0C039BB2FFF7D6FB034618464FF00101FFF7C8FAFA883B8A8B
:4032800013449BB21946FA883B8AC3EB02039BB21A46B888FB8903449BB209B212B21BB2084611461A46FFF77FFC48F65863C1F6FF73188848F65A63C1F6FF731988BA8881
:4032C000FB89C3EB02039AB23B8BC3EB02039AB2B7F81AC03B8BC3EB0C039BB2FFF79EFB034618464FF00101FFF790FAFA883B8A13449BB21946FA883B8AC3EB02039BB2A5
:403300001A46B888FB89C3EB00039BB209B212B21BB2084611461A46FFF746FC48F65863C1F6FF73188848F65A63C1F6FF731988BA883B8A13449AB23B8BC3EB02039AB2EC
:40334000B7F81AC03B8BC3EB0C039BB2FFF766FB034618464FF00101FFF758FABA88FB8913449AB27B8AC3EB02039BB21946BA88FB89C3EB02039AB27B8AC3EB02039BB2D6
:403380001A46B8883B8A03449BB209B212B21BB2084611461A46FFF707FC48F65863C1F6FF73188848F65A63C1F6FF731988BA883B8AC3EB02039AB23B8BC3EB02039AB278
:4033C000B7F81AC03B8BC3EB0C039BB2FFF726FB034618464FF00101FFF718FABA88FB8913449AB27B8AC3EB02039BB21946BA88FB89C3EB02039AB27B8AC3EB02039BB2D6
:403400001A46B8883B8AC3EB00039BB209B212B21BB2084611461A46FFF7C6FBC8E148F65863C1F6FF73188848F65A63C1F6FF731988FA883B8A13449AB2BB8AC3EB02030F
:403440009AB2B7F816C0BB8AC3EB0C039BB2FFF7E5FA034618464FF00101FFF7D7F9BA88FB8913449BB21946BA88FB89C3EB02039BB21A46F8883B8A03449BB209B212B262
:403480001BB2084611461A46FFF72EFC48F65863C1F6FF73188848F65A63C1F6FF731988FA883B8AC3EB02039AB2BB8AC3EB02039AB2B7F816C0BB8AC3EB0C039BB2FFF73F
:4034C000ADFA034618464FF00101FFF79FF9BA88FB8913449BB21946BA88FB89C3EB02039BB21A46F8883B8AC3EB00039BB209B212B21BB2084611461A46FFF7F5FB48F608
:403500005863C1F6FF73188848F65A63C1F6FF731988BA88FB8913449AB27B8AC3EB02039AB2BB8AC3EB02039AB2B7F816C0BB8AC3EB0C039BB2FFF771FA034618464FF076
:403540000101FFF763F9BA883B8A13449BB21946BA883B8AC3EB02039BB21A46B888FB89034498B27B8AC3EB00039BB209B212B21BB2084611461A46FFF7B6FB48F658633D
:40358000C1F6FF73188848F65A63C1F6FF731988BA88FB89C3EB02039AB27B8AC3EB02039AB2BB8AC3EB02039AB2B7F816C0BB8AC3EB0C039BB2FFF731FA034618464FF095
:4035C0000101FFF723F9BA883B8A13449BB21946BA883B8AC3EB02039BB21A46B888FB89C3EB000398B27B8AC3EB00039BB209B212B21BB2084611461A46FFF775FBD7E016
:403600007B78002B66D1BA88FB8913449BB21946BA88FB89C3EB02039BB21A46F8883B8A03449BB209B212B21BB2084611461A46FFF75AFBBA88FB8913449BB21946BA88C6
:40364000FB89C3EB02039BB21A46F8883B8AC3EB00039BB209B212B21BB2084611461A46FFF742FBBA883B8A13449BB21946BA883B8AC3EB02039BB21A46B888FB89034423
:4036800098B27B8AC3EB00039BB209B212B21BB2084611461A46FFF727FBBA883B8A13449BB21946BA883B8AC3EB02039BB21A46B888FB89C3EB000398B27B8AC3EB00036E
:4036C0009BB209B212B21BB2084611461A46FFF70BFB6DE0FA883B8A13449BB21946FA883B8AC3EB02039BB21A46B888FB8903449BB209B212B21BB2084611461A46FFF753
:4037000053FAFA883B8A13449BB21946FA883B8AC3EB02039BB21A46B888FB89C3EB00039BB209B212B21BB2084611461A46FFF73BFABA88FB8913449AB27B8AC3EB0203EC
:403740009BB21946BA88FB89C3EB02039AB27B8AC3EB02039BB21A46B8883B8A03449BB209B212B21BB2084611461A46FFF71CFABA88FB8913449AB27B8AC3EB02039BB20F
:403780001946BA88FB89C3EB02039AB27B8AC3EB02039BB21A46B8883B8AC3EB00039BB209B212B21BB2084611461A46FFF7FCF9B7F90C30002B0BDA3B8A4FEA83039AB275
:4037C000BB8913449BB203F106039BB2BB8112E03A8AFB89C3EB02039BB24FEA83039AB2BB8913449BB203F10A039BB2BB81FB8903F1FF33FB813B8A03F101033B82B7F954
:403800001020B7F90E3003F101039A42FFF606AD48F64263C1F6FF737A7F1A7048F64063C1F6FF73FA8B1A8007F12007BD4680BD80B586B000AF13460246FA800A46BA8018
:403840007B8048F65463C1F6FF731B78002B0CD0B7F90610B7F90420B7F90230084611461A464FF00103FFF777FC48F65263C1F6FF731B88BB8248F65563C1F6FF731B78BA
:40388000FB7548F64063C1F6FF731A8848F65263C1F6FF731A8048F65563C1F6FF734FF000021A7048F64263C1F6FF731B781A46B7F902304FEA43039A4217DDB7F902204A
:4038C00048F64263C1F6FF731B7813444FEA63039BB2B7F90610B7F904201BB2084611461A464FF00103FFF737FC14E24FF00003BB814FF00003FB814FF000033B82BA889B
:40390000FB88C3EB02039BB27B827B88FB81B7F90E304FEA4303BB81BB89C3F103039BB2BB81EFE148F64263C1F6FF731B78012B40F0C980FA883B8A13449BB21946BA88B8
:40394000FB8913449BB21A4648F64063C1F6FF731B8809B212B2084611461A46FFF7E2F8FA883B8A13449BB21946BA88FB89C3EB02039BB21A4648F64063C1F6FF731B88A1
:4039800009B212B2084611461A46FFF7CBF8FA883B8AC3EB02039BB21946BA88FB8913449BB21A4648F64063C1F6FF731B8809B212B2084611461A46FFF7B4F8FA883B8A40
:4039C000C3EB02039BB21946BA88FB89C3EB02039BB21A4648F64063C1F6FF731B8809B212B2084611461A46FFF79CF8BA88FB8913449AB27B8AC3EB02039BB21946BA8878
:403A00003B8A13449BB21A4648F64063C1F6FF731B8809B212B2084611461A46FFF782F8BA88FB8913449AB27B8AC3EB02039BB21946BA883B8AC3EB02039BB21A4648F6AA
:403A40004063C1F6FF731B8809B212B2084611461A46FFF767F8BA88FB89C3EB02039AB27B8AC3EB02039BB21946BA883B8A13449BB21A4648F64063C1F6FF731B8809B262
:403A800012B2084611461A46FFF74CF8BA88FB89C3EB02039AB27B8AC3EB02039BB21946BA883B8AC3EB02039BB21A4648F64063C1F6FF731B8809B212B2084611461A4642
:403AC000FFF730F8F7E0FA883B8A13449BB21946BA88FB8913449BB21A4648F64263C1F6FF731B784FEA5303DBB209B212B21BB2084611461A464FF00103FFF72DFBFA88CE
:403B00003B8A13449BB21946BA88FB89C3EB02039BB21A4648F64263C1F6FF731B784FEA5303DBB209B212B21BB2084611461A464FF00103FFF710FBFA883B8AC3EB02034D
:403B40009BB21946BA88FB8913449BB21A4648F64263C1F6FF731B784FEA5303DBB209B212B21BB2084611461A464FF00103FFF7F3FAFA883B8AC3EB02039BB21946BA88B5
:403B8000FB89C3EB02039BB21A4648F64263C1F6FF731B784FEA5303DBB209B212B21BB2084611461A464FF00103FFF7D5FABA88FB8913449AB27B8AC3EB02039BB2194640
:403BC000BA883B8A13449BB21A4648F64263C1F6FF731B784FEA5303DBB209B212B21BB2084611461A464FF00103FFF7B5FABA88FB8913449AB27B8AC3EB02039BB21946F9
:403C0000BA883B8AC3EB02039BB21A4648F64263C1F6FF731B784FEA5303DBB209B212B21BB2084611461A464FF00103FFF794FABA88FB89C3EB02039AB27B8AC3EB0203CD
:403C40009BB21946BA883B8A13449BB21A4648F64263C1F6FF731B784FEA5303DBB209B212B21BB2084611461A464FF00103FFF773FABA88FB89C3EB02039AB27B8AC3EB63
:403C800002039BB21946BA883B8AC3EB02039BB21A4648F64263C1F6FF731B784FEA5303DBB209B212B21BB2084611461A464FF00103FFF751FAB7F90C30002B0BDA3B8A9B
:403CC0004FEA83039AB2BB8913449BB203F106039BB2BB8112E03A8AFB89C3EB02039BB24FEA83039AB2BB8913449BB203F10A039BB2BB81FB8903F1FF33FB813B8A03F1B5
:403D000001033B82B7F91020B7F90E3003F101039A42FFF607AE48F65263C1F6FF73BA8A1A8048F65563C1F6FF73FA7D1A7007F11807BD4680BD00BF80B588B000AFF880B2
:403D4000B9807A803B80FA8848F64263C1F6FF731B784FEA5303DBB2C3EB02039BB2BB83B7F91C30002B03DA4FF00003BB8311E0B7F91C2040F24E13C2F200031B889A42B0
:403D800008DB40F24E13C2F200031B8803F1FF339BB2BB8348F64263C1F6FF731B7803F1FF334FEA63039AB27B8813449BB2FB83B7F91E30002B03DA4FF00003FB8311E0F6
:403DC000B7F91E2040F24E13C2F200031B889A4208DB40F24E13C2F200031B8803F1FF339BB2FB83B7F91C10B7F91E20B7F90430084611461A46FEF7D7FEB7F91C10B7F942
:403E00001E20B7F90030084611461A46FEF7CCFEB7F90410B7F90020B7F90630084611461A46FEF761FFB7F90410B7F90020B7F90230084611461A46FEF756FF48F6546312
:403E4000C1F6FF731B78002B00F0DF8048F64063C1F6FF731B88FB8248F64263C1F6FF731B78FB7648F64263C1F6FF731B7803F101034FEA6303FB81FA88FB8913449BB276
:403E8000FB80BA88FB8913449BB2BB8048F64263C1F6FF731B7803F102034FEA63033B827A883B8AC3EB02039BB27B803A883B8AC3EB02039BB23B8048F65563C1F6FF73CB
:403EC0001B78002B74D048F65663C1F6FF731B78002B36D1BB88BB822DE048F65863C1F6FF73188848F65A63C1F6FF731988BB88BA8AC3EB02039AB2B7F800C0BB88C3EBE1
:403F00000C039BB2FEF78AFD03463B833B8B18464FF00101FEF77AFCBB8AB7F90610B7F902201BB2084611461A46FEF73DFEBB8A03F10103BB82BA8AB7F900309A42CCDDD0
:403F400057E0FB887B822DE048F65863C1F6FF73188848F65A63C1F6FF731988FB887A8AC3EB02039AB2B7F802C0FB88C3EB0C039BB2FEF753FD03463B833B8B18464FF0C3
:403F80000101FEF743FC7B8AB7F90410B7F900201BB2084611461A46FEF7A6FE7B8A03F101037B827A8AB7F902309A42CCDD20E048F65263C1F6FF731B8818464FF0010104
:403FC000FEF724FCBB88BB820EE0BB8AB7F90610B7F902201BB2084611461A46FEF7E4FDBB8A03F10103BB82BA8AB7F900309A42EBDD48F64063C1F6FF73FA8A1A8048F611
:404000004263C1F6FF73FA7E1A7007F12007BD4680BD00BF80B588B000AFF880B9807A803B80FA887B88C3EB02039BB2FB82B7F91630002B0ADAB7F91630C3F100023B8D95
:404040004FEA43039A420ADA00F09BBEB7F916203B8D4FEA43039A42C0F2908600E000BFBA883B88C3EB02039BB2FB82B7F91630002B0ADAB7F91630C3F100023B8D4FEA14
:4040800043039A420ADA00F07CBEB7F916203B8D4FEA43039A42C0F2738600E000BF48F65263C1F6FF731B88BB8348F65563C1F6FF731B78FB7748F64063C1F6FF731A88B0
:4040C00048F65263C1F6FF731A8048F65563C1F6FF734FF000021A70BA883B8D13449AB2398D7B88C3EB01039BB213449BB2FB81BA883B8D13449AB2F9883B8D0B449BB2F9
:40410000C3EB02039BB23B823A883B8DC3EB02039AB2F9883B8D0B449BB2C3EB02039BB27B823A883B8DC3EB02039AB2398D7B88C3EB01039BB213449BB2BB8248F6546330
:40414000C1F6FF731B78002B00F0F48348F64063C1F6FF731B883B8348F64263C1F6FF731B78FB764FF00003BB813B8D7B81B7F90A304FEA43033B813B89C3F103039BB244
:404180003B8125E3FB7F002B00F0568248F65663C1F6FF731B78002B40F0298148F65863C1F6FF73188848F65A63C1F6FF7319883A883B8DC3EB02039AB27B8913449AB25F
:4041C000BB88C3EB02039AB2B7F800C0BB88C3EB0C039BB2FEF722FC034618464FF00101FEF714FBFA883B8D13449AB2BB89C3EB02039BB219467A883B8DC3EB02039AB269
:40420000BB8913449BB21A4638883B8DC3EB000398B27B8903449BB209B212B21BB2084611461A46FEF7C0FC48F65863C1F6FF73188848F65A63C1F6FF731988BA883B8D88
:4042400013449AB27B89C3EB02039AB2BB88C3EB02039AB2B7F800C0BB88C3EB0C039BB2FEF7DCFB034618464FF00101FEF7CEFAFA883B8D13449AB2BB89C3EB02039BB2F8
:4042800019467A883B8DC3EB02039AB2BB8913449BB21A46B8883B8D034498B27B89C3EB00039BB209B212B21BB2084611461A46FEF77AFC48F65863C1F6FF73188848F637
:4042C0005A63C1F6FF7319883A883B8DC3EB02039AB2BB8913449AB2BB88C3EB02039AB2B7F800C0BB88C3EB0C039BB2FEF796FB034618464FF00101FEF788FA3A883B8D5A
:40430000C3EB02039AB27B8913449AB2BB8AC3EB02039BB219463A883B8DC3EB02039AB27B89C3EB02039AB27B8AC3EB02039BB21A4638883B8DC3EB000398B2BB89034434
:404340009BB209B212B21BB2084611461A46FEF72BFC48F65863C1F6FF73188848F65A63C1F6FF731988BA883B8D13449AB2BB89C3EB02039AB2BB88C3EB02039AB2B7F81B
:4043800000C0BB88C3EB0C039BB2FEF747FB034618464FF00101FEF739FABA883B8D13449AB27B89C3EB02039AB23B8AC3EB02039BB21946BA883B8D13449AB27B891344CD
:4043C0009AB2FB89C3EB02039BB21A46B8883B8D034498B2BB89C3EB00039BB209B212B21BB2084611461A46FEF7DEFBC9E148F65863C1F6FF73188848F65A63C1F6FF7303
:4044000019887A883B8DC3EB02039AB2BB8913449AB2FB88C3EB02039AB2B7F802C0FB88C3EB0C039BB2FEF7F9FA034618464FF00101FEF7EBF9BA883B8D13449AB27B8951
:40444000C3EB02039BB219463A883B8DC3EB02039AB27B8913449BB21A4678883B8DC3EB000398B2BB8903449BB209B212B21BB2084611461A46FEF737FC48F65863C1F688
:40448000FF73188848F65A63C1F6FF731988FA883B8D13449AB2BB89C3EB02039AB2FB88C3EB02039AB2B7F802C0FB88C3EB0C039BB2FEF7B3FA034618464FF00101FEF7F6
:4044C000A5F9BA883B8D13449AB27B89C3EB02039BB219463A883B8DC3EB02039AB27B8913449BB21A46F8883B8D034498B2BB89C3EB00039BB209B212B21BB20846114671
:404500001A46FEF7F1FB48F65863C1F6FF73188848F65A63C1F6FF7319887A883B8DC3EB02039AB27B8913449AB2FB88C3EB02039AB2B7F802C0FB88C3EB0C039BB2FEF7CE
:404540006DFA034618464FF00101FEF75FF97A883B8DC3EB02039AB2BB89C3EB02039AB2FB8913449BB219467A883B8DC3EB02039AB2BB8913449AB2BB8A13449BB21A4613
:4045800078883B8DC3EB000398B27B8903449BB209B212B21BB2084611461A46FEF7A4FB48F65863C1F6FF73188848F65A63C1F6FF731988FA883B8D13449AB27B89C3EB95
:4045C00002039AB2FB88C3EB02039AB2B7F802C0FB88C3EB0C039BB2FEF720FA034618464FF00101FEF712F9FA883B8D13449AB2BB8913449AB27B8A13449BB21946FA8895
:404600003B8D13449AB2BB89C3EB02039AB23B8A13449BB21A46F8883B8D034498B27B89C3EB00039BB209B212B21BB2084611461A46FEF759FBA4E048F64063C1F6FF7300
:40464000BA8B1A8048F64263C1F6FF734FF001021A70FA883B8D13449AB2BB89C3EB02039BB219467A883B8DC3EB02039AB2BB8913449BB21A4638883B8DC3EB000398B25F
:404680007B8903449BB209B212B21BB2084611461A46FEF789FAFA883B8D13449AB2BB89C3EB02039BB219467A883B8DC3EB02039AB2BB8913449BB21A46B8883B8D0344A9
:4046C00098B27B89C3EB00039BB209B212B21BB2084611461A46FEF767FA3A883B8DC3EB02039AB27B8913449AB2BB8AC3EB02039BB219463A883B8DC3EB02039AB27B8966
:40470000C3EB02039AB27B8AC3EB02039BB21A4638883B8DC3EB000398B2BB8903449BB209B212B21BB2084611461A46FEF73CFABA883B8D13449AB27B89C3EB02039AB28E
:404740003B8AC3EB02039BB21946BA883B8D13449AB27B8913449AB2FB89C3EB02039BB21A46B8883B8D034498B2BB89C3EB00039BB209B212B21BB2084611461A46FEF7BC
:4047800013FAB7F90830002B0BDABB894FEA83039AB23B8913449BB203F106039BB23B8112E0BA897B89C3EB02039BB24FEA83039AB23B8913449BB203F10A039BB23B8181
:4047C0007B8903F1FF337B81BB8903F10103BB81B7F90C20B7F90A3003F101039A42FFF6D1ACFB7F002B7CD048F65663C1F6FF731B78002B3AD1BA883B8D13449BB27B818B
:404800002BE048F65863C1F6FF73188848F65A63C1F6FF7319887A89BB88C3EB02039AB2B7F800C0BB88C3EB0C039BB2FEF7F6F8034618464FF00101FDF7E8FFFA887B88BA
:4048400011B21AB2B7F90A30084611461A46FEF7ABF97B8903F101037B81B7F90A2039883B8DC3EB01039A42CBDD57E0FA883B8D13449BB2BB812BE048F65863C1F6FF7302
:40488000188848F65A63C1F6FF731988BA89FB88C3EB02039AB2B7F802C0FB88C3EB0C039BB2FEF7BBF8034618464FF00101FDF7ADFFBA883B8811B21AB2B7F90C300846D2
:4048C00011461A46FEF710FABB8903F10103BB81B7F90C2079883B8DC3EB01039A42CBDD1CE0BA883B8D13449BB27B810EE0FA887B8811B21AB2B7F90A30084611461A4618
:40490000FEF752F97B8903F101037B81B7F90A2039883B8DC3EB01039A42E8DD48F64063C1F6FF733A8B1A8048F64263C1F6FF73FA7E1A704FF00003BB813B8D7B81B7F920
:404940000A304FEA43033B813B89C3F103039BB23B8166E1FA883B8D13449AB2BB89C3EB02039BB219463A883B8DC3EB02039AB27B8913449BB21A4648F64263C1F6FF73C7
:404980001B7803F1FF334FEA63039BB209B212B21BB2084611461A464FF00103FEF7DCFB7A883B8DC3EB02039AB2BB8913449BB219463A883B8DC3EB02039AB27B891344FE
:4049C0009BB21A4648F64263C1F6FF731B7803F1FF334FEA63039BB209B212B21BB2084611461A464FF00103FEF7B6FBFA883B8D13449AB2BB89C3EB02039BB21946BA884D
:404A00003B8D13449AB27B89C3EB02039BB21A4648F64263C1F6FF731B7803F1FF334FEA63039BB209B212B21BB2084611461A464FF00103FEF790FB7A883B8DC3EB020365
:404A40009AB2BB8913449BB21946BA883B8D13449AB27B89C3EB02039BB21A4648F64263C1F6FF731B7803F1FF334FEA63039BB209B212B21BB2084611461A464FF001034D
:404A8000FEF76AFB3A883B8DC3EB02039AB27B8913449AB2BB8AC3EB02039BB219463A883B8DC3EB02039AB2BB8913449BB21A4648F64263C1F6FF731B7803F1FF334FEAF9
:404AC00063039BB209B212B21BB2084611461A464FF00103FEF740FB3A883B8DC3EB02039AB27B89C3EB02039AB27B8AC3EB02039BB219463A883B8DC3EB02039AB2BB8982
:404B000013449BB21A4648F64263C1F6FF731B7803F1FF334FEA63039BB209B212B21BB2084611461A464FF00103FEF715FBBA883B8D13449AB27B89C3EB02039AB23B8AB2
:404B4000C3EB02039BB21946BA883B8D13449AB2BB89C3EB02039BB21A4648F64263C1F6FF731B7803F1FF334FEA63039BB209B212B21BB2084611461A464FF00103FEF74B
:404B8000EBFABA883B8D13449AB27B8913449AB2FB89C3EB02039BB21946BA883B8D13449AB2BB89C3EB02039BB21A4648F64263C1F6FF731B7803F1FF334FEA63039BB2D7
:404BC00009B212B21BB2084611461A464FF00103FEF7C2FAB7F90830002B0BDABB894FEA83039AB23B8913449BB203F106039BB23B8112E0BA897B89C3EB02039BB24FEA49
:404C000083039AB23B8913449BB203F10A039BB23B817B8903F1FF337B81BB8903F10103BB81B7F90C20B7F90A3003F101039A42FFF690AEFA883B8D13449BB21846B98838
:404C40007A883B8DC3EB02039BB21A46BB8800B209B212B21BB2FEF7E1F848F64263C1F6FF731B7803F00103DBB2002B13D0FA883B8D13449BB2184639887A883B8DC3EB45
:404C800002039BB21A463B8800B209B212B21BB2FEF7C4F819E0FA883B8D13449BB218463B8803F101039BB219467A883B8DC3EB02039BB21A463B8803F101039BB200B240
:404CC00009B212B21BB2FEF7A9F8F888BA883B8D13449BB21946FA88B7F800C03B8DC3EB0C039BB200B209B212B21BB2FEF796F848F64263C1F6FF731B7803F00103DBB2DE
:404D0000002B13D07888BA883B8D13449BB219467A88B7F800C03B8DC3EB0C039BB200B209B212B21BB2FEF779F81AE07B8803F101039BB21846BA883B8D13449BB2194604
:404D40007B8803F101039BB21A46B7F800C03B8DC3EB0C039BB200B209B212B21BB2FEF75DF848F65263C1F6FF73BA8B1A8048F65563C1F6FF73FA7F1A7002E000BF00E064
:404D800000BF07F12007BD4680BD00BF80B58AB000AF0346FB804FF00003FB734FF000037B824FF00003BB7548F66C63C1F6FF731B78002B10D148F24C50C0F203004FF034
:404DC00000014FF00002FDF745FD48F66C63C1F6FF734FF001021A7048F64C63C1F6FF731B88FA889A42C0F00E8148F64E63C1F6FF731B88FA889A4200F207814FF000030E
:404E0000BB6148F64C63C1F6FF731B88FA88C3EB02039BB24FEA8303FB8448F64863C1F6FF731A68FB8C03F108031344FB61FB691B78FB73FB6903F101031B781A46FB69F8
:404E400003F102031B784FEA03231A44FB6903F103031B784FEA03431344BB6148F64863C1F6FF731A68BB6913443B6248F64663C1F6FF731B78002B62D148F66663C1F69B
:404E8000FF731B88BB824FF000037B7446E048F66463C1F6FF731B887B824FF00003FB754FF000033B742DE0FB7D002B09D13B6A1B78BB753B6A03F101033B624FF0010369
:404EC000FB75BA7DFB7D02EA0303DBB2002B0DD0798ABA8A48F64463C1F6FF731B8809B212B2084611461A46FDF71CFE7B8A03F101037B82FB7D4FEA4303FB753B7C03F176
:404F000001033B743A7CFB7B9A42CDD3BB8A03F10103BB827B7C03F101037B747A7C48F65063C1F6FF731B889A42B0D37B8A03F101039AB248F66463C1F6FF731A8065E056
:404F400048F66463C1F6FF731B88BB824FF000037B7446E048F66663C1F6FF731B887B824FF00003FB754FF000033B742DE0FB7D002B09D13B6A1B78BB753B6A03F10103CA
:404F80003B624FF00103FB75BA7DFB7D02EA0303DBB2002B0DD0B98A7A8A48F64463C1F6FF731B8809B212B2084611461A46FDF7B9FD7B8A03F1FF337B82FB7D4FEA430326
:404FC000FB753B7C03F101033B743A7CFB7B9A42CDD3BB8A03F10103BB827B7C03F101037B747A7C48F65063C1F6FF731B889A42B0D37B8A03F1FF339AB248F66663C1F69C
:40500000FF731A8002E000BF00E000BF07F12807BD4680BD80B586B000AF0346FB804FF000037B724FF00003BB8148F66C63C1F6FF731B78002B10D148F24C50C0F20300D2
:405040004FF000014FF00002FDF704FC48F66C63C1F6FF734FF001021A7048F64C63C1F6FF731B88FA88C3EB02039BB24FEA8303FB8248F64863C1F6FF731A68FB8A03F135
:40508000080313443B613B691B787B7248F64C63C1F6FF731B88FA889A42C0F0F88048F64E63C1F6FF731B88FA889A4200F2F18048F64663C1F6FF731B78002B73D148F6C3
:4050C0006663C1F6FF731B88FB814FF00003FB7257E048F66463C1F6FF731B88BB814FF00003BB7224E048F65C63C1F6FF731B88BA899A4206D248F65C63C1F6FF73BA8910
:405100001A800DE048F66063C1F6FF731B88BA899A4205D948F66063C1F6FF73BA891A80BB8903F10103BB81BB7A03F10103BB72BA7A7B7A9A42D6D348F65E63C1F6FF736F
:405140001B88FA899A4206D248F65E63C1F6FF73FA891A800DE048F66263C1F6FF731B88FA899A4205D948F66263C1F6FF73FA891A80FB8903F10103FB81FB7A03F1010369
:40518000FB72FA7A48F65063C1F6FF731B889A429FD3BB8903F101039AB248F66463C1F6FF731A8076E048F66463C1F6FF731B88FB814FF00003FB7257E048F66663C1F66C
:4051C000FF731B88BB814FF00003BB7224E048F65C63C1F6FF731B88BA899A4206D248F65C63C1F6FF73BA891A800DE048F66063C1F6FF731B88BA899A4205D948F6606370
:40520000C1F6FF73BA891A80BB8903F1FF33BB81BB7A03F10103BB72BA7A7B7A9A42D6D348F65E63C1F6FF731B88FA899A4206D248F65E63C1F6FF73FA891A800DE048F648
:405240006263C1F6FF731B88FA899A4205D948F66263C1F6FF73FA891A80FB8903F10103FB81FB7A03F10103FB72FA7A48F65063C1F6FF731B889A429FD3BB8903F1FF335C
:405280009AB248F66663C1F6FF731A8002E000BF00E000BF07F11807BD4680BD80B584B000AF786013460A467A803B8040F24E13C2F200031B887A889A4236D240F24C138F
:4052C000C2F200031B883A889A4230D24FF00003FB817A883B8810461946FDF7FFFB1DE040F25513C2F200031B78002B0BD0FA897B6813441B78FA8902F10102FA81184605
:4053000000F006F90AE0FA897B6813441B78FA8902F10102FA811846FFF738FDFA897B6813441B78002BDBD102E000BF00E000BF07F11007BD4680BD80B584B000AF786021
:4053400013460A467A803B8040F24E13C2F200031B887A889A4280F0818040F24C13C2F200031B883A889A427AD24AF2F873C1F6FF734FF000021A804AF26073C1F6FF73DB
:405380004FF000021A8048F65C63C1F6FF737A881A8048F66063C1F6FF737A881A8048F65E63C1F6FF733A881A8048F66263C1F6FF733A881A804FF00003FB817A883B88FB
:4053C00010461946FDF78AFB1DE040F25513C2F200031B78002B0BD0FA897B6813441B78FA8902F10102FA81184601F049F80AE0FA897B6813441B78FA8902F10102FA8196
:405400001846FFF707FEFA897B6813441B78002BDBD148F66063C1F6FF731A8848F65C63C1F6FF731B88C3EB02039AB24AF2F873C1F6FF731A8048F66263C1F6FF731A8820
:4054400048F65E63C1F6FF731B88C3EB02039AB24AF26073C1F6FF731A8002E000BF00E000BF07F11007BD4680BD00BF80B483B000AF786040F25013C2F200037A681A60AC
:4054800007F10C07BD4680BC704700BF80B586B000AF78600B467B8048F67463C1F6FF737B612DE040F25013C2F200031B68798807F108027868984703463B614FF000030F
:4054C000FB810FE03B691A787B691A707B6903F101037B613B6903F101033B61FB8903F10103FB81FA89BB689A42EBD3BB689BB27A88C3EB02037B80BB687A6813447B601E
:405500007B88002BCED107F11807BD4680BD00BF80B58EB000AF0346FB804FF00003FB734FF000037B824FF00003BB7548F64C63C1F6FF731B88FA889A42C0F0988148F623
:405540004E63C1F6FF731B88FA889A4200F291814FF00003BB6148F64C63C1F6FF731B88FA88C3EB02039BB24FEA83037B867A8E48F67063C1F6FF731B68134403F10803D8
:40558000FB61F8694FF00401FFF780FF48F67463C1F6FF737B637B6B1B78FB737B6B03F101031B781A467B6B03F102031B784FEA03231A447B6B03F103031B784FEA034380
:4055C0001344BB6148F67063C1F6FF731A68BB6913443B6248F65063C1F6FF731B88FA7B4FEAD202D2B202FB03F37B62FB7B03F00703002B07D048F65063C1F6FF731B889F
:405600007A6A13447B627B6AFB6240F25013C2F200031B6807F10802386A796A984703467B63BB683A6A13443B62BB687A6AC3EB02037B624FF00003BB6248F64663C1F665
:40564000FF731B78002B40F0898048F66663C1F6FF731B88BB824FF000037B746CE048F66463C1F6FF731B887B824FF00003FB754FF000033B7453E0FB7D002B2FD1BB6AC8
:4056800003F10103BB62BA68FB6A9A421DD2BB68BA6A9A4219D94FF00103BB6240F25013C2F200031B6807F10802386A796A984703467B637B6AFB62BB683A6A13443B62B5
:4056C000BB687A6AC3EB02037B627B6B1B78BB757B6B03F101037B634FF00103FB75BA7DFB7D02EA0303DBB2002B0DD0798ABA8A48F64463C1F6FF731B8809B212B2084600
:4057000011461A46FDF70EFA7B8A03F101037B82FB7D4FEA4303FB753B7C03F101033B743A7CFB7B9A42A7D3BB8A03F10103BB827B7C03F101037B747A7C48F65063C1F67F
:40574000FF731B889A428AD37B8A03F101039AB248F66463C1F6FF731A808BE048F66463C1F6FF731B88BB824FF000037B746CE048F66663C1F6FF731B887B824FF00003C2
:40578000FB754FF000033B7453E0FB7D002B2FD1BB6A03F10103BB62BA68FB6A9A421DD2BB68BA6A9A4219D94FF00103BB6240F25013C2F200031B6807F10802386A796A5B
:4057C000984703467B637B6AFB62BB683A6A13443B62BB687A6AC3EB02037B627B6B1B78BB757B6B03F101037B634FF00103FB75BA7DFB7D02EA0303DBB2002B0DD0B98A7E
:405800007A8A48F64463C1F6FF731B8809B212B2084611461A46FDF785F97B8A03F1FF337B82FB7D4FEA4303FB753B7C03F101033B743A7CFB7B9A42A7D3BB8A03F1010311
:40584000BB827B7C03F101037B747A7C48F65063C1F6FF731B889A428AD37B8A03F1FF339AB248F66663C1F6FF731A8002E000BF00E000BF07F13807BD4680BD80B590B0B4
:4058800000AFBA600246FA810A46BA81FB714FF0000387F83F30BB68FB6248F67463C1F6FF73BB62FB6A03F10603FB62BB6A03F10203BB62BB6A1B783B83BB6A03F10103CD
:4058C000BB62BB6A1B784FEA03239AB23B8B13443B83BB6A03F10103BB62BB6A1B78FB82BB6A03F10103BB62BB6A1B784FEA03239AB2FB8A1344FB8240F24E13C2F200039E
:405900001A88FB89C3EB0203BB8440F24C13C2F200031A88BB89C3EB0203FB844FF00003BB83EBE0FB6ABB63BA8BFB8C9A4200F2E18040F24C13C2F200031B88BA899A421C
:4059400080F0D8804FF0000387F82330CCE0BB6BFB6249F6FC63C1F6FF731B68F989BA89084611469847FB8A4FEA43033B634FF000037B63AAE040F25013C2F200031B686E
:4059800007F11002F86A396B98470346BB623B69FA6A1344FB623B693A6BC3EB02033B6397F83F30002B38D0BB6A1B784FEA03239AB23B8C13443B84BB6A03F10103BB6291
:4059C0003B6903F1FF333B614FF0000387F83F30BB8C7A6B9A428CBF00230123DBB27A6B02F101027A63002B17D04FF0000387F822300DE049F6BC63C1F6FF731B683A8C50
:405A00001046984797F8223003F1010387F8223097F82220FB799A42ECD33B6903F00103DBB2002B03D04FF0010387F83F303B694FEA53033B614FF000037B833BE0BB6A01
:405A40001B78FB83BB6A03F10103BB62BB6A1B784FEA03239AB2FB8B1344FB83BB6A03F10103BB62BB8C7A6B9A428CBF00230123DBB27A6B02F101027A63002B17D04FF0B3
:405A8000000387F822300DE049F6BC63C1F6FF731B68FA8B1046984797F8223003F1010387F8223097F82220FB799A42ECD37B8B03F101037B837A8B3B699A42BFD397F835
:405AC0003F30002B02D0BB6A1B783B843B6B002B7FF451AFBB8903F10103BB8197F8233003F1010387F8233097F82320FB799A42FFF42DAFBB8B03F10103BB83BA8B3B8BE3
:405B00009A42FFF40FAF07F14007BD4680BD00BF80B5D0B000AF07F1080CCCF800201A4607F10E03188007F10C03198007F1080303F1FF331A7007F108031B68C7F8283154
:405B400048F67463C1F6FF73C7F83831D7F8283103F10603C7F82831D7F8383103F10203C7F83831D7F838311B78A7F81C31D7F8383103F10103C7F83831D7F838311B784F
:405B80004FEA03239AB2B7F81C311344A7F81C31D7F8383103F10103C7F83831D7F838311B78A7F81A31D7F8383103F10103C7F83831D7F838311B784FEA03239AB2B7F871
:405BC0001A311344A7F81A31D7F8383103F10103C7F8383140F24E13C2F200031A8807F10E031B88C3EB0203A7F8223140F24C13C2F200031A8807F10C031B88C3EB02033D
:405C0000A7F824314FF40073C7F8303107F11803C7F83C3143E040F25013C2F200031B6807F11402D7F82801D7F8301198470346C7F838314FF00003C7F8343117E0D7F8D7
:405C400038311A78D7F83C311A70D7F8383103F10103C7F83831D7F83C3103F10103C7F83C31D7F8343103F10103C7F8343107F114031B68D7F834219A42E0D307F1140307
:405C80001B68D7F83021C3EB0203C7F8303107F114031B68D7F828211344C7F82831D7F83031002BB7D14FF00003A7F82031C5E0D7F82831C7F83431B7F82021B7F824315B
:405CC0009A4200F2B58040F24C13C2F200031B8807F10C0212889A4280F0AA804FF0000387F827319AE0D7F83431C7F8283149F6FC63C1F6FF731B6807F10E02118807F1DE
:405D00000C021288084611469847B7F81A31C7F82C314FF00003C7F830316DE040F25013C2F200031B6807F11402D7F82801D7F82C1198470346C7F8383107F114031B68AF
:405D4000D7F828211344C7F8283107F114031B68D7F82C21C3EB0203C7F82C314FF00003A7F81E3141E0D7F838311B7807F11802D35CA7F81831D7F8383103F10103C7F8EB
:405D80003831B7F82231D7F830219A428CBF00230123DBB2D7F8302102F10102C7F83021002B1CD04FF0000387F826310EE049F6BC63C1F6FF731B68B7F8182110469847F3
:405DC00097F8263103F1010387F8263107F1080303F1FF3397F826211B789A42E7D3B7F81E3103F10103A7F81E31B7F81E2107F114031B689A42B6D3D7F82C31002B8DD149
:405E000007F10C0307F10C02128802F101021A8097F8273103F1010387F8273107F1080303F1FF3397F827211B789A42FFF45BAFB7F8203103F10103A7F82031B7F8202131
:405E4000B7F81C319A42FFF433AF07F5A077BD4680BD00BF80B596B000AFBA600246FA810A46BA81FB71BB687B6448F67463C1F6FF73FB637B6C03F106037B64FB6B03F1AA
:405E80000203FB63FB6B1B78BB85FB6B03F10103FB63FB6B1B784FEA03239AB2BB8D1344BB85FB6B03F10103FB63FB6B1B787B85FB6B03F10103FB63FB6B1B784FEA03233E
:405EC0009AB27B8D13447B85FB6B03F10103FB6340F24E13C2F200031A88FB89C3EB0203BB8640F24C13C2F200031A88BB89C3EB0203FB864FF02003FB6407F118033B6402
:405F00002CE040F25013C2F200031B6807F11402786CF96C98470346FB634FF000033B650FE0FB6B1A783B6C1A70FB6B03F10103FB633B6C03F101033B643B6D03F1010315
:405F40003B657B693A6D9A42EBD37B69FA6CC3EB0203FB647B697A6C13447B64FB6C002BCFD17B8D4FEA53039BB27B657B6D03F00103DBB2002B03D07B6D03F101037B65E0
:405F80004FF000037B86B1E07B6C3B657A8EFB8E9A4200F2A78040F24C13C2F200031B88BA899A4280F09E804FF0000387F83B3092E03B6D7B6449F6FC63C1F6FF731B68F9
:405FC000F989BA890846114698477B6DBB644FF00003FB6473E040F25013C2F200031B6807F11402786CB96C98470346FB637B697A6C13447B647B69BA6CC3EB0203BB6415
:406000007B694FEA43037B614FF000033B8650E07A8DFB6C9A4251D33B8E03F00103DBB2002B0AD097F8393003F00F0307F15802134413F8403CFB8512E0FB6B1B7887F817
:406040003930FB6B03F10103FB6397F839304FEA1313DBB207F15802134413F8403CFB85BB8EFA6C9A428CBF00230123DBB2FA6C02F10102FA64002B17D04FF0000387F830
:406080003A300DE049F6BC63C1F6FF731B68FA8D1046984797F83A3003F1010387F83A3097F83A20FB799A42ECD33B8E03F101033B863A8E7B699A42AAD300E000BFBB6CA4
:4060C000002B88D1BB8903F10103BB8197F83B3003F1010387F83B3097F83B20FB799A42FFF467AF7B8E03F101037B867A8EBB8D9A42FFF449AF07F15807BD4680BD00BF16
:4061000080B592B000AFBA600246FA810A46BA81FB71BB687B6348F67463C1F6FF733B637B6B03F10A037B633B6B03F102033B633B6B1B787B843B6B03F101033B633B6B6C
:406140001B784FEA03239AB27B8C13447B843B6B03F101033B633B6B1B783B843B6B03F101033B633B6B1B784FEA03239AB23B8C13443B843B6B03F101033B633B6B1B78DE
:406180003B833B6B03F101033B633A8B3B6B1B784FEA03239BB213449BB23B833B6B03F101033B633B6B1B787B833B6B03F101033B637A8B3B6B1B784FEA03239BB21344E9
:4061C0009BB27B8340F24E13C2F200031A88FB89C3EB0203BB8440F24C13C2F200031A88BB89C3EB0203FB843B8C4FEAD3039BB27B643B8C03F00703002B03D07B6C03F1F3
:4062000001037B644FF000037B85B3E07B6B3B647A8DFB8C9A4200F2A98040F24C13C2F200031B88BA899A4280F0A0804FF0000387F82E3094E03B6C7B6349F6FC63C1F695
:40624000FF731B68F989BA890846114698474FF0000387F82F307B6CBB634FF00003FB6371E040F25013C2F200031B6807F11402786BB96B984703463B637B697A6B134400
:406280007B637B69BA6BC3EB0203BB637B694FEAC3037B614FF000033B854EE03A8CFB6B9A424FD397F82F30002B0AD13B6B1B78FB773B6B03F101033B636FF07F0387F8D2
:4062C0002F3097F82F20FB7F02EA0303DBB2002B02D07B8BBB8301E03B8BBB83BB8CFA6B9A428CBF00230123DBB2FA6B02F10102FA63002B17D04FF0000387F82D300DE0C6
:4063000049F6BC63C1F6FF731B68BA8B1046984797F82D3003F1010387F82D3097F82D20FB799A42ECD397F82F304FEA530387F82F303B8D03F101033B853A8D7B699A42CC
:40634000ACD300E000BFBB6B002B8AD1BB8903F10103BB8197F82E3003F1010387F82E3097F82E20FB799A42FFF465AF7B8D03F101037B857A8D7B8C9A42FFF447AF07F11A
:406380004807BD4680BD00BF80B586B000AFBA600246FA810A46BA81FB7140F24E13C2F200031B88FA899A4262D240F24C13C2F200031B88BA899A425CD2B8684FF00A017F
:4063C000FFF764F848F67463C1F6FF737B617B6903F101031B78FB74FB7C03F1FF330F2B49D801A252F823F02964010077640100776401003B6401007764010077640100BD
:40640000776401004D640100776401007764010077640100776401007764010077640100776401005F640100F989BA89FB7908461146BA68FFF764FE1DE0F989BA89FB7978
:4064400008461146BA68FFF705FD14E0F989BA89FB7908461146BA68FFF75AFB0BE0F989BA89FB7908461146BA68FFF707FA02E000BF00E000BF07F11807BD4680BD00BFE6
:4064800080B588B000AF0346FB804FF000037B734FF000033B8248F64C63C1F6FF731B88FA889A42C0F01B8148F64E63C1F6FF731B88FA889A4200F2148148F64C63C1F626
:4064C000FF731B88FA88C3EB02039BB24FEA83037B837A8B48F67063C1F6FF731B68134403F108037B6178694FF00401FEF7CEFF48F67463C1F6FF73FB61FB691B787B73EE
