:400000000080002011000000AD020000AD02000008B5054B1A6803F53F5302331A6000F01BFA00F04BF900BFFA46004010B5054C237833B9044B13B10448AFF3008001232F
:40004000237010BD4881FF1F0000000004220000084B10B51BB108490848AFF300800848036803B910BD074B002BFBD0BDE81040184700BF000000004C81FF1F04220000BC
:40008000C880FF1F0000000008B500F053FF1E2000F05EFF00F02EFCFEE70000F8B572B66E4A6F4D1378002443F004031370062606FB045300219A881868013402F095F8A1
:4000C0000A2CF5D100221146664C04F1480554F8210005EB420320F0FF06C0B2024405EB4200013303300233834206D013F8037C13F802EC07F806E0F5E701311229E6D157
:40010000594A5A4C13785A4943F002031370137C43F2C82643F0020313742378A2F5863243F040032370413A137843F010031370504B1D461A6855F8080F0A605A684A60A0
:4001400069684D4A03C229894C481180194651F8122F02604A681946426051F81A2F02624A68426253F8220F454A59681B8903C21380A2F63662137843F008031370414B61
:4001800061221A7040F29322A3F5F0631A8018229A70062283F8802243F21332A3F89221052283F8902193F8902103F5C8731D462B781B0606D54FF4F07000F0D1FE013E10
:4001C000F6D1FEE74FF0402340221A70702283F8002240F62132A3F8222241F251222A4FA3F82022192600253B784FF4F07003F0010343EA450500F0B3FE013E05F003052D
:400200002BD0032DF0D1214A4FF480731380204907231370482000230B708870137053711C4B02221A701C4A1C4D137843F001031370144B01221A70194B1A4A1B78DBB226
:4002400003F007011B0911705370174B44221A7094E80F0007C52B80F8BDFEE7E8460040082200004422000003500140A043004002510040FA220000F051004012510040A5
:40028000505100400048004025420040044000400640004001400040A2430040B0430040CF0100496E5800407658004008B501F065FF03680C2B00D1FEE7FEE780B5114841
:4002C000114B0025C0B1A3F1100192C922460439161BB74204D051F8046F42F8046BF7E7114653F8046C8C1AA64202D041F8045BF9E701381033E5E701F046FFFFF7C4FE06
:40030000FEE700BF01000000EC240000104A114B10B41A60104A114C1368114843F4007313600023032B98BF54F823204FEA830188BF0C4A0133302B4250F3D10A4B1A780F
:400340000A4B1A700A4B064A10BC1A60FFF7A6BE0004FA050CED00E014ED00E0000000000080FF1FAD020000BC760040C080FF1F08ED00E000470023014422B1013A885C09
:400380000344DBB2F9E71846704701380B284FD8DFE800F0060C12181E24302A363C42480902C1F57F3101F5707147E00902C1F57F3101F2C13144E00902C1F57F3101F209
:4003C000C53136E00902C1F57F3101F2C93138E00902C1F57F3101F574712FE00902C1F57F3101F2D13129E00902C1F57F3101F2D6311EE00902C1F57F3101F2D23118E0E9
:400400000902C1F57F3101F5757112E00902C1F57F3101F5767114E00902C1F57F3101F577710BE00902C1F57F3101F5787108E000210B78487843EA002070470878C0B26F
:4004400070470B784A788878000440EA02201843CB7840EA0360704710B50B4A137803F0C003802B0ED10024147021460220FFF78CFF38B121460220FFF787FFBDE81040D4
:40048000FFF778BF10BD00BFFA460040F8B5014606460320FFF779FF314605460420FFF774FF013500EB052531460320FFF76DFF0024274601300002854209D910F8013BEB
:4004C0005A1ED2B2FD2A1C4498BF0127E4B2F3E731460320FFF759FF114B01309D424FEA00204FEAD00014BFED084FF40045A84206D200F190431B7801301C44E4B2F6E767
:4005000031460120FFF741FF6442E4B2844204D1002F0CBF06200020F8BD0620F8BD00BFC0FF030080B5ADF51C7D00F091FA10B1002000F065FB00F00FFA62B600252E46FF
:40054000B74FFF236A464FF4967106A800F034FA0028F6D1BDF80020062A40F25C819DF81830012B40F05781BDF81A40E31D934200F24F81B3F5967F00F24B8106AB234440
:400580009B79172B40F04781231D9BB20DF117022BB1D15C013B084480B29BB2F8E706AB1A1951791379404243EA012380B2834240F033819DF819309DF81C80A3F131029C
:4005C0000A2A00F2C780DFE802F00616C53B76C57B8F3B9FBA00002E00F01D81002C40F01A812046FFF752FFB0FA80F040098DF81C003146E0E0002E00F00D81012C40F03C
:400600000A81B8F1030F00F20681864B1B681B68C3F30742904502D1C3F3072303E08CBF00234FF480738DF81C301B0A8DF81D300024FF238DF81E308DF81F400421BBE091
:40064000342B12D1002E00F0E680032C40F0E380A8F140033F2B8CBF4FF4907510252A46002151A801F0C1FD05E0002E00F0D380022C40F2D08051AB033C224658190DF193
:400680001F0101F0A7FDA8F140032C443F2BA4B204D800F08DFA8023102203E04FF480734FF4907294427DD1BDF81D509D42C0F0BF80012641E0002E00F0AD80002540E700
:4006C000002E00F0A88004EB0508B8F5967F00F3A08051AB224607A95819002401F07AFD1FFA88F5214667E0002C40F094804E4A03AB92E8030007AA83E8030082E80300CF
:4007000025460126082157E0002E00F08480032C40F08180A8F140033F2BBDF81DA008D800F046FABAF17F0F4FEA0A1140F2A58003E0BAF1FF0F40F2AB800A243BE0002037
:40074000FFF7A4FE08B980233B7000F011F900F059FA60E0354A12684AB35EB3ADF806404FF0000807AC03A98DF804300294CDF80C80CDF81080059401A89047BDF81010DA
:40078000B1F5937F02D3059BA34205D0059B03B929B99DF80C400FE00E2441460CE00E24194609E0002501260324294604E00524114601E00524002101238DF818300A1D9C
:4007C0000B0A8DF81B30ADF802108DF819408DF81A1092B200230DF117002AB1845C013A23449BB292B2F8E75B4207AA9BB253540DF11D021B0A53540DF11E0317225A5456
:40080000073196230DF1020289B206A800F0B5F897E60324CFE70424CDE70824CBE700BFFA460040CC80FF1F282300006481FF1FB8F13F0F0ED82D4A05EB082312689BB2FE
:400840001268C2F30F2112F0FF0F1CBF013189B28B420ED32346294651AA404600F042F900280CBF00240A24002500F0F1F901269BE7002501260A2497E710221C48FFF71E
:400880007AFD044664428DF81C400121002493E74FEA082909EB0A014FF4807209020020FFF769FDB8F13F0F0446EBD809F11079D1444FEA4919002313F809000133044421
:4008C000202BE4B2F8D1B8F1030FDBD1BAF1FF0FD8D100210520FFF758FD201AC4B200210620FFF752FD201AC4B2CBE7CC80FF1F0080004038B50020FFF7C8FD144C0021E3
:40090000236800281A68084614BF06250025FFF732FD63681B78181A00F0FF00834202D123681B6813B9002000F06AF9094B1A7802F0C002402A1A4600D01DB100231370E0
:40094000FFF7F0FD80221A70BDE8384000F05AB9CC80FF1FFA46004008B562B60221002000F0F8FB014B01221A7008BD6881FF1F00F02EBC012000F0EFBC70B503EB83036F
:400980000E4615460146402202205C0000F0A6FC022000F087FC30B92CB10120013C00F039F9A4B2F4E7022000F07CFC10B12E80002070BD102070BD2DE9F84303EB83035B
:4009C0005C00224B17461A78804689461E46A2B1254600F055FC30B92DB10120013D00F019F9ADB2F5E700F04BFCA0B100F04EFCFFF7C0FF002333700DE000F047FC50B186
:400A000000F03EFC38B1FFF7B5FF04E054B100F001F9013CA4B2012000F044FC01284FF00100F3D100F03EFC01280AD14A46402A28BF4022414600F0A3FC38800020BDE811
:400A4000F88300233B801020BDE8F8836881FF1F70B500F037F900F0D5F908B104243AE000F00AFA0728044610D11C4D2A781B4B900703D4012000F0E3F8F7E71A789107A7
:400A800004D51B789B0814BF0724002400F0DAF90CBB00F017F900F0B5F90028DED1012000F096F907280AD10C4D02210C4800F01BF90228094E05D02B789B07F5D54FF0E4
:400AC000FF3406E033789A0703D4012000F0B8F8F8E700F0B7F9204670BD00BF224700407881FF1F41282DE9F04105460E46174698460AD8441F3A2C8CBF002401243F2838
:400B000004D8B1F5807F30D806E00124812E28BF0124B8F1100F28D13FB334BB00F072F928BB43463A463146284600F0FBF8072834D1DFF8748098F800201B4B12F0020F8D
:400B40001F4603D1012000F07BF8F4E71A78900706D51B789B080CD002E01A78920719D44FF0FF3400F06EF91AE0012418E0042416E00E4A314653782846127800F008F94C
:400B800007280BD13A78084B9107E6D4012000F057F8F7E71B789B08E4D0E1E70446E1E72046BDE8F08100BF224700407881FF1F08B500F0DDF90F4A137843F008031370AE
:400BC000137C43F0080313740B4BC8221A700B4A137843F010031370137C43F01003137402F5557213789B06FCD5BDE8084000F0C3B900BFA043004001470040AC43004025
:400C000001BE7047024A137843F0010313707047F646004038B50446084DB4F5004F05D9286800F09DF9A4F50044F6E7034B58686043BDE8384000F093B900BFD480FF1F0D
:400C4000024B1B7A584300F08BB900BFD480FF1F08B500F08DF900BF00BF00BF00BF00BF00BF00BF00BF00BF00BF00BF00BF00BF00BF00BF00BF064A13889BB243F00403FD
:400C800013801388BFF36F8FBDE8084000F074B900480040054A00F01F00126800F1100352F8230042F82310704700BF08ED00E000F01F0000F16040490100F56440C9B2C5
:400CC0000170704708B500F053F9064A137843F008031370137C43F008031374BDE8084000F04AB9A04300402DE9F0410E464B1E0A4FDFF82C80451EC418A5420BD03B784C
:400D0000DB0703D40120FFF79BFFF8E798F8003005F8013FF1E73046BDE8F081224700402047004070B5184D2C78A60727D5174CB6262670D5262670022626702D78AD0765
:400D40001FD416462070B51AADB2AB4203D916F8015B2570F7E7B3F5807F01D0072070BD3F28FBD800F5103001EB0021490100235A5C0133D2B2202B2270F9D1EEE70420FD
:400D800070BD092070BD00BF224700402047004070B50D4D2C78A60712D50C4CB6262670D8262670052626702D78AD070AD42070080AC9B22070217022702370072070BDDD
:400DC000042070BD092070BD22470040204700400A4A137899070CD5094BB6211970E12119700E2119701278920704D4187007207047042070470920704700BF2247004021
:400E00002047004038B500F0B3F80C4A147874B901250B4915700B682B400AD00B6823F001030B6000BF00BF00BF556002E0042400E01C4600F0A0F8204638BD6C81FF1F9C
:400E40000400084010B500F093F8094B00215A681970012A08D1074C226842F00102226000BF00BF00BF5960BDE8104000F084B86C81FF1F04000840074B1B789B0708D5BC
:400E8000064BB6221A70E0221A700D221A70072070470420704700BF2247004020470040184A137843F002031370937803F08F0343F010039370144B1A7802F0CF021A70B3
:400EC0001A7842F030021A701A7802F0F0021A701A7842F00F021A70642223F8072C5A2223F8052C002203F8082C084A137843F00103137092F85E3B43F0010382F85E3B22
:400F0000704700BF004F00400B4F0040A3430040074A137843F001031370137C43F00103137492F85D3B43F0010382F85D3B7047A343004008B505490B781BB9FFF7B0FFBA
:400F400001230B70BDE80840FFF7E2BF7481FF1F014B1880704700BF064F0040000000000230800803D000BF01380046FCD17047EFF3108072B6704780F31088704700BF2B
:400F8000F8B5FFF7F5FF3C4A01251378022743F001031370137C394C43F001031374384B02F5E3521D700B3203F8947C1378064603F07F0313700020FFF742FE2378314AEF
:400FC00003F0F90323701378284603F0DF03137023782B432370FFF733FE2820FFF730FE294B38461A7802F07F021A701A7802F0BF021A7023783B432370FFF721FE237843
:40100000304643F004032370204B00241C705C70FFF7B2FF07211720FFF74AFE1C491720FFF738FE07211820FFF742FE19491820FFF730FE07211520FFF73AFE1649152007
:40104000FFF728FE20460721FFF732FE13492046FFF720FE28460721FFF72AFE10492846FFF718FE07210C20FFF722FEBDE8F8400C490C20FFF70EBEA5430040944300407A
:401080009D60004012600040F851004084600040371800009916000035180000D917000005180000311A000008B51D4B01221A701C4B18701C48002303701C4803701C48FB
:4010C00003701C4803701C4803701C4803701C4803701C4B4FF4000018604FF0807018604FF4001018601A6002221A60164B29B1012903D11A7842F0010202E01A7802F00F
:40110000FE021A70114B03221A70802203F8202C0120FFF725FF0E4B04221A7008BD00BF0D82FF1FF181FF1F7F81FF1F7E81FF1F7C81FF1F0682FF1F0482FF1F7D81FF1F70
:40114000EE81FF1F00E100E009600040286000401260004070B5074C054623780E461BB9FFF70EFF0123237031462846BDE87040FFF79ABF7581FF1F0C4B01221A700C4AC7
:40118000002313700B4A13700B4A13700B4A13700B4A13700B4A13700B4A13700B4B03221A70802203F8202C704700BF0D82FF1F7F81FF1F7E81FF1F7C81FF1F0682FF1F6C
:4011C0000482FF1F7D81FF1FEE81FF1F2860004008B5FFF7CDFE204A137803F07F031370937A03F0FB039372A2F5E352033A137803F0FE031370137C03F0FE031374174BF5
:401200001A7842F080021A701A7842F040021A70FFF7B2FE124B4FF400021A604FF080721A604FF400121A6001221A6002221A6000F076FF0B4B4FF480521A600A4A002316
:4012400013700A4A13700A4A13700A4A13700A4A13700A4A137008BD08600040F851004080E100E080E200E07E81FF1F7C81FF1F0682FF1F0482FF1F7D81FF1F7581FF1F8D
:40128000014B1878704700BF7C81FF1F044B1A7802F0FF001AB118780022C0B21A7070477E81FF1F024A0C2303FB0020407870478281FF1F431E072B0CD8074A064B00015F
:4012C0000344805C5B7800F00F0043EA0020023880B2704700207047FC5F0040431E072BF0B531D8194B0C2505FB0035EC88184FA4B2C4F50074A2424FF00C0404FB003448
:4013000088BFEA88E67884BFC2F5007292B2104C46EA12260501EE552C44D6B2667041B90C2202FB0030002343704379DBB2A370F0BD0E46074F2F44751AADB2AA42EFD918
:4013400016F8015B3D72F7E7F0BD00BF8281FF1FFC5F004070600040431E072B0AD8064A0C2303FB002300225A705A79034BD2B200011A54704700BF8281FF1FFE5F0040F5
:4013800038B505461446D1B1431E072B19D8FFF791FFA04203D22846FFF78CFF04460A4609482B011844531A9BB29C4203D9037A02F8013BF7E72846FFF7CEFF02E00C468C
:4013C00000E00024204638BD7060004030B51A4A1A491B4D0878138803449BB21380194A00231488D8B2A4B27CB1082B0CD050680078C0B2E85450680133013050601088A7
:40140000013880B21080ECE718460B780E4C082B0E4A00D040B10E4D2B7883F080032B700F232370022301E0022323701370094B1870087030BD00BFF281FF1FEE81FF1FA4
:4014400000600040F881FF1F0C82FF1F7F81FF1F8081FF1FF481FF1F074B02221A70074B80221A70064B0F221A70064A00231370054A0120137070477F81FF1F8081FF1F52
:401480000C82FF1FEE81FF1FF481FF1F30B5164B16491B780A8803F00F03023BDBB21A4492B20A80124C134A0020118889B279B173B15568215C013BC9B229705168DBB2CE
:4014C0000131516011880130013989B21180ECE7094A1370094A137883F080031370084B0B221A7030BD00BF29600040F281FF1F00600040F881FF1FF481FF1F8081FF1F40
:401500000C82FF1F064A06231370064A01201370054B80221A70054B00221A70704700BF7F81FF1F0C82FF1F8081FF1FF481FF1F054B9A683AB19A68044910709A68098806
:40154000518000229A607047F881FF1FF281FF1F08B5124B1A78D2B21A701B78DBB21A0602D50F4A137008BD0220FFF7E1FF0D4B1B7803F06003202B05D0402B06D043B997
:4015800000F080FC04E000F0D3FD01E000F0B2FD10B9034B03221A7008BD00BF286000400C82FF1F0060004008B5084A084B0120197813880B449BB21380064B00221A7062
:4015C000FFF7B6FF044B03221A7008BDF281FF1FEE81FF1F7F81FF1F0C82FF1F08B50C4B1B78DBB2042B07D0062B09D0022B0DD1BDE80840FFF7D8BFBDE80840FFF746BFE4
:401600000320FFF795FF034B03221A7008BD00BF7F81FF1F0C82FF1F08B5054B002201201A70FFF785FF034B03221A7008BD00BF7F81FF1F0C82FF1F08B50A4B1A7832B18C
:401640001A78094942F080020A7000221A70074B002201201A70FFF76BFF054B03221A7008BD00BF0482FF1F086000407F81FF1F0C82FF1F074B1B78DBB2042B05D0062BED
:4016800005D0022B05D1FFF7A1BEFFF7C5BFFFF7D3BF70477F81FF1F38B51D4C2378DBB2DD0634D518060AD503F00F03012B2ED1FFF74EFF174B1B78190609D538BD5A0605
:4016C00002D5FFF7D7FF03E09D0620D5FFF786FF23781B061BD4104B1A78104B1B7813430F4A13701278934211D10A4A0849154613782078DBB2000605D41378DBB20B7036
:401700000B7803F00F0328788342F1D138BD38BD286000400C82FF1F8081FF1FF481FF1F29600040054A00231380054A916819B191680B7092685380704700BFF281FF1FC2
:40174000F881FF1F0E4808B503889BB213B9FFF783FE13E00B4B02221A700B4B00221A70FFF7E0FF094AD1799379028843EA012392B2934238BF0380FFF728FE012008BDBD
:40178000F881FF1F7F81FF1F8081FF1F0060004008B50C4B04221A700B4B80221A70FFF7C1FF0A4A0120D179937943EA012308490A8892B2934238BF0B80064B0B221A7017
:4017C00008BD00BF7F81FF1F8081FF1F00600040F881FF1F0C82FF1F084B01221A700F3B9B7C074B1A7B02F00302012A1EBFDA7B82F08002DA7301225A7370470B60004016
:401800008281FF1F094B02221A700F3B93F82230074B1A7E02F00302012A1EBFDA7E82F08002DA7601225A76704700BF0B6000408281FF1F7047FFF79FBC000008B50B4B89
:4018400018780138C0B200F035F9094B09491B79DBB200EBC3004269CB5C02EBC3035B68054A596A0B781380516008BD7C81FF1F00600040F081FF1FF881FF1F08B50D4BBE
:4018800018780138C0B200F015F90B4B0B491B79DBB200EBC3004269CB5C02EBC3035B68DB69597813F8022B42EA012204490A804B6008BD7C81FF1F00600040F081FF1F01
:4018C000F881FF1F38B5174C00232380164B18780138C0B200F0EEF8144AD3781179DBB2F1B913490978CDB2591E022918D8416903F1005301EBC5014968013B927801EBEB
:40190000C30011F83330D2B2934209D30C2353434168CA185068CB5A606023809368A36038BD00BFF881FF1F7C81FF1F00600040F081FF1F10B5394B1A791978D2B211F02E
:40194000800F194632D05B78013B052B63D8DFE803F0101826626203CB78212B02D1FFF76DFF08E02D4BDB78222B54D1FFF786FF01E0FFF7A7FF2A4B1B889BB2002B4AD0A3
:4019800009E0002A47D18B78002B44D1244B01221A80244A5A60BDE81040FFF7D3BE002A39D11F4B01221A801F4AF3E75978C9B20A290DD00B2922D009292CD1FFF782FF23
:4019C000174B1B889BB233B3BDE81040FFF7E0BE0ABB9A7802F0FF01EAB9DB78114ADBB21370124B14781878844201D219700EE0197801290BD91278D2B21A7007E052B94A
:401A00009A78012A07D89B78074ADBB21370BDE81040FFF777BD002010BD00BF00600040F881FF1F0F82FF1F0D82FF1F0E82FF1F00F076BB2DE9F0411A4D01222E460C2078
:401A400080274FF0080E184B00FB025C14012344187016499CF805802144B8F1000F07D09CF8044024064CBF887081F802E000E08F7000FB0261CC880132E4B29C71CC8823
:401A8000092AC4F30724DC71CC88E4B21C71C988C1F307215971D6D1054BFF221A70BDE8F08100BF8281FF1F70600040FC5F00400A600040064B074A1B7802EBC3025368C7
:401AC0001A7C824286BF03EBC003586900207047F181FF1F6C2300002DE9F84F424B1A78002A7ED01878414D0138C0B2FFF7E2FFA8463F4AC3681478007ADFF800C1E4B275
:401B000003EBC0000C2600274FF0010E834268D01A78A24263D11CF80420597891425ED19A7893F8039002F07F0206FB02FA05EB0A01CF7093F802B009F0030981F804B055
:401B400093F803B005F80AB0B3F804A0A1F808A093F902A0BAF1000F0BDAB9F1010F0CBF4FF007094FF00D0981F8059081F801E009E0B9F1010F0CBF4FF005094FF0090976
:401B800081F805904F704FEA02191A4906FB0282494481F802E0B2F808A0CAF3072A81F800A0B2F808A05FFA8AFA81F801A0B2F806A011495FFA8AFA494481F806A0B2F8B5
:401BC0000690C9F3072981F80790B2F806905FFA89F981F80490D288C2F307224A71083394E7BDE8F88F00BF7C81FF1F8281FF1F0682FF1FFC5F004070600040F081FF1F7B
:401C000008B5064B18780138C0B2FFF753FF20B143681B7900EBC300406908BD7C81FF1F00212DE9F84F0B464C4E0C2707FB01F501317219092973554FF000049370474DA7
:401C4000D3701381937253705371EFD118B1444B1C70444B1C70444B1A78002A7BD0187801240138C0B2FFF725FFA0464368DFF8F0E0DB790C2713F0400F3C4B4FF0000C4F
:401C80001A7814BF42F0010202F0FE021A70027AD20007FB0451C36803EB02094B4531D093F802A00AF07F06A64229D10E89B3F804B0B6B25E4538BFA1F808B01E7893F8BC
:401CC00001B01EF80660B3451AD181F804A0DE780E7093F902A0DE78BAF1000F06F0030607DA012E0CBF07260D264E7181F8018006E0012E0CBF052609264E7181F801C07F
:401D00000833CBE70134092CC3D1C1680A328B1C0A440C200833934209D013F8081C13F80A4C01F07F0100FB01518C72F2E7FFF767FF0F4B0122186000230C2000FB025136
:401D4000CB80098901320B44092A9BB2F6D1BDE8F84FFFF76FBEBDE8F88F00BF8281FF1FF081FF1FEF81FF1F7C81FF1F7D81FF1F0882FF1F114B1B7903F07F035A1E072A98
:401D800019D80F490C2202FB031291781B0141F0010191700021D170517841F002015170127912F0800F074A1A4414BF8D2389239370FFF7A7BB0020704700BF0060004096
:401DC0008281FF1FFC5F004030B4194B1A7902F07F02531E072B27D8164B0C2404FB02339978154D01F0FE0199700021D97029461201505D114400F07F0050555A7802F040
:401E0000FD025A701A795B78120605D5012B01D18C7006E00D2303E0012B0CBF082309238B7030BCFFF76EBB002030BC704700BF006000408281FF1FFC5F004010B50D4B3F
:401E40000D4C21791878C9B20138C0B2FFF732FE43681B798B4201D2012909D8074A0848535CDBB24354A3780120DBB2535410BD002010BD7C81FF1F00600040F081FF1FC1
:401E8000EF81FF1F38B5894A894913780020DBB20880180640F18C8050780A2800F20481DFE810F05B00020102010201020102010B0002017C0002018000D3787B48012BFE
:401EC00009D17C4B1A787C4B03EBC2035B685B684B60122310E0C378022B12D18078FFF7E9FD002800F0E08043684B604B68DA784B689B7843EA02230B80BDE83840FFF737
:401F000021BCC378032B24D16C4B00228478D5B2A54210D3654A9078694AEE2808BF1346624A907870B1674C9078247C664A844208BF134606E01C780132002CEAD01C78B3
:401F40002344E3E71A78002A00F0AE801A780A8018E0BDE8384000F0EBB813F0030313D0022B40F0A1800B80504B0C201B7903F07F02564B00FB02339A78554BD2B21A703D
:401F800000225A704B60B8E702220A80514A10784F4AC0B2107053704A60AEE701230B804D4BEFE701230B8013794C4A1344E9E7517801390A2977D8DFE801F037764F76C9
:401FC000067676760A7620009378454ADBB25AE0937803F0FF0153B93F4B1A7891425FD01970404B01201870FFF71AFE58E0481EC0B2FFF75FFD0028EED155E0FFF71EFFF4
:40200000002851D0294A384913791279DBB2D2B20A70364A3149D25CCB5C9A4240D0314B01221A70FFF758FD3AE003F00303012B2BD009D3022B37D11C4B9B78002B33D11E
:40204000BDE83840FFF7C0BE184B9B78012B2BD1204A137803F0FD0315E003F00303012B13D008D3022B1FD1104B9B78E3B9BDE83840FFF77FBE0D4B9B78012B14D1154A1F
:40208000137843F0020313700AE0084B1A795AB998781B791649DBB2CA5C22EA0002CA54BDE83840FFF72EBA002038BD00600040F881FF1FF181FF1F6C2300003A24000051
:4020C00058230000A2240000302400008281FF1F7681FF1F7D81FF1F7C81FF1FF081FF1F0482FF1F7E81FF1F0682FF1FEF81FF1F0582FF1F074B1A78120609D55B78012BDC
:4021000006D1054B054A5A6012781A80FFF71ABB0020704700600040F881FF1F30230000024B1878C0F38010704700BF8F4500400F4A137803F00303012B0AD0022B0DD187
:4021400013790C2103F07F020A4B01FB02339B7A00E01379DBB2012B08D800E00023064A1268D35C032B01D1FFF7E4BB00207047006000408281FF1F0882FF1F014B1868F5
:40218000704700BF4481FF1F0E4B70B51E460E4C0025E41AA410A54204D056F8253098470135F8E700F088F9084B094C1E46E41AA4100025A54204D056F82530984701359A
:4021C000F8E770BDC4240000C4240000C4240000CC24000010B5431E0A44914204D011F8014B03F8014FF8E710BD03460244934202D003F8011BFAE77047000000260000B9
:40220000E100000000000000004F00400C00205100401000405100401000605100401000C0510040100000000140001000140140000800400140000A004C01400002005006
:402240000140200001450040014F0040055200400107014001090140040A0140010B0140021701400219014003400140044101400442014007430140034701400748014033
:40228000054C0140034D0140015101407E020A4B28042904780879087C40EE08AF20B820BE10D804DF011F20EC40EE0AEC40EE0A33803640CC306302A640A780D6406302BD
:4022C000A640A781D6401901A301A640A780AF01C610EE1008080F40C20C5701A301AE40AF80B501D620EE50A002AC08AF40B402EC025402A002D604000A004040004000B6
:4023000000004000000808000800C000000B0B000000000000020200020000000400000404000400000000006920122E003C01012800000000010400010000000000000024
:4023400000014359555342000000303030303100000000000000000012034D0053004600540031003000300001000000010000007423000001000000A224000000000000A5
:4023800000000000010000008C230000010000007924000002000000AE23000001000000C023000000000000AC230000030000000103400003000000820340000300000037
:4023C00001000000C823000000000000FC23000000000000F023000000000000000000000100000008240000010000008B240000410000001882FF1F1482FF1F41000000F4
:402400005982FF1F1082FF1F240005010900A1000900A1000900150025FF7508954091020900150025FF750895408102C0C000000A033000300030003100040309041603BC
:4024400055006E0069006C0075007800200049006E006300240355006E0069006C0075007800200042006F006F0074006C006F00610064006500720000090229000101028E
:40248000800A09040000020300000209211101000122240007050103400001070582034000011201000200000008B4041DB701300102800143000000F8B500BFF8BC08BC53
:4024C0009E467047510000000D030000F8B500BFF8BC08BC9E4670472D000000F0240000C880FF1F80000000580100000000000000000000FC210000002200000000E8803A
:40250000D0010100420000008014EF030000000000000000000000000000000000000000000000000000000000000000B42400000000000000000000000000000000000029
:402540000000000000000000000000000000000000000000000000000000000000000000000000000000000000000000E480FF1F00000000000000000000000000000000D9
:40258000000000000000000000000000000000000000000000000000000000000000000000000000000000000000000000000000000000000000000000000000000000001B
:4025C00000000000000000000000000000000000000000000000000000000000000000000000000000000000000000000000000000000000000000000000000000000000DB
:40260000000000000000000000000000000000000000000000000000000000000000000000000000000000000000000000000000000000000000000000000000000000009A
:40264000000000000000000000000000000000000000000000000000000000000000000000000000000000000000000000000000000000000000000000000000000000005A
:020000040003F7
:40FFC00000000000000000000000000000000000000002000100010000000000000000000000000000000000000000000000000000000000000000000000000000000000FD
:0200000480007A
:4000000000000000000000000000000000000000000000000000000000000000000000000000000000000000000000000000000000000000000000000000000000000000C0
:400040000000000000000000000000000000000000000000000000000000000000000000000000000000000000000000000000000000000000000000000000000000000080
:400080000000000000000000000000000000000000000000000000000000000000000000000000000000000000000000000000000000000000000000000000000000000040
:4000C0000000000000000000000000000000000000000000000000000000000000000000000000000000000000000000000000000000000000000000000000000000000000
:0200000490006A
:04000000C0004005F7
:0200000490105A
:04000000BC90ACAF55
:0200000490303A
:02000000B0044A
:0200000490402A
:4000000000000000000000000000000000000000000000000000000000000000000000000000000000000000000000000000000000000000000000000000000000000000C0
:400040000000000000000000000000000000000000000000000000000000000000000000000000000000000000000000000000000000000000000000000000000000000080
:400080000000000000000000000000000000000000000000000000000000000000000000000000000000000000000000000000000000000000000000000000000000000040
:4000C0000000000000000000000000000000000000000000000000000000000000000000000000000000000000000000000000000000000000000000000000000000000000
:0200000490501A
:0C00000000012E12206900012E1FD06D9F
:00000001FF